{
  "contractName": "Voting",
  "abi": [
    {
      "inputs": [
        {
          "internalType": "uint256",
          "name": "",
          "type": "uint256"
        }
      ],
      "name": "allParties",
      "outputs": [
        {
          "internalType": "uint256",
          "name": "pollId",
          "type": "uint256"
        },
        {
          "internalType": "string",
          "name": "partyName",
          "type": "string"
        },
        {
          "internalType": "string",
          "name": "partyLeader",
          "type": "string"
        },
        {
          "internalType": "string",
          "name": "symbolPath",
          "type": "string"
        },
        {
          "internalType": "uint256",
          "name": "partyId",
          "type": "uint256"
        }
      ],
      "stateMutability": "view",
      "type": "function",
      "constant": true
    },
    {
      "inputs": [
        {
          "internalType": "uint256",
          "name": "",
          "type": "uint256"
        }
      ],
      "name": "pollVotes",
      "outputs": [
        {
          "internalType": "uint256",
          "name": "pollId",
          "type": "uint256"
        },
        {
          "internalType": "bool",
          "name": "initialized",
          "type": "bool"
        }
      ],
      "stateMutability": "view",
      "type": "function",
      "constant": true
    },
    {
      "inputs": [
        {
          "internalType": "uint256",
          "name": "",
          "type": "uint256"
        }
      ],
      "name": "polledVoters",
      "outputs": [
        {
          "internalType": "uint256",
          "name": "pollId",
          "type": "uint256"
        }
      ],
      "stateMutability": "view",
      "type": "function",
      "constant": true
    },
    {
      "inputs": [
        {
          "internalType": "uint256",
          "name": "",
          "type": "uint256"
        }
      ],
      "name": "polls",
      "outputs": [
        {
          "internalType": "uint256",
          "name": "pollId",
          "type": "uint256"
        },
        {
          "internalType": "string",
          "name": "pollName",
          "type": "string"
        },
        {
          "internalType": "string",
          "name": "pollDate",
          "type": "string"
        },
        {
          "internalType": "string",
          "name": "startTime",
          "type": "string"
        },
        {
          "internalType": "string",
          "name": "endTime",
          "type": "string"
        }
      ],
      "stateMutability": "view",
      "type": "function",
      "constant": true
    },
    {
      "inputs": [
        {
          "internalType": "uint256",
          "name": "",
          "type": "uint256"
        }
      ],
      "name": "voterAadhars",
      "outputs": [
        {
          "internalType": "string",
          "name": "",
          "type": "string"
        }
      ],
      "stateMutability": "view",
      "type": "function",
      "constant": true
    },
    {
      "inputs": [
        {
          "internalType": "string",
          "name": "",
          "type": "string"
        }
      ],
      "name": "voters",
      "outputs": [
        {
          "internalType": "uint256",
          "name": "id",
          "type": "uint256"
        },
        {
          "internalType": "string",
          "name": "fullName",
          "type": "string"
        },
        {
          "internalType": "string",
          "name": "aadharNumber",
          "type": "string"
        },
        {
          "internalType": "string",
          "name": "irisImagePath",
          "type": "string"
        },
        {
          "internalType": "string",
          "name": "email",
          "type": "string"
        },
        {
          "internalType": "string",
          "name": "password",
          "type": "string"
        }
      ],
      "stateMutability": "view",
      "type": "function",
      "constant": true
    },
    {
      "inputs": [
        {
          "internalType": "string",
          "name": "_fullName",
          "type": "string"
        },
        {
          "internalType": "string",
          "name": "_aadharNumber",
          "type": "string"
        },
        {
          "internalType": "string",
          "name": "_irisImagePath",
          "type": "string"
        },
        {
          "internalType": "string",
          "name": "_email",
          "type": "string"
        },
        {
          "internalType": "string",
          "name": "_password",
          "type": "string"
        }
      ],
      "name": "registerVoter",
      "outputs": [],
      "stateMutability": "nonpayable",
      "type": "function"
    },
    {
      "inputs": [
        {
          "internalType": "uint256",
          "name": "_pollId",
          "type": "uint256"
        }
      ],
      "name": "getPollById",
      "outputs": [
        {
          "internalType": "uint256",
          "name": "",
          "type": "uint256"
        },
        {
          "internalType": "string",
          "name": "",
          "type": "string"
        },
        {
          "internalType": "string",
          "name": "",
          "type": "string"
        },
        {
          "internalType": "string",
          "name": "",
          "type": "string"
        },
        {
          "internalType": "string",
          "name": "",
          "type": "string"
        }
      ],
      "stateMutability": "view",
      "type": "function",
      "constant": true
    },
    {
      "inputs": [
        {
          "internalType": "uint256",
          "name": "partyId",
          "type": "uint256"
        }
      ],
      "name": "getPartiesByPartyId",
      "outputs": [
        {
          "components": [
            {
              "internalType": "uint256",
              "name": "pollId",
              "type": "uint256"
            },
            {
              "internalType": "string",
              "name": "partyName",
              "type": "string"
            },
            {
              "internalType": "string",
              "name": "partyLeader",
              "type": "string"
            },
            {
              "internalType": "string",
              "name": "symbolPath",
              "type": "string"
            },
            {
              "internalType": "uint256",
              "name": "partyId",
              "type": "uint256"
            }
          ],
          "internalType": "struct Voting.Party[]",
          "name": "",
          "type": "tuple[]"
        }
      ],
      "stateMutability": "view",
      "type": "function",
      "constant": true
    },
    {
      "inputs": [
        {
          "internalType": "string",
          "name": "aadhar",
          "type": "string"
        }
      ],
      "name": "getVoter",
      "outputs": [
        {
          "internalType": "uint256",
          "name": "",
          "type": "uint256"
        },
        {
          "internalType": "string",
          "name": "",
          "type": "string"
        },
        {
          "internalType": "string",
          "name": "",
          "type": "string"
        },
        {
          "internalType": "string",
          "name": "",
          "type": "string"
        },
        {
          "internalType": "string",
          "name": "",
          "type": "string"
        },
        {
          "internalType": "string",
          "name": "",
          "type": "string"
        }
      ],
      "stateMutability": "view",
      "type": "function",
      "constant": true
    },
    {
      "inputs": [],
      "name": "getAllVoters",
      "outputs": [
        {
          "components": [
            {
              "internalType": "uint256",
              "name": "id",
              "type": "uint256"
            },
            {
              "internalType": "string",
              "name": "fullName",
              "type": "string"
            },
            {
              "internalType": "string",
              "name": "aadharNumber",
              "type": "string"
            },
            {
              "internalType": "string",
              "name": "irisImagePath",
              "type": "string"
            },
            {
              "internalType": "string",
              "name": "email",
              "type": "string"
            },
            {
              "internalType": "string",
              "name": "password",
              "type": "string"
            }
          ],
          "internalType": "struct Voting.Voter[]",
          "name": "",
          "type": "tuple[]"
        }
      ],
      "stateMutability": "view",
      "type": "function",
      "constant": true
    },
    {
      "inputs": [
        {
          "internalType": "uint256",
          "name": "_id",
          "type": "uint256"
        },
        {
          "internalType": "string",
          "name": "_partyName",
          "type": "string"
        },
        {
          "internalType": "string",
          "name": "_partyLeader",
          "type": "string"
        },
        {
          "internalType": "string",
          "name": "_symbolPath",
          "type": "string"
        }
      ],
      "name": "addParty",
      "outputs": [],
      "stateMutability": "nonpayable",
      "type": "function"
    },
    {
      "inputs": [
        {
          "internalType": "uint256",
          "name": "_id",
          "type": "uint256"
        }
      ],
      "name": "getParty",
      "outputs": [
        {
          "internalType": "uint256",
          "name": "",
          "type": "uint256"
        },
        {
          "internalType": "string",
          "name": "",
          "type": "string"
        },
        {
          "internalType": "string",
          "name": "",
          "type": "string"
        },
        {
          "internalType": "string",
          "name": "",
          "type": "string"
        }
      ],
      "stateMutability": "view",
      "type": "function",
      "constant": true
    },
    {
      "inputs": [
        {
          "internalType": "string",
          "name": "_pollName",
          "type": "string"
        },
        {
          "internalType": "string",
          "name": "_pollDate",
          "type": "string"
        },
        {
          "internalType": "string",
          "name": "_startTime",
          "type": "string"
        },
        {
          "internalType": "string",
          "name": "_endTime",
          "type": "string"
        }
      ],
      "name": "addPoll",
      "outputs": [],
      "stateMutability": "nonpayable",
      "type": "function"
    },
    {
      "inputs": [],
      "name": "getAllPolls",
      "outputs": [
        {
          "components": [
            {
              "internalType": "uint256",
              "name": "pollId",
              "type": "uint256"
            },
            {
              "internalType": "string",
              "name": "pollName",
              "type": "string"
            },
            {
              "internalType": "string",
              "name": "pollDate",
              "type": "string"
            },
            {
              "internalType": "string",
              "name": "startTime",
              "type": "string"
            },
            {
              "internalType": "string",
              "name": "endTime",
              "type": "string"
            }
          ],
          "internalType": "struct Voting.Poll[]",
          "name": "",
          "type": "tuple[]"
        }
      ],
      "stateMutability": "view",
      "type": "function",
      "constant": true
    },
    {
      "inputs": [
        {
          "internalType": "uint256",
          "name": "_pollId",
          "type": "uint256"
        },
        {
          "internalType": "uint256",
          "name": "_partyId",
          "type": "uint256"
        },
        {
          "internalType": "string",
          "name": "_aadharNumber",
          "type": "string"
        }
      ],
      "name": "vote",
      "outputs": [],
      "stateMutability": "nonpayable",
      "type": "function"
    },
    {
      "inputs": [
        {
          "internalType": "uint256",
          "name": "_pollId",
          "type": "uint256"
        },
        {
          "internalType": "uint256",
          "name": "_partyId",
          "type": "uint256"
        }
      ],
      "name": "getVotes",
      "outputs": [
        {
          "internalType": "uint256",
          "name": "",
          "type": "uint256"
        }
      ],
      "stateMutability": "view",
      "type": "function",
      "constant": true
    },
    {
      "inputs": [
        {
          "internalType": "uint256",
          "name": "_pollId",
          "type": "uint256"
        },
        {
          "internalType": "string",
          "name": "_aadharNumber",
          "type": "string"
        }
      ],
      "name": "hasVoted",
      "outputs": [
        {
          "internalType": "bool",
          "name": "",
          "type": "bool"
        }
      ],
      "stateMutability": "view",
      "type": "function",
      "constant": true
    },
    {
      "inputs": [
        {
          "internalType": "uint256",
          "name": "_pollId",
          "type": "uint256"
        }
      ],
      "name": "getPollResults",
      "outputs": [
        {
          "internalType": "uint256[]",
          "name": "partyIds",
          "type": "uint256[]"
        },
        {
          "internalType": "uint256[]",
          "name": "voteCounts",
          "type": "uint256[]"
        }
      ],
      "stateMutability": "view",
      "type": "function",
      "constant": true
    },
    {
      "inputs": [
        {
          "internalType": "string",
          "name": "_aadharNumber",
          "type": "string"
        }
      ],
      "name": "deleteVoter",
      "outputs": [],
      "stateMutability": "nonpayable",
      "type": "function"
    }
  ],
  "bytecode": "0x608060405260008055600060055534801561001957600080fd5b506144e2806100296000396000f3fe608060405234801561001057600080fd5b506004361061012c5760003560e01c806357a834e0116100ad578063947582181161007157806394758218146103b1578063a1bbfc05146103e4578063ac2f007414610400578063d4bc5e9114610434578063f20f4e23146104685761012c565b806357a834e0146102d15780635ed5d2c3146103015780635f8fd5791461031d57806360d505961461034d57806391f36633146103815761012c565b806335bbe70e116100f457806335bbe70e146102015780633d9e100c1461021f57806345fbfa1f146102505780634b2966ec1461026c57806353fa2e641461029c5761012c565b806308829408146101315780630d0b800f1461014d57806314a0069a1461017d57806332b633fa146101b257806333b4097b146101d0575b600080fd5b61014b60048036038101906101469190612ded565b610484565b005b61016760048036038101906101629190612ea8565b6105e3565b6040516101749190612f54565b60405180910390f35b61019760048036038101906101929190612f76565b61068f565b6040516101a996959493929190612fce565b60405180910390f35b6101ba610a4e565b6040516101c791906131f8565b60405180910390f35b6101ea60048036038101906101e59190612ea8565b610d84565b6040516101f89291906132c9565b60405180910390f35b610209610f62565b6040516102169190613467565b60405180910390f35b61023960048036038101906102349190612ea8565b611334565b6040516102479291906134a4565b60405180910390f35b61026a60048036038101906102659190612f76565b611365565b005b61028660048036038101906102819190612ea8565b611544565b60405161029391906134cd565b60405180910390f35b6102b660048036038101906102b19190612f76565b611562565b6040516102c896959493929190612fce565b60405180910390f35b6102eb60048036038101906102e691906134e8565b61185c565b6040516102f89190613544565b60405180910390f35b61031b6004803603810190610316919061355f565b6118a6565b005b61033760048036038101906103329190612ea8565b611a31565b60405161034491906137ac565b60405180910390f35b61036760048036038101906103629190612ea8565b611d6b565b6040516103789594939291906137ce565b60405180910390f35b61039b60048036038101906103969190613836565b611f49565b6040516103a891906134cd565b60405180910390f35b6103cb60048036038101906103c69190612ea8565b611fde565b6040516103db9493929190613876565b60405180910390f35b6103fe60048036038101906103f991906138d0565b61225a565b005b61041a60048036038101906104159190612ea8565b61251c565b60405161042b95949392919061393f565b60405180910390f35b61044e60048036038101906104499190612ea8565b612772565b60405161045f95949392919061393f565b60405180910390f35b610482600480360381019061047d91906139ae565b612a80565b005b600a600081548092919061049790613ab4565b91905055506040518060a00160405280858152602001848152602001838152602001828152602001600a54815250600360008681526020019081526020016000206000820151816000015560208201518160010190816104f79190613d08565b50604082015181600201908161050d9190613d08565b5060608201518160030190816105239190613d08565b506080820151816004015590505060046040518060a00160405280868152602001858152602001848152602001838152602001600a5481525090806001815401808255809150506001900390600052602060002090600502016000909190919091506000820151816000015560208201518160010190816105a49190613d08565b5060408201518160020190816105ba9190613d08565b5060608201518160030190816105d09190613d08565b5060808201518160040155505050505050565b600281815481106105f357600080fd5b90600052602060002001600091509050805461060e90613b2b565b80601f016020809104026020016040519081016040528092919081815260200182805461063a90613b2b565b80156106875780601f1061065c57610100808354040283529160200191610687565b820191906000526020600020905b81548152906001019060200180831161066a57829003601f168201915b505050505081565b6000606080606080606060006001886040516106ab9190613e16565b908152602001604051809103902060020180546106c790613b2b565b905011610709576040517f08c379a000000000000000000000000000000000000000000000000000000000815260040161070090613e79565b60405180910390fd5b600060018860405161071b9190613e16565b90815260200160405180910390206040518060c00160405290816000820154815260200160018201805461074e90613b2b565b80601f016020809104026020016040519081016040528092919081815260200182805461077a90613b2b565b80156107c75780601f1061079c576101008083540402835291602001916107c7565b820191906000526020600020905b8154815290600101906020018083116107aa57829003601f168201915b505050505081526020016002820180546107e090613b2b565b80601f016020809104026020016040519081016040528092919081815260200182805461080c90613b2b565b80156108595780601f1061082e57610100808354040283529160200191610859565b820191906000526020600020905b81548152906001019060200180831161083c57829003601f168201915b5050505050815260200160038201805461087290613b2b565b80601f016020809104026020016040519081016040528092919081815260200182805461089e90613b2b565b80156108eb5780601f106108c0576101008083540402835291602001916108eb565b820191906000526020600020905b8154815290600101906020018083116108ce57829003601f168201915b5050505050815260200160048201805461090490613b2b565b80601f016020809104026020016040519081016040528092919081815260200182805461093090613b2b565b801561097d5780601f106109525761010080835404028352916020019161097d565b820191906000526020600020905b81548152906001019060200180831161096057829003601f168201915b5050505050815260200160058201805461099690613b2b565b80601f01602080910402602001604051908101604052809291908181526020018280546109c290613b2b565b8015610a0f5780601f106109e457610100808354040283529160200191610a0f565b820191906000526020600020905b8154815290600101906020018083116109f257829003601f168201915b5050505050815250509050806000015181602001518260400151836060015184608001518560a001519650965096509650965096505091939550919395565b6060600060078054905067ffffffffffffffff811115610a7157610a70612cc2565b5b604051908082528060200260200182016040528015610aaa57816020015b610a97612b6c565b815260200190600190039081610a8f5790505b50905060005b600780549050811015610d7c576006600060078381548110610ad557610ad4613e99565b5b906000526020600020015481526020019081526020016000206040518060a001604052908160008201548152602001600182018054610b1390613b2b565b80601f0160208091040260200160405190810160405280929190818152602001828054610b3f90613b2b565b8015610b8c5780601f10610b6157610100808354040283529160200191610b8c565b820191906000526020600020905b815481529060010190602001808311610b6f57829003601f168201915b50505050508152602001600282018054610ba590613b2b565b80601f0160208091040260200160405190810160405280929190818152602001828054610bd190613b2b565b8015610c1e5780601f10610bf357610100808354040283529160200191610c1e565b820191906000526020600020905b815481529060010190602001808311610c0157829003601f168201915b50505050508152602001600382018054610c3790613b2b565b80601f0160208091040260200160405190810160405280929190818152602001828054610c6390613b2b565b8015610cb05780601f10610c8557610100808354040283529160200191610cb0565b820191906000526020600020905b815481529060010190602001808311610c9357829003601f168201915b50505050508152602001600482018054610cc990613b2b565b80601f0160208091040260200160405190810160405280929190818152602001828054610cf590613b2b565b8015610d425780601f10610d1757610100808354040283529160200191610d42565b820191906000526020600020905b815481529060010190602001808311610d2557829003601f168201915b505050505081525050828281518110610d5e57610d5d613e99565b5b60200260200101819052508080610d7490613ab4565b915050610ab0565b508091505090565b6060806008600084815260200190815260200160002060030160009054906101000a900460ff16610dea576040517f08c379a0000000000000000000000000000000000000000000000000000000008152600401610de190613f14565b60405180910390fd5b6000600860008581526020019081526020016000206002018054905090508067ffffffffffffffff811115610e2257610e21612cc2565b5b604051908082528060200260200182016040528015610e505781602001602082028036833780820191505090505b5092508067ffffffffffffffff811115610e6d57610e6c612cc2565b5b604051908082528060200260200182016040528015610e9b5781602001602082028036833780820191505090505b50915060005b81811015610f5b576000600860008781526020019081526020016000206002018281548110610ed357610ed2613e99565b5b9060005260206000200154905080858381518110610ef457610ef3613e99565b5b60200260200101818152505060086000878152602001908152602001600020600101600082815260200190815260200160002054848381518110610f3b57610f3a613e99565b5b602002602001018181525050508080610f5390613ab4565b915050610ea1565b5050915091565b6060600060028054905067ffffffffffffffff811115610f8557610f84612cc2565b5b604051908082528060200260200182016040528015610fbe57816020015b610fab612b9b565b815260200190600190039081610fa35790505b50905060005b60028054905081101561132c57600160028281548110610fe757610fe6613e99565b5b90600052602060002001604051610ffe9190613fb7565b90815260200160405180910390206040518060c00160405290816000820154815260200160018201805461103190613b2b565b80601f016020809104026020016040519081016040528092919081815260200182805461105d90613b2b565b80156110aa5780601f1061107f576101008083540402835291602001916110aa565b820191906000526020600020905b81548152906001019060200180831161108d57829003601f168201915b505050505081526020016002820180546110c390613b2b565b80601f01602080910402602001604051908101604052809291908181526020018280546110ef90613b2b565b801561113c5780601f106111115761010080835404028352916020019161113c565b820191906000526020600020905b81548152906001019060200180831161111f57829003601f168201915b5050505050815260200160038201805461115590613b2b565b80601f016020809104026020016040519081016040528092919081815260200182805461118190613b2b565b80156111ce5780601f106111a3576101008083540402835291602001916111ce565b820191906000526020600020905b8154815290600101906020018083116111b157829003601f168201915b505050505081526020016004820180546111e790613b2b565b80601f016020809104026020016040519081016040528092919081815260200182805461121390613b2b565b80156112605780601f1061123557610100808354040283529160200191611260565b820191906000526020600020905b81548152906001019060200180831161124357829003601f168201915b5050505050815260200160058201805461127990613b2b565b80601f01602080910402602001604051908101604052809291908181526020018280546112a590613b2b565b80156112f25780601f106112c7576101008083540402835291602001916112f2565b820191906000526020600020905b8154815290600101906020018083116112d557829003601f168201915b50505050508152505082828151811061130e5761130d613e99565b5b6020026020010181905250808061132490613ab4565b915050610fc4565b508091505090565b60086020528060005260406000206000915090508060000154908060030160009054906101000a900460ff16905082565b60006001826040516113779190613e16565b9081526020016040518091039020600201805461139390613b2b565b9050116113d5576040517f08c379a00000000000000000000000000000000000000000000000000000000081526004016113cc9061401a565b60405180910390fd5b6001816040516113e59190613e16565b908152602001604051809103902060008082016000905560018201600061140c9190612bd1565b60028201600061141c9190612bd1565b60038201600061142c9190612bd1565b60048201600061143c9190612bd1565b60058201600061144c9190612bd1565b505060005b6002805490508110156115405781805190602001206002828154811061147a57611479613e99565b5b9060005260206000200160405161149191906140dd565b60405180910390200361152d57600260016002805490506114b291906140f4565b815481106114c3576114c2613e99565b5b90600052602060002001600282815481106114e1576114e0613e99565b5b9060005260206000200190816114f79190614153565b50600280548061150a5761150961423b565b5b6001900381819060005260206000200160006115269190612bd1565b9055611540565b808061153890613ab4565b915050611451565b5050565b60096020528060005260406000206000915090508060000154905081565b6001818051602081018201805184825260208301602085012081835280955050505050506000915090508060000154908060010180546115a190613b2b565b80601f01602080910402602001604051908101604052809291908181526020018280546115cd90613b2b565b801561161a5780601f106115ef5761010080835404028352916020019161161a565b820191906000526020600020905b8154815290600101906020018083116115fd57829003601f168201915b50505050509080600201805461162f90613b2b565b80601f016020809104026020016040519081016040528092919081815260200182805461165b90613b2b565b80156116a85780601f1061167d576101008083540402835291602001916116a8565b820191906000526020600020905b81548152906001019060200180831161168b57829003601f168201915b5050505050908060030180546116bd90613b2b565b80601f01602080910402602001604051908101604052809291908181526020018280546116e990613b2b565b80156117365780601f1061170b57610100808354040283529160200191611736565b820191906000526020600020905b81548152906001019060200180831161171957829003601f168201915b50505050509080600401805461174b90613b2b565b80601f016020809104026020016040519081016040528092919081815260200182805461177790613b2b565b80156117c45780601f10611799576101008083540402835291602001916117c4565b820191906000526020600020905b8154815290600101906020018083116117a757829003601f168201915b5050505050908060050180546117d990613b2b565b80601f016020809104026020016040519081016040528092919081815260200182805461180590613b2b565b80156118525780601f1061182757610100808354040283529160200191611852565b820191906000526020600020905b81548152906001019060200180831161183557829003601f168201915b5050505050905086565b600060096000848152602001908152602001600020600101826040516118829190613e16565b908152602001604051809103902060009054906101000a900460ff16905092915050565b60006001856040516118b89190613e16565b908152602001604051809103902060020180546118d490613b2b565b905014611916576040517f08c379a000000000000000000000000000000000000000000000000000000000815260040161190d906142dc565b60405180910390fd5b60008081548092919061192890613ab4565b91905055506040518060c0016040528060005481526020018681526020018581526020018481526020018381526020018281525060018560405161196c9190613e16565b90815260200160405180910390206000820151816000015560208201518160010190816119999190613d08565b5060408201518160020190816119af9190613d08565b5060608201518160030190816119c59190613d08565b5060808201518160040190816119db9190613d08565b5060a08201518160050190816119f19190613d08565b50905050600284908060018154018082558091505060019003906000526020600020016000909190919091509081611a299190613d08565b505050505050565b60606000805b600480549050811015611a92578360048281548110611a5957611a58613e99565b5b90600052602060002090600502016000015403611a7f578180611a7b90613ab4565b9250505b8080611a8a90613ab4565b915050611a37565b5060008167ffffffffffffffff811115611aaf57611aae612cc2565b5b604051908082528060200260200182016040528015611ae857816020015b611ad5612c11565b815260200190600190039081611acd5790505b5090506000805b600480549050811015611d5f578560048281548110611b1157611b10613e99565b5b90600052602060002090600502016000015403611d4c5760048181548110611b3c57611b3b613e99565b5b90600052602060002090600502016040518060a001604052908160008201548152602001600182018054611b6f90613b2b565b80601f0160208091040260200160405190810160405280929190818152602001828054611b9b90613b2b565b8015611be85780601f10611bbd57610100808354040283529160200191611be8565b820191906000526020600020905b815481529060010190602001808311611bcb57829003601f168201915b50505050508152602001600282018054611c0190613b2b565b80601f0160208091040260200160405190810160405280929190818152602001828054611c2d90613b2b565b8015611c7a5780601f10611c4f57610100808354040283529160200191611c7a565b820191906000526020600020905b815481529060010190602001808311611c5d57829003601f168201915b50505050508152602001600382018054611c9390613b2b565b80601f0160208091040260200160405190810160405280929190818152602001828054611cbf90613b2b565b8015611d0c5780601f10611ce157610100808354040283529160200191611d0c565b820191906000526020600020905b815481529060010190602001808311611cef57829003601f168201915b50505050508152602001600482015481525050838381518110611d3257611d31613e99565b5b60200260200101819052508180611d4890613ab4565b9250505b8080611d5790613ab4565b915050611aef565b50819350505050919050565b60048181548110611d7b57600080fd5b9060005260206000209060050201600091509050806000015490806001018054611da490613b2b565b80601f0160208091040260200160405190810160405280929190818152602001828054611dd090613b2b565b8015611e1d5780601f10611df257610100808354040283529160200191611e1d565b820191906000526020600020905b815481529060010190602001808311611e0057829003601f168201915b505050505090806002018054611e3290613b2b565b80601f0160208091040260200160405190810160405280929190818152602001828054611e5e90613b2b565b8015611eab5780601f10611e8057610100808354040283529160200191611eab565b820191906000526020600020905b815481529060010190602001808311611e8e57829003601f168201915b505050505090806003018054611ec090613b2b565b80601f0160208091040260200160405190810160405280929190818152602001828054611eec90613b2b565b8015611f395780601f10611f0e57610100808354040283529160200191611f39565b820191906000526020600020905b815481529060010190602001808311611f1c57829003601f168201915b5050505050908060040154905085565b60006008600084815260200190815260200160002060030160009054906101000a900460ff16611fae576040517f08c379a0000000000000000000000000000000000000000000000000000000008152600401611fa590614348565b60405180910390fd5b60086000848152602001908152602001600020600101600083815260200190815260200160002054905092915050565b60006060806060600060036000878152602001908152602001600020600101805461200890613b2b565b90501161204a576040517f08c379a0000000000000000000000000000000000000000000000000000000008152600401612041906143b4565b60405180910390fd5b6000600360008781526020019081526020016000206040518060a00160405290816000820154815260200160018201805461208490613b2b565b80601f01602080910402602001604051908101604052809291908181526020018280546120b090613b2b565b80156120fd5780601f106120d2576101008083540402835291602001916120fd565b820191906000526020600020905b8154815290600101906020018083116120e057829003601f168201915b5050505050815260200160028201805461211690613b2b565b80601f016020809104026020016040519081016040528092919081815260200182805461214290613b2b565b801561218f5780601f106121645761010080835404028352916020019161218f565b820191906000526020600020905b81548152906001019060200180831161217257829003601f168201915b505050505081526020016003820180546121a890613b2b565b80601f01602080910402602001604051908101604052809291908181526020018280546121d490613b2b565b80156122215780601f106121f657610100808354040283529160200191612221565b820191906000526020600020905b81548152906001019060200180831161220457829003601f168201915b50505050508152602001600482015481525050905080600001518160200151826040015183606001519450945094509450509193509193565b600060018260405161226c9190613e16565b9081526020016040518091039020600201805461228890613b2b565b9050116122ca576040517f08c379a00000000000000000000000000000000000000000000000000000000081526004016122c190613e79565b60405180910390fd5b60096000848152602001908152602001600020600101816040516122ee9190613e16565b908152602001604051809103902060009054906101000a900460ff161561234a576040517f08c379a000000000000000000000000000000000000000000000000000000000815260040161234190614420565b60405180910390fd5b600060066000858152602001908152602001600020600101805461236d90613b2b565b9050116123af576040517f08c379a00000000000000000000000000000000000000000000000000000000081526004016123a69061448c565b60405180910390fd5b6008600084815260200190815260200160002060030160009054906101000a900460ff166124225760016008600085815260200190815260200160002060030160006101000a81548160ff0219169083151502179055508260086000858152602001908152602001600020600001819055505b6000600860008581526020019081526020016000206001016000848152602001908152602001600020540361248f57600860008481526020019081526020016000206002018290806001815401808255809150506001900390600052602060002001600090919091909150555b60086000848152602001908152602001600020600101600083815260200190815260200160002060008154809291906124c790613ab4565b9190505550600160096000858152602001908152602001600020600101826040516124f29190613e16565b908152602001604051809103902060006101000a81548160ff021916908315150217905550505050565b600660205280600052604060002060009150905080600001549080600101805461254590613b2b565b80601f016020809104026020016040519081016040528092919081815260200182805461257190613b2b565b80156125be5780601f10612593576101008083540402835291602001916125be565b820191906000526020600020905b8154815290600101906020018083116125a157829003601f168201915b5050505050908060020180546125d390613b2b565b80601f01602080910402602001604051908101604052809291908181526020018280546125ff90613b2b565b801561264c5780601f106126215761010080835404028352916020019161264c565b820191906000526020600020905b81548152906001019060200180831161262f57829003601f168201915b50505050509080600301805461266190613b2b565b80601f016020809104026020016040519081016040528092919081815260200182805461268d90613b2b565b80156126da5780601f106126af576101008083540402835291602001916126da565b820191906000526020600020905b8154815290600101906020018083116126bd57829003601f168201915b5050505050908060040180546126ef90613b2b565b80601f016020809104026020016040519081016040528092919081815260200182805461271b90613b2b565b80156127685780601f1061273d57610100808354040283529160200191612768565b820191906000526020600020905b81548152906001019060200180831161274b57829003601f168201915b5050505050905085565b6000606080606080600060066000888152602001908152602001600020600101805461279d90613b2b565b9050116127df576040517f08c379a00000000000000000000000000000000000000000000000000000000081526004016127d69061448c565b60405180910390fd5b6000600660008881526020019081526020016000206040518060a00160405290816000820154815260200160018201805461281990613b2b565b80601f016020809104026020016040519081016040528092919081815260200182805461284590613b2b565b80156128925780601f1061286757610100808354040283529160200191612892565b820191906000526020600020905b81548152906001019060200180831161287557829003601f168201915b505050505081526020016002820180546128ab90613b2b565b80601f01602080910402602001604051908101604052809291908181526020018280546128d790613b2b565b80156129245780601f106128f957610100808354040283529160200191612924565b820191906000526020600020905b81548152906001019060200180831161290757829003601f168201915b5050505050815260200160038201805461293d90613b2b565b80601f016020809104026020016040519081016040528092919081815260200182805461296990613b2b565b80156129b65780601f1061298b576101008083540402835291602001916129b6565b820191906000526020600020905b81548152906001019060200180831161299957829003601f168201915b505050505081526020016004820180546129cf90613b2b565b80601f01602080910402602001604051908101604052809291908181526020018280546129fb90613b2b565b8015612a485780601f10612a1d57610100808354040283529160200191612a48565b820191906000526020600020905b815481529060010190602001808311612a2b57829003601f168201915b505050505081525050905080600001518160200151826040015183606001518460800151955095509550955095505091939590929450565b60056000815480929190612a9390613ab4565b91905055506040518060a00160405280600554815260200185815260200184815260200183815260200182815250600660006005548152602001908152602001600020600082015181600001556020820151816001019081612af59190613d08565b506040820151816002019081612b0b9190613d08565b506060820151816003019081612b219190613d08565b506080820151816004019081612b379190613d08565b509050506007600554908060018154018082558091505060019003906000526020600020016000909190919091505550505050565b6040518060a0016040528060008152602001606081526020016060815260200160608152602001606081525090565b6040518060c001604052806000815260200160608152602001606081526020016060815260200160608152602001606081525090565b508054612bdd90613b2b565b6000825580601f10612bef5750612c0e565b601f016020900490600052602060002090810190612c0d9190612c40565b5b50565b6040518060a0016040528060008152602001606081526020016060815260200160608152602001600081525090565b5b80821115612c59576000816000905550600101612c41565b5090565b6000604051905090565b600080fd5b600080fd5b6000819050919050565b612c8481612c71565b8114612c8f57600080fd5b50565b600081359050612ca181612c7b565b92915050565b600080fd5b600080fd5b6000601f19601f8301169050919050565b7f4e487b7100000000000000000000000000000000000000000000000000000000600052604160045260246000fd5b612cfa82612cb1565b810181811067ffffffffffffffff82111715612d1957612d18612cc2565b5b80604052505050565b6000612d2c612c5d565b9050612d388282612cf1565b919050565b600067ffffffffffffffff821115612d5857612d57612cc2565b5b612d6182612cb1565b9050602081019050919050565b82818337600083830152505050565b6000612d90612d8b84612d3d565b612d22565b905082815260208101848484011115612dac57612dab612cac565b5b612db7848285612d6e565b509392505050565b600082601f830112612dd457612dd3612ca7565b5b8135612de4848260208601612d7d565b91505092915050565b60008060008060808587031215612e0757612e06612c67565b5b6000612e1587828801612c92565b945050602085013567ffffffffffffffff811115612e3657612e35612c6c565b5b612e4287828801612dbf565b935050604085013567ffffffffffffffff811115612e6357612e62612c6c565b5b612e6f87828801612dbf565b925050606085013567ffffffffffffffff811115612e9057612e8f612c6c565b5b612e9c87828801612dbf565b91505092959194509250565b600060208284031215612ebe57612ebd612c67565b5b6000612ecc84828501612c92565b91505092915050565b600081519050919050565b600082825260208201905092915050565b60005b83811015612f0f578082015181840152602081019050612ef4565b60008484015250505050565b6000612f2682612ed5565b612f308185612ee0565b9350612f40818560208601612ef1565b612f4981612cb1565b840191505092915050565b60006020820190508181036000830152612f6e8184612f1b565b905092915050565b600060208284031215612f8c57612f8b612c67565b5b600082013567ffffffffffffffff811115612faa57612fa9612c6c565b5b612fb684828501612dbf565b91505092915050565b612fc881612c71565b82525050565b600060c082019050612fe36000830189612fbf565b8181036020830152612ff58188612f1b565b905081810360408301526130098187612f1b565b9050818103606083015261301d8186612f1b565b905081810360808301526130318185612f1b565b905081810360a08301526130458184612f1b565b9050979650505050505050565b600081519050919050565b600082825260208201905092915050565b6000819050602082019050919050565b61308781612c71565b82525050565b600082825260208201905092915050565b60006130a982612ed5565b6130b3818561308d565b93506130c3818560208601612ef1565b6130cc81612cb1565b840191505092915050565b600060a0830160008301516130ef600086018261307e565b5060208301518482036020860152613107828261309e565b91505060408301518482036040860152613121828261309e565b9150506060830151848203606086015261313b828261309e565b91505060808301518482036080860152613155828261309e565b9150508091505092915050565b600061316e83836130d7565b905092915050565b6000602082019050919050565b600061318e82613052565b613198818561305d565b9350836020820285016131aa8561306e565b8060005b858110156131e657848403895281516131c78582613162565b94506131d283613176565b925060208a019950506001810190506131ae565b50829750879550505050505092915050565b600060208201905081810360008301526132128184613183565b905092915050565b600081519050919050565b600082825260208201905092915050565b6000819050602082019050919050565b6000613252838361307e565b60208301905092915050565b6000602082019050919050565b60006132768261321a565b6132808185613225565b935061328b83613236565b8060005b838110156132bc5781516132a38882613246565b97506132ae8361325e565b92505060018101905061328f565b5085935050505092915050565b600060408201905081810360008301526132e3818561326b565b905081810360208301526132f7818461326b565b90509392505050565b600081519050919050565b600082825260208201905092915050565b6000819050602082019050919050565b600060c083016000830151613344600086018261307e565b506020830151848203602086015261335c828261309e565b91505060408301518482036040860152613376828261309e565b91505060608301518482036060860152613390828261309e565b915050608083015184820360808601526133aa828261309e565b91505060a083015184820360a08601526133c4828261309e565b9150508091505092915050565b60006133dd838361332c565b905092915050565b6000602082019050919050565b60006133fd82613300565b613407818561330b565b9350836020820285016134198561331c565b8060005b85811015613455578484038952815161343685826133d1565b9450613441836133e5565b925060208a0199505060018101905061341d565b50829750879550505050505092915050565b6000602082019050818103600083015261348181846133f2565b905092915050565b60008115159050919050565b61349e81613489565b82525050565b60006040820190506134b96000830185612fbf565b6134c66020830184613495565b9392505050565b60006020820190506134e26000830184612fbf565b92915050565b600080604083850312156134ff576134fe612c67565b5b600061350d85828601612c92565b925050602083013567ffffffffffffffff81111561352e5761352d612c6c565b5b61353a85828601612dbf565b9150509250929050565b60006020820190506135596000830184613495565b92915050565b600080600080600060a0868803121561357b5761357a612c67565b5b600086013567ffffffffffffffff81111561359957613598612c6c565b5b6135a588828901612dbf565b955050602086013567ffffffffffffffff8111156135c6576135c5612c6c565b5b6135d288828901612dbf565b945050604086013567ffffffffffffffff8111156135f3576135f2612c6c565b5b6135ff88828901612dbf565b935050606086013567ffffffffffffffff8111156136205761361f612c6c565b5b61362c88828901612dbf565b925050608086013567ffffffffffffffff81111561364d5761364c612c6c565b5b61365988828901612dbf565b9150509295509295909350565b600081519050919050565b600082825260208201905092915050565b6000819050602082019050919050565b600060a0830160008301516136aa600086018261307e565b50602083015184820360208601526136c2828261309e565b915050604083015184820360408601526136dc828261309e565b915050606083015184820360608601526136f6828261309e565b915050608083015161370b608086018261307e565b508091505092915050565b60006137228383613692565b905092915050565b6000602082019050919050565b600061374282613666565b61374c8185613671565b93508360208202850161375e85613682565b8060005b8581101561379a578484038952815161377b8582613716565b94506137868361372a565b925060208a01995050600181019050613762565b50829750879550505050505092915050565b600060208201905081810360008301526137c68184613737565b905092915050565b600060a0820190506137e36000830188612fbf565b81810360208301526137f58187612f1b565b905081810360408301526138098186612f1b565b9050818103606083015261381d8185612f1b565b905061382c6080830184612fbf565b9695505050505050565b6000806040838503121561384d5761384c612c67565b5b600061385b85828601612c92565b925050602061386c85828601612c92565b9150509250929050565b600060808201905061388b6000830187612fbf565b818103602083015261389d8186612f1b565b905081810360408301526138b18185612f1b565b905081810360608301526138c58184612f1b565b905095945050505050565b6000806000606084860312156138e9576138e8612c67565b5b60006138f786828701612c92565b935050602061390886828701612c92565b925050604084013567ffffffffffffffff81111561392957613928612c6c565b5b61393586828701612dbf565b9150509250925092565b600060a0820190506139546000830188612fbf565b81810360208301526139668187612f1b565b9050818103604083015261397a8186612f1b565b9050818103606083015261398e8185612f1b565b905081810360808301526139a28184612f1b565b90509695505050505050565b600080600080608085870312156139c8576139c7612c67565b5b600085013567ffffffffffffffff8111156139e6576139e5612c6c565b5b6139f287828801612dbf565b945050602085013567ffffffffffffffff811115613a1357613a12612c6c565b5b613a1f87828801612dbf565b935050604085013567ffffffffffffffff811115613a4057613a3f612c6c565b5b613a4c87828801612dbf565b925050606085013567ffffffffffffffff811115613a6d57613a6c612c6c565b5b613a7987828801612dbf565b91505092959194509250565b7f4e487b7100000000000000000000000000000000000000000000000000000000600052601160045260246000fd5b6000613abf82612c71565b91507fffffffffffffffffffffffffffffffffffffffffffffffffffffffffffffffff8203613af157613af0613a85565b5b600182019050919050565b7f4e487b7100000000000000000000000000000000000000000000000000000000600052602260045260246000fd5b60006002820490506001821680613b4357607f821691505b602082108103613b5657613b55613afc565b5b50919050565b60008190508160005260206000209050919050565b60006020601f8301049050919050565b600082821b905092915050565b600060088302613bbe7fffffffffffffffffffffffffffffffffffffffffffffffffffffffffffffffff82613b81565b613bc88683613b81565b95508019841693508086168417925050509392505050565b6000819050919050565b6000613c05613c00613bfb84612c71565b613be0565b612c71565b9050919050565b6000819050919050565b613c1f83613bea565b613c33613c2b82613c0c565b848454613b8e565b825550505050565b600090565b613c48613c3b565b613c53818484613c16565b505050565b5b81811015613c7757613c6c600082613c40565b600181019050613c59565b5050565b601f821115613cbc57613c8d81613b5c565b613c9684613b71565b81016020851015613ca5578190505b613cb9613cb185613b71565b830182613c58565b50505b505050565b600082821c905092915050565b6000613cdf60001984600802613cc1565b1980831691505092915050565b6000613cf88383613cce565b9150826002028217905092915050565b613d1182612ed5565b67ffffffffffffffff811115613d2a57613d29612cc2565b5b613d348254613b2b565b613d3f828285613c7b565b600060209050601f831160018114613d725760008415613d60578287015190505b613d6a8582613cec565b865550613dd2565b601f198416613d8086613b5c565b60005b82811015613da857848901518255600182019150602085019450602081019050613d83565b86831015613dc55784890151613dc1601f891682613cce565b8355505b6001600288020188555050505b505050505050565b600081905092915050565b6000613df082612ed5565b613dfa8185613dda565b9350613e0a818560208601612ef1565b80840191505092915050565b6000613e228284613de5565b915081905092915050565b7f566f746572206e6f742072656769737465726564000000000000000000000000600082015250565b6000613e63601483612ee0565b9150613e6e82613e2d565b602082019050919050565b60006020820190508181036000830152613e9281613e56565b9050919050565b7f4e487b7100000000000000000000000000000000000000000000000000000000600052603260045260246000fd5b7f506f6c6c20646f6573206e6f7420657869737421000000000000000000000000600082015250565b6000613efe601483612ee0565b9150613f0982613ec8565b602082019050919050565b60006020820190508181036000830152613f2d81613ef1565b9050919050565b60008154613f4181613b2b565b613f4b8186613dda565b94506001821660008114613f665760018114613f7b57613fae565b60ff1983168652811515820286019350613fae565b613f8485613b5c565b60005b83811015613fa657815481890152600182019150602081019050613f87565b838801955050505b50505092915050565b6000613fc38284613f34565b915081905092915050565b7f566f746572206e6f7420666f756e640000000000000000000000000000000000600082015250565b6000614004600f83612ee0565b915061400f82613fce565b602082019050919050565b6000602082019050818103600083015261403381613ff7565b9050919050565b600081905092915050565b60008190508160005260206000209050919050565b6000815461406781613b2b565b614071818661403a565b9450600182166000811461408c57600181146140a1576140d4565b60ff19831686528115158202860193506140d4565b6140aa85614045565b60005b838110156140cc578154818901526001820191506020810190506140ad565b838801955050505b50505092915050565b60006140e9828461405a565b915081905092915050565b60006140ff82612c71565b915061410a83612c71565b925082820390508181111561412257614121613a85565b5b92915050565b60008154905061413781613b2b565b9050919050565b60008190508160005260206000209050919050565b818103614161575050614239565b61416a82614128565b67ffffffffffffffff81111561418357614182612cc2565b5b61418d8254613b2b565b614198828285613c7b565b6000601f8311600181146141c757600084156141b5578287015490505b6141bf8582613cec565b865550614232565b601f1984166141d58761413e565b96506141e086613b5c565b60005b82811015614208578489015482556001820191506001850194506020810190506141e3565b868310156142255784890154614221601f891682613cce565b8355505b6001600288020188555050505b5050505050505b565b7f4e487b7100000000000000000000000000000000000000000000000000000000600052603160045260246000fd5b7f566f74657220616c72656164792072656769737465726564207769746820746860008201527f697320416164686172206e756d62657200000000000000000000000000000000602082015250565b60006142c6603083612ee0565b91506142d18261426a565b604082019050919050565b600060208201905081810360008301526142f5816142b9565b9050919050565b7f506f6c6c20686173206e6f20766f746573000000000000000000000000000000600082015250565b6000614332601183612ee0565b915061433d826142fc565b602082019050919050565b6000602082019050818103600083015261436181614325565b9050919050565b7f506172747920646f6573206e6f74206578697374000000000000000000000000600082015250565b600061439e601483612ee0565b91506143a982614368565b602082019050919050565b600060208201905081810360008301526143cd81614391565b9050919050565b7f416c726561647920766f74656421000000000000000000000000000000000000600082015250565b600061440a600e83612ee0565b9150614415826143d4565b602082019050919050565b60006020820190508181036000830152614439816143fd565b9050919050565b7f506f6c6c20646f6573206e6f7420657869737400000000000000000000000000600082015250565b6000614476601383612ee0565b915061448182614440565b602082019050919050565b600060208201905081810360008301526144a581614469565b905091905056fea26469706673582212203afd504333d86d65c7781759cf1ca9e437e738fdf4bb65117bfb47013edbca5064736f6c63430008130033",
  "immutableReferences": {},
  "source": "// SPDX-License-Identifier: MIT\npragma solidity >=0.4.22 <0.9.0;\n\ncontract Voting {\n\n    struct Voter {\n        uint id;\n        string fullName;\n        string aadharNumber;\n        string irisImagePath;\n        string email;\n        string password;\n    }\n\n    struct Party {\n        uint pollId;\n        string partyName;\n        string partyLeader;\n        string symbolPath;\n        uint partyId;\n    }\n\n    struct Poll {\n        uint pollId;\n        string pollName;\n        string pollDate;\n        string startTime;\n        string endTime;\n    }\n\n    uint private voterCounter = 0; // Auto-incrementing voter ID\n    mapping(string => Voter) public voters;\n    string[] public voterAadhars;\n\n    mapping(uint => Party) private parties;\n    Party[] public allParties;\n\n    uint private pollCounter = 0;\n    mapping(uint => Poll) public polls;\n    uint[] private pollIds;\n\n    // Struct for storing votes for each poll\n    struct Vote {\n        uint pollId;\n        mapping(uint => uint) partyVotes; // Maps partyId to vote count\n        uint[] partyIds; // List of all partyIds in the poll\n        bool initialized; // Flag to track if poll exists\n    }\n\n    // Struct for tracking who has voted in each poll\n    struct PolledIds {\n        uint pollId;\n        mapping(string => bool) hasVoted; // Maps Aadhaar number to voting status\n    }\n\n    // Mappings for votes and voter tracking\n    mapping(uint => Vote) public pollVotes; // Maps pollId to Vote struct\n    mapping(uint => PolledIds) public polledVoters; // Maps pollId to PolledIds struct\n\n    function registerVoter(\n        string memory _fullName,\n        string memory _aadharNumber,\n        string memory _irisImagePath,\n        string memory _email,\n        string memory _password\n    ) public {\n        require(bytes(voters[_aadharNumber].aadharNumber).length == 0, \"Voter already registered with this Aadhar number\");\n\n        voterCounter++; // Auto-increment voter ID\n\n        voters[_aadharNumber] = Voter({\n            id: voterCounter,\n            fullName: _fullName,\n            aadharNumber: _aadharNumber,\n            irisImagePath: _irisImagePath,\n            email: _email,\n            password: _password\n        });\n\n        voterAadhars.push(_aadharNumber);\n    }\n\n    function getPollById(uint _pollId) public view returns (uint, string memory, string memory, string memory, string memory) {\n        require(bytes(polls[_pollId].pollName).length > 0, \"Poll does not exist\");\n\n        Poll memory poll = polls[_pollId];\n        return (poll.pollId, poll.pollName, poll.pollDate, poll.startTime, poll.endTime);\n    }\n\n    function getPartiesByPartyId(uint partyId) public view returns (Party[] memory) {\n        uint count = 0;\n\n        for (uint i = 0; i < allParties.length; i++) {\n            if (allParties[i].pollId == partyId) {\n                count++;\n            }\n        }\n\n        Party[] memory result = new Party[](count);\n        uint index = 0;\n\n        for (uint i = 0; i < allParties.length; i++) {\n            if (allParties[i].pollId == partyId) {\n                result[index] = allParties[i];\n                index++;\n            }\n        }\n\n        return result;\n    }\n\n    function getVoter(string memory aadhar) public view returns (uint, string memory, string memory, string memory, string memory, string memory) {\n        require(bytes(voters[aadhar].aadharNumber).length > 0, \"Voter not registered\");\n\n        Voter memory voter = voters[aadhar];\n        return (voter.id, voter.fullName, voter.aadharNumber, voter.irisImagePath, voter.email, voter.password);\n    }\n\n    function getAllVoters() public view returns (Voter[] memory) {\n        Voter[] memory allVoters = new Voter[](voterAadhars.length);\n        for (uint i = 0; i < voterAadhars.length; i++) {\n            allVoters[i] = voters[voterAadhars[i]];\n        }\n        return allVoters;\n    }\n    uint partyCounter;\n    function addParty(uint _id, string memory _partyName, string memory _partyLeader, string memory _symbolPath) public {\n        partyCounter++;\n        parties[_id] = Party(_id, _partyName, _partyLeader, _symbolPath,partyCounter);\n        allParties.push(Party(_id, _partyName, _partyLeader, _symbolPath,partyCounter));\n    }\n\n    function getParty(uint _id) public view returns (uint, string memory, string memory, string memory) {\n        require(bytes(parties[_id].partyName).length > 0, \"Party does not exist\");\n\n        Party memory party = parties[_id];\n        return (party.pollId, party.partyName, party.partyLeader, party.symbolPath);\n    }\n\n    function addPoll(string memory _pollName, string memory _pollDate, string memory _startTime, string memory _endTime) public {\n        pollCounter++;\n\n        polls[pollCounter] = Poll(pollCounter, _pollName, _pollDate, _startTime, _endTime);\n        pollIds.push(pollCounter);\n    }\n\n    function getAllPolls() public view returns (Poll[] memory) {\n        Poll[] memory allPolls = new Poll[](pollIds.length);\n        for (uint i = 0; i < pollIds.length; i++) {\n            allPolls[i] = polls[pollIds[i]];\n        }\n        return allPolls;\n    }\n\n    function vote(uint _pollId, uint _partyId, string memory _aadharNumber) public {\n        require(bytes(voters[_aadharNumber].aadharNumber).length > 0, \"Voter not registered\");\n        require(!polledVoters[_pollId].hasVoted[_aadharNumber], \"Already voted!\");\n        require(bytes(polls[_pollId].pollName).length > 0, \"Poll does not exist\");\n\n        // Initialize poll if first vote\n        if (!pollVotes[_pollId].initialized) {\n            pollVotes[_pollId].initialized = true;\n            pollVotes[_pollId].pollId = _pollId;\n        }\n\n        // Record vote\n        if (pollVotes[_pollId].partyVotes[_partyId] == 0) {\n            pollVotes[_pollId].partyIds.push(_partyId);\n        }\n        pollVotes[_pollId].partyVotes[_partyId]++;\n\n        // Mark Aadhaar as voted\n        polledVoters[_pollId].hasVoted[_aadharNumber] = true;\n    }\n\n    function getVotes(uint _pollId, uint _partyId) public view returns (uint) {\n        require(pollVotes[_pollId].initialized, \"Poll has no votes\");\n        return pollVotes[_pollId].partyVotes[_partyId];\n    }\n\n    function hasVoted(uint _pollId, string memory _aadharNumber) public view returns (bool) {\n        return polledVoters[_pollId].hasVoted[_aadharNumber];\n    }\n\n    function getPollResults(uint _pollId) public view returns (uint[] memory partyIds, uint[] memory voteCounts) {\n        require(pollVotes[_pollId].initialized, \"Poll does not exist!\");\n\n        uint totalParties = pollVotes[_pollId].partyIds.length;\n        partyIds = new uint[](totalParties);\n        voteCounts = new uint[](totalParties);\n\n        for (uint i = 0; i < totalParties; i++) {\n            uint partyId = pollVotes[_pollId].partyIds[i];\n            partyIds[i] = partyId;\n            voteCounts[i] = pollVotes[_pollId].partyVotes[partyId];\n        }\n\n        return (partyIds, voteCounts);\n    }\n\n    function deleteVoter(string memory _aadharNumber) public {\n        require(bytes(voters[_aadharNumber].aadharNumber).length > 0, \"Voter not found\");\n        \n        // Remove from mapping\n        delete voters[_aadharNumber];\n        \n        // Remove from array\n        for (uint i = 0; i < voterAadhars.length; i++) {\n            if (keccak256(bytes(voterAadhars[i])) == keccak256(bytes(_aadharNumber))) {\n                // Move the last element to the position of the element to delete\n                voterAadhars[i] = voterAadhars[voterAadhars.length - 1];\n                // Remove the last element\n                voterAadhars.pop();\n                break;\n            }\n        }\n    }\n\n}\n",
  "sourcePath": "E:\\BITS-2025\\Blockchain integrated voting app\\contracts\\voting.sol",
  "compiler": {
    "name": "solc",
    "version": "0.8.19+commit.7dd6d404.Emscripten.clang"
  },
  "schemaVersion": "3.4.16",
  "updatedAt": "2025-02-23T17:24:45.021Z",
  "networkType": "ethereum",
  "devdoc": {
    "kind": "dev",
    "methods": {},
    "version": 1
  },
  "userdoc": {
    "kind": "user",
    "methods": {},
    "version": 1
  }
}