{
  "contractName": "voting",
  "abi": [
    {
      "inputs": [
        {
          "internalType": "uint256",
          "name": "",
          "type": "uint256"
        }
      ],
      "name": "voterAadhars",
      "outputs": [
        {
          "internalType": "string",
          "name": "",
          "type": "string"
        }
      ],
      "stateMutability": "view",
      "type": "function",
      "constant": true
    },
    {
      "inputs": [
        {
          "internalType": "string",
          "name": "",
          "type": "string"
        }
      ],
      "name": "voters",
      "outputs": [
        {
          "internalType": "string",
          "name": "fullName",
          "type": "string"
        },
        {
          "internalType": "string",
          "name": "aadharNumber",
          "type": "string"
        },
        {
          "internalType": "string",
          "name": "irisImagePath",
          "type": "string"
        },
        {
          "internalType": "string",
          "name": "email",
          "type": "string"
        },
        {
          "internalType": "string",
          "name": "password",
          "type": "string"
        }
      ],
      "stateMutability": "view",
      "type": "function",
      "constant": true
    },
    {
      "inputs": [
        {
          "internalType": "string",
          "name": "_fullName",
          "type": "string"
        },
        {
          "internalType": "string",
          "name": "_aadharNumber",
          "type": "string"
        },
        {
          "internalType": "string",
          "name": "_irisImagePath",
          "type": "string"
        },
        {
          "internalType": "string",
          "name": "email",
          "type": "string"
        },
        {
          "internalType": "string",
          "name": "password",
          "type": "string"
        }
      ],
      "name": "registerVoter",
      "outputs": [],
      "stateMutability": "nonpayable",
      "type": "function"
    },
    {
      "inputs": [
        {
          "internalType": "string",
          "name": "aadhar",
          "type": "string"
        }
      ],
      "name": "getVoter",
      "outputs": [
        {
          "internalType": "string",
          "name": "",
          "type": "string"
        },
        {
          "internalType": "string",
          "name": "",
          "type": "string"
        },
        {
          "internalType": "string",
          "name": "",
          "type": "string"
        },
        {
          "internalType": "string",
          "name": "",
          "type": "string"
        },
        {
          "internalType": "string",
          "name": "",
          "type": "string"
        }
      ],
      "stateMutability": "view",
      "type": "function",
      "constant": true
    }
  ],
  "bytecode": "0x608060405234801561001057600080fd5b50611239806100206000396000f3fe608060405234801561001057600080fd5b506004361061004c5760003560e01c80630d0b800f1461005157806314a0069a1461008157806353fa2e64146100b55780635ed5d2c3146100e9575b600080fd5b61006b600480360381019061006691906109fa565b610105565b6040516100789190610ab7565b60405180910390f35b61009b60048036038101906100969190610c0e565b6101b1565b6040516100ac959493929190610c57565b60405180910390f35b6100cf60048036038101906100ca9190610c0e565b61055b565b6040516100e0959493929190610c57565b60405180910390f35b61010360048036038101906100fe9190610ccd565b61084f565b005b6001818154811061011557600080fd5b90600052602060002001600091509050805461013090610e03565b80601f016020809104026020016040519081016040528092919081815260200182805461015c90610e03565b80156101a95780601f1061017e576101008083540402835291602001916101a9565b820191906000526020600020905b81548152906001019060200180831161018c57829003601f168201915b505050505081565b6060806060806060600080876040516101ca9190610e70565b908152602001604051809103902060010180546101e690610e03565b905011610228576040517f08c379a000000000000000000000000000000000000000000000000000000000815260040161021f90610ed3565b60405180910390fd5b600080876040516102399190610e70565b90815260200160405180910390206040518060a001604052908160008201805461026290610e03565b80601f016020809104026020016040519081016040528092919081815260200182805461028e90610e03565b80156102db5780601f106102b0576101008083540402835291602001916102db565b820191906000526020600020905b8154815290600101906020018083116102be57829003601f168201915b505050505081526020016001820180546102f490610e03565b80601f016020809104026020016040519081016040528092919081815260200182805461032090610e03565b801561036d5780601f106103425761010080835404028352916020019161036d565b820191906000526020600020905b81548152906001019060200180831161035057829003601f168201915b5050505050815260200160028201805461038690610e03565b80601f01602080910402602001604051908101604052809291908181526020018280546103b290610e03565b80156103ff5780601f106103d4576101008083540402835291602001916103ff565b820191906000526020600020905b8154815290600101906020018083116103e257829003601f168201915b5050505050815260200160038201805461041890610e03565b80601f016020809104026020016040519081016040528092919081815260200182805461044490610e03565b80156104915780601f1061046657610100808354040283529160200191610491565b820191906000526020600020905b81548152906001019060200180831161047457829003601f168201915b505050505081526020016004820180546104aa90610e03565b80601f01602080910402602001604051908101604052809291908181526020018280546104d690610e03565b80156105235780601f106104f857610100808354040283529160200191610523565b820191906000526020600020905b81548152906001019060200180831161050657829003601f168201915b505050505081525050905080600001518160200151826040015183606001518460800151955095509550955095505091939590929450565b60008180516020810182018051848252602083016020850120818352809550505050505060009150905080600001805461059490610e03565b80601f01602080910402602001604051908101604052809291908181526020018280546105c090610e03565b801561060d5780601f106105e25761010080835404028352916020019161060d565b820191906000526020600020905b8154815290600101906020018083116105f057829003601f168201915b50505050509080600101805461062290610e03565b80601f016020809104026020016040519081016040528092919081815260200182805461064e90610e03565b801561069b5780601f106106705761010080835404028352916020019161069b565b820191906000526020600020905b81548152906001019060200180831161067e57829003601f168201915b5050505050908060020180546106b090610e03565b80601f01602080910402602001604051908101604052809291908181526020018280546106dc90610e03565b80156107295780601f106106fe57610100808354040283529160200191610729565b820191906000526020600020905b81548152906001019060200180831161070c57829003601f168201915b50505050509080600301805461073e90610e03565b80601f016020809104026020016040519081016040528092919081815260200182805461076a90610e03565b80156107b75780601f1061078c576101008083540402835291602001916107b7565b820191906000526020600020905b81548152906001019060200180831161079a57829003601f168201915b5050505050908060040180546107cc90610e03565b80601f01602080910402602001604051908101604052809291908181526020018280546107f890610e03565b80156108455780601f1061081a57610100808354040283529160200191610845565b820191906000526020600020905b81548152906001019060200180831161082857829003601f168201915b5050505050905085565b600080856040516108609190610e70565b9081526020016040518091039020600101805461087c90610e03565b9050146108be576040517f08c379a00000000000000000000000000000000000000000000000000000000081526004016108b590610f65565b60405180910390fd5b6040518060a00160405280868152602001858152602001848152602001838152602001828152506000856040516108f59190610e70565b908152602001604051809103902060008201518160000190816109189190611131565b50602082015181600101908161092e9190611131565b5060408201518160020190816109449190611131565b50606082015181600301908161095a9190611131565b5060808201518160040190816109709190611131565b509050506001849080600181540180825580915050600190039060005260206000200160009091909190915090816109a89190611131565b505050505050565b6000604051905090565b600080fd5b600080fd5b6000819050919050565b6109d7816109c4565b81146109e257600080fd5b50565b6000813590506109f4816109ce565b92915050565b600060208284031215610a1057610a0f6109ba565b5b6000610a1e848285016109e5565b91505092915050565b600081519050919050565b600082825260208201905092915050565b60005b83811015610a61578082015181840152602081019050610a46565b60008484015250505050565b6000601f19601f8301169050919050565b6000610a8982610a27565b610a938185610a32565b9350610aa3818560208601610a43565b610aac81610a6d565b840191505092915050565b60006020820190508181036000830152610ad18184610a7e565b905092915050565b600080fd5b600080fd5b7f4e487b7100000000000000000000000000000000000000000000000000000000600052604160045260246000fd5b610b1b82610a6d565b810181811067ffffffffffffffff82111715610b3a57610b39610ae3565b5b80604052505050565b6000610b4d6109b0565b9050610b598282610b12565b919050565b600067ffffffffffffffff821115610b7957610b78610ae3565b5b610b8282610a6d565b9050602081019050919050565b82818337600083830152505050565b6000610bb1610bac84610b5e565b610b43565b905082815260208101848484011115610bcd57610bcc610ade565b5b610bd8848285610b8f565b509392505050565b600082601f830112610bf557610bf4610ad9565b5b8135610c05848260208601610b9e565b91505092915050565b600060208284031215610c2457610c236109ba565b5b600082013567ffffffffffffffff811115610c4257610c416109bf565b5b610c4e84828501610be0565b91505092915050565b600060a0820190508181036000830152610c718188610a7e565b90508181036020830152610c858187610a7e565b90508181036040830152610c998186610a7e565b90508181036060830152610cad8185610a7e565b90508181036080830152610cc18184610a7e565b90509695505050505050565b600080600080600060a08688031215610ce957610ce86109ba565b5b600086013567ffffffffffffffff811115610d0757610d066109bf565b5b610d1388828901610be0565b955050602086013567ffffffffffffffff811115610d3457610d336109bf565b5b610d4088828901610be0565b945050604086013567ffffffffffffffff811115610d6157610d606109bf565b5b610d6d88828901610be0565b935050606086013567ffffffffffffffff811115610d8e57610d8d6109bf565b5b610d9a88828901610be0565b925050608086013567ffffffffffffffff811115610dbb57610dba6109bf565b5b610dc788828901610be0565b9150509295509295909350565b7f4e487b7100000000000000000000000000000000000000000000000000000000600052602260045260246000fd5b60006002820490506001821680610e1b57607f821691505b602082108103610e2e57610e2d610dd4565b5b50919050565b600081905092915050565b6000610e4a82610a27565b610e548185610e34565b9350610e64818560208601610a43565b80840191505092915050565b6000610e7c8284610e3f565b915081905092915050565b7f566f746572206e6f742072656769737465726564000000000000000000000000600082015250565b6000610ebd601483610a32565b9150610ec882610e87565b602082019050919050565b60006020820190508181036000830152610eec81610eb0565b9050919050565b7f566f74657220616c72656164792072656769737465726564207468697320616160008201527f64686172206e756d626572000000000000000000000000000000000000000000602082015250565b6000610f4f602b83610a32565b9150610f5a82610ef3565b604082019050919050565b60006020820190508181036000830152610f7e81610f42565b9050919050565b60008190508160005260206000209050919050565b60006020601f8301049050919050565b600082821b905092915050565b600060088302610fe77fffffffffffffffffffffffffffffffffffffffffffffffffffffffffffffffff82610faa565b610ff18683610faa565b95508019841693508086168417925050509392505050565b6000819050919050565b600061102e611029611024846109c4565b611009565b6109c4565b9050919050565b6000819050919050565b61104883611013565b61105c61105482611035565b848454610fb7565b825550505050565b600090565b611071611064565b61107c81848461103f565b505050565b5b818110156110a057611095600082611069565b600181019050611082565b5050565b601f8211156110e5576110b681610f85565b6110bf84610f9a565b810160208510156110ce578190505b6110e26110da85610f9a565b830182611081565b50505b505050565b600082821c905092915050565b6000611108600019846008026110ea565b1980831691505092915050565b600061112183836110f7565b9150826002028217905092915050565b61113a82610a27565b67ffffffffffffffff81111561115357611152610ae3565b5b61115d8254610e03565b6111688282856110a4565b600060209050601f83116001811461119b5760008415611189578287015190505b6111938582611115565b8655506111fb565b601f1984166111a986610f85565b60005b828110156111d1578489015182556001820191506020850194506020810190506111ac565b868310156111ee57848901516111ea601f8916826110f7565b8355505b6001600288020188555050505b50505050505056fea2646970667358221220d9fdf164db81275fc6ad85fa30060bf6cc92a95845f704605607a7c2c2f5b65164736f6c63430008130033",
  "immutableReferences": {},
  "source": "// SPDX-License-Identifier: MIT\npragma solidity >=0.4.22 <0.9.0;\n\ncontract voting {\n\n  struct Voter {\n        string fullName;\n        string aadharNumber;\n        string irisImagePath; // Stores only the image path, not the actual image\n        string email;\n        string password;\n    }\n\n    mapping(string => Voter) public voters;\n    string[] public voterAadhars;\n\n    function registerVoter(string memory _fullName, string memory _aadharNumber, string memory _irisImagePath,string memory email,string memory password) public {\n        require(bytes(voters[_aadharNumber].aadharNumber).length == 0, \"Voter already registered this aadhar number\");\n\n        voters[_aadharNumber] = Voter({\n            fullName: _fullName,\n            aadharNumber: _aadharNumber,\n            irisImagePath: _irisImagePath,\n            email:email,\n            password:password\n        });\n\n        voterAadhars.push(_aadharNumber);\n  }\n\n    function getVoter(string memory aadhar) public view returns (string memory, string memory, string memory,string memory,string memory) {\n        require(bytes(voters[aadhar].aadharNumber).length > 0, \"Voter not registered\");\n\n        Voter memory voter = voters[aadhar];\n        return (voter.fullName, voter.aadharNumber, voter.irisImagePath,voter.email,voter.password);\n    }\n}\n",
  "sourcePath": "E:\\BITS-2025\\Blockchain integrated voting app\\contracts\\voting.sol",
  "compiler": {
    "name": "solc",
    "version": "0.8.19+commit.7dd6d404.Emscripten.clang"
  },
  "schemaVersion": "3.4.16",
  "updatedAt": "2025-02-22T04:24:45.718Z",
  "networkType": "ethereum",
  "devdoc": {
    "kind": "dev",
    "methods": {},
    "version": 1
  },
  "userdoc": {
    "kind": "user",
    "methods": {},
    "version": 1
  }
}