{
  "contractName": "voting",
  "abi": [
    {
      "inputs": [
        {
          "internalType": "uint256",
          "name": "",
          "type": "uint256"
        }
      ],
      "name": "voterAadhars",
      "outputs": [
        {
          "internalType": "string",
          "name": "",
          "type": "string"
        }
      ],
      "stateMutability": "view",
      "type": "function",
      "constant": true
    },
    {
      "inputs": [
        {
          "internalType": "string",
          "name": "",
          "type": "string"
        }
      ],
      "name": "voters",
      "outputs": [
        {
          "internalType": "string",
          "name": "fullName",
          "type": "string"
        },
        {
          "internalType": "string",
          "name": "aadharNumber",
          "type": "string"
        },
        {
          "internalType": "string",
          "name": "irisImagePath",
          "type": "string"
        },
        {
          "internalType": "string",
          "name": "email",
          "type": "string"
        },
        {
          "internalType": "string",
          "name": "password",
          "type": "string"
        }
      ],
      "stateMutability": "view",
      "type": "function",
      "constant": true
    },
    {
      "inputs": [
        {
          "internalType": "string",
          "name": "_fullName",
          "type": "string"
        },
        {
          "internalType": "string",
          "name": "_aadharNumber",
          "type": "string"
        },
        {
          "internalType": "string",
          "name": "_irisImagePath",
          "type": "string"
        },
        {
          "internalType": "string",
          "name": "email",
          "type": "string"
        },
        {
          "internalType": "string",
          "name": "password",
          "type": "string"
        }
      ],
      "name": "registerVoter",
      "outputs": [],
      "stateMutability": "nonpayable",
      "type": "function"
    },
    {
      "inputs": [
        {
          "internalType": "string",
          "name": "aadhar",
          "type": "string"
        }
      ],
      "name": "getVoter",
      "outputs": [
        {
          "internalType": "string",
          "name": "",
          "type": "string"
        },
        {
          "internalType": "string",
          "name": "",
          "type": "string"
        },
        {
          "internalType": "string",
          "name": "",
          "type": "string"
        },
        {
          "internalType": "string",
          "name": "",
          "type": "string"
        },
        {
          "internalType": "string",
          "name": "",
          "type": "string"
        }
      ],
      "stateMutability": "view",
      "type": "function",
      "constant": true
    },
    {
      "inputs": [
        {
          "internalType": "string",
          "name": "_partyName",
          "type": "string"
        },
        {
          "internalType": "string",
          "name": "_partyLeader",
          "type": "string"
        },
        {
          "internalType": "string",
          "name": "_symbolPath",
          "type": "string"
        }
      ],
      "name": "addPoll",
      "outputs": [],
      "stateMutability": "nonpayable",
      "type": "function"
    },
    {
      "inputs": [
        {
          "internalType": "uint256",
          "name": "_id",
          "type": "uint256"
        }
      ],
      "name": "getPoll",
      "outputs": [
        {
          "internalType": "uint256",
          "name": "",
          "type": "uint256"
        },
        {
          "internalType": "string",
          "name": "",
          "type": "string"
        },
        {
          "internalType": "string",
          "name": "",
          "type": "string"
        },
        {
          "internalType": "string",
          "name": "",
          "type": "string"
        }
      ],
      "stateMutability": "view",
      "type": "function",
      "constant": true
    }
  ],
  "bytecode": "0x608060405234801561001057600080fd5b50611794806100206000396000f3fe608060405234801561001057600080fd5b50600436106100625760003560e01c80630d0b800f1461006757806314a0069a146100975780631a8cbcaa146100cb57806353fa2e64146100fe5780635ed5d2c3146101325780639cf1722b1461014e575b600080fd5b610081600480360381019061007c9190610d62565b61016a565b60405161008e9190610e1f565b60405180910390f35b6100b160048036038101906100ac9190610f76565b610216565b6040516100c2959493929190610fbf565b60405180910390f35b6100e560048036038101906100e09190610d62565b6105c2565b6040516100f59493929190611044565b60405180910390f35b61011860048036038101906101139190610f76565b610820565b604051610129959493929190610fbf565b60405180910390f35b61014c6004803603810190610147919061109e565b610b14565b005b610168600480360381019061016391906111a5565b610c76565b005b6003818154811061017a57600080fd5b9060005260206000200160009150905080546101959061127b565b80601f01602080910402602001604051908101604052809291908181526020018280546101c19061127b565b801561020e5780601f106101e35761010080835404028352916020019161020e565b820191906000526020600020905b8154815290600101906020018083116101f157829003601f168201915b505050505081565b6060806060806060600060028760405161023091906112e8565b9081526020016040518091039020600101805461024c9061127b565b90501161028e576040517f08c379a00000000000000000000000000000000000000000000000000000000081526004016102859061134b565b60405180910390fd5b60006002876040516102a091906112e8565b90815260200160405180910390206040518060a00160405290816000820180546102c99061127b565b80601f01602080910402602001604051908101604052809291908181526020018280546102f59061127b565b80156103425780601f1061031757610100808354040283529160200191610342565b820191906000526020600020905b81548152906001019060200180831161032557829003601f168201915b5050505050815260200160018201805461035b9061127b565b80601f01602080910402602001604051908101604052809291908181526020018280546103879061127b565b80156103d45780601f106103a9576101008083540402835291602001916103d4565b820191906000526020600020905b8154815290600101906020018083116103b757829003601f168201915b505050505081526020016002820180546103ed9061127b565b80601f01602080910402602001604051908101604052809291908181526020018280546104199061127b565b80156104665780601f1061043b57610100808354040283529160200191610466565b820191906000526020600020905b81548152906001019060200180831161044957829003601f168201915b5050505050815260200160038201805461047f9061127b565b80601f01602080910402602001604051908101604052809291908181526020018280546104ab9061127b565b80156104f85780601f106104cd576101008083540402835291602001916104f8565b820191906000526020600020905b8154815290600101906020018083116104db57829003601f168201915b505050505081526020016004820180546105119061127b565b80601f016020809104026020016040519081016040528092919081815260200182805461053d9061127b565b801561058a5780601f1061055f5761010080835404028352916020019161058a565b820191906000526020600020905b81548152906001019060200180831161056d57829003601f168201915b505050505081525050905080600001518160200151826040015183606001518460800151955095509550955095505091939590929450565b600060608060606000851180156105db57506000548511155b61061a576040517f08c379a0000000000000000000000000000000000000000000000000000000008152600401610611906113b7565b60405180910390fd5b600060016000878152602001908152602001600020604051806080016040529081600082015481526020016001820180546106549061127b565b80601f01602080910402602001604051908101604052809291908181526020018280546106809061127b565b80156106cd5780601f106106a2576101008083540402835291602001916106cd565b820191906000526020600020905b8154815290600101906020018083116106b057829003601f168201915b505050505081526020016002820180546106e69061127b565b80601f01602080910402602001604051908101604052809291908181526020018280546107129061127b565b801561075f5780601f106107345761010080835404028352916020019161075f565b820191906000526020600020905b81548152906001019060200180831161074257829003601f168201915b505050505081526020016003820180546107789061127b565b80601f01602080910402602001604051908101604052809291908181526020018280546107a49061127b565b80156107f15780601f106107c6576101008083540402835291602001916107f1565b820191906000526020600020905b8154815290600101906020018083116107d457829003601f168201915b505050505081525050905080600001518160200151826040015183606001519450945094509450509193509193565b6002818051602081018201805184825260208301602085012081835280955050505050506000915090508060000180546108599061127b565b80601f01602080910402602001604051908101604052809291908181526020018280546108859061127b565b80156108d25780601f106108a7576101008083540402835291602001916108d2565b820191906000526020600020905b8154815290600101906020018083116108b557829003601f168201915b5050505050908060010180546108e79061127b565b80601f01602080910402602001604051908101604052809291908181526020018280546109139061127b565b80156109605780601f1061093557610100808354040283529160200191610960565b820191906000526020600020905b81548152906001019060200180831161094357829003601f168201915b5050505050908060020180546109759061127b565b80601f01602080910402602001604051908101604052809291908181526020018280546109a19061127b565b80156109ee5780601f106109c3576101008083540402835291602001916109ee565b820191906000526020600020905b8154815290600101906020018083116109d157829003601f168201915b505050505090806003018054610a039061127b565b80601f0160208091040260200160405190810160405280929190818152602001828054610a2f9061127b565b8015610a7c5780601f10610a5157610100808354040283529160200191610a7c565b820191906000526020600020905b815481529060010190602001808311610a5f57829003601f168201915b505050505090806004018054610a919061127b565b80601f0160208091040260200160405190810160405280929190818152602001828054610abd9061127b565b8015610b0a5780601f10610adf57610100808354040283529160200191610b0a565b820191906000526020600020905b815481529060010190602001808311610aed57829003601f168201915b5050505050905085565b6000600285604051610b2691906112e8565b90815260200160405180910390206001018054610b429061127b565b905014610b84576040517f08c379a0000000000000000000000000000000000000000000000000000000008152600401610b7b90611449565b60405180910390fd5b6040518060a0016040528086815260200185815260200184815260200183815260200182815250600285604051610bbb91906112e8565b90815260200160405180910390206000820151816000019081610bde9190611615565b506020820151816001019081610bf49190611615565b506040820151816002019081610c0a9190611615565b506060820151816003019081610c209190611615565b506080820151816004019081610c369190611615565b50905050600384908060018154018082558091505060019003906000526020600020016000909190919091509081610c6e9190611615565b505050505050565b600080815480929190610c8890611716565b919050555060405180608001604052806000548152602001848152602001838152602001828152506001600080548152602001908152602001600020600082015181600001556020820151816001019081610ce39190611615565b506040820151816002019081610cf99190611615565b506060820151816003019081610d0f9190611615565b50905050505050565b6000604051905090565b600080fd5b600080fd5b6000819050919050565b610d3f81610d2c565b8114610d4a57600080fd5b50565b600081359050610d5c81610d36565b92915050565b600060208284031215610d7857610d77610d22565b5b6000610d8684828501610d4d565b91505092915050565b600081519050919050565b600082825260208201905092915050565b60005b83811015610dc9578082015181840152602081019050610dae565b60008484015250505050565b6000601f19601f8301169050919050565b6000610df182610d8f565b610dfb8185610d9a565b9350610e0b818560208601610dab565b610e1481610dd5565b840191505092915050565b60006020820190508181036000830152610e398184610de6565b905092915050565b600080fd5b600080fd5b7f4e487b7100000000000000000000000000000000000000000000000000000000600052604160045260246000fd5b610e8382610dd5565b810181811067ffffffffffffffff82111715610ea257610ea1610e4b565b5b80604052505050565b6000610eb5610d18565b9050610ec18282610e7a565b919050565b600067ffffffffffffffff821115610ee157610ee0610e4b565b5b610eea82610dd5565b9050602081019050919050565b82818337600083830152505050565b6000610f19610f1484610ec6565b610eab565b905082815260208101848484011115610f3557610f34610e46565b5b610f40848285610ef7565b509392505050565b600082601f830112610f5d57610f5c610e41565b5b8135610f6d848260208601610f06565b91505092915050565b600060208284031215610f8c57610f8b610d22565b5b600082013567ffffffffffffffff811115610faa57610fa9610d27565b5b610fb684828501610f48565b91505092915050565b600060a0820190508181036000830152610fd98188610de6565b90508181036020830152610fed8187610de6565b905081810360408301526110018186610de6565b905081810360608301526110158185610de6565b905081810360808301526110298184610de6565b90509695505050505050565b61103e81610d2c565b82525050565b60006080820190506110596000830187611035565b818103602083015261106b8186610de6565b9050818103604083015261107f8185610de6565b905081810360608301526110938184610de6565b905095945050505050565b600080600080600060a086880312156110ba576110b9610d22565b5b600086013567ffffffffffffffff8111156110d8576110d7610d27565b5b6110e488828901610f48565b955050602086013567ffffffffffffffff81111561110557611104610d27565b5b61111188828901610f48565b945050604086013567ffffffffffffffff81111561113257611131610d27565b5b61113e88828901610f48565b935050606086013567ffffffffffffffff81111561115f5761115e610d27565b5b61116b88828901610f48565b925050608086013567ffffffffffffffff81111561118c5761118b610d27565b5b61119888828901610f48565b9150509295509295909350565b6000806000606084860312156111be576111bd610d22565b5b600084013567ffffffffffffffff8111156111dc576111db610d27565b5b6111e886828701610f48565b935050602084013567ffffffffffffffff81111561120957611208610d27565b5b61121586828701610f48565b925050604084013567ffffffffffffffff81111561123657611235610d27565b5b61124286828701610f48565b9150509250925092565b7f4e487b7100000000000000000000000000000000000000000000000000000000600052602260045260246000fd5b6000600282049050600182168061129357607f821691505b6020821081036112a6576112a561124c565b5b50919050565b600081905092915050565b60006112c282610d8f565b6112cc81856112ac565b93506112dc818560208601610dab565b80840191505092915050565b60006112f482846112b7565b915081905092915050565b7f566f746572206e6f742072656769737465726564000000000000000000000000600082015250565b6000611335601483610d9a565b9150611340826112ff565b602082019050919050565b6000602082019050818103600083015261136481611328565b9050919050565b7f506f6c6c20494420646f6573206e6f7420657869737400000000000000000000600082015250565b60006113a1601683610d9a565b91506113ac8261136b565b602082019050919050565b600060208201905081810360008301526113d081611394565b9050919050565b7f566f74657220616c72656164792072656769737465726564207468697320616160008201527f64686172206e756d626572000000000000000000000000000000000000000000602082015250565b6000611433602b83610d9a565b915061143e826113d7565b604082019050919050565b6000602082019050818103600083015261146281611426565b9050919050565b60008190508160005260206000209050919050565b60006020601f8301049050919050565b600082821b905092915050565b6000600883026114cb7fffffffffffffffffffffffffffffffffffffffffffffffffffffffffffffffff8261148e565b6114d5868361148e565b95508019841693508086168417925050509392505050565b6000819050919050565b600061151261150d61150884610d2c565b6114ed565b610d2c565b9050919050565b6000819050919050565b61152c836114f7565b61154061153882611519565b84845461149b565b825550505050565b600090565b611555611548565b611560818484611523565b505050565b5b818110156115845761157960008261154d565b600181019050611566565b5050565b601f8211156115c95761159a81611469565b6115a38461147e565b810160208510156115b2578190505b6115c66115be8561147e565b830182611565565b50505b505050565b600082821c905092915050565b60006115ec600019846008026115ce565b1980831691505092915050565b600061160583836115db565b9150826002028217905092915050565b61161e82610d8f565b67ffffffffffffffff81111561163757611636610e4b565b5b611641825461127b565b61164c828285611588565b600060209050601f83116001811461167f576000841561166d578287015190505b61167785826115f9565b8655506116df565b601f19841661168d86611469565b60005b828110156116b557848901518255600182019150602085019450602081019050611690565b868310156116d257848901516116ce601f8916826115db565b8355505b6001600288020188555050505b505050505050565b7f4e487b7100000000000000000000000000000000000000000000000000000000600052601160045260246000fd5b600061172182610d2c565b91507fffffffffffffffffffffffffffffffffffffffffffffffffffffffffffffffff8203611753576117526116e7565b5b60018201905091905056fea2646970667358221220cd046146c29502affa78455a74d869c6cd59b2b222364d02f2a78c28f7e0336f64736f6c63430008130033",
  "immutableReferences": {},
  "source": "// SPDX-License-Identifier: MIT\npragma solidity >=0.4.22 <0.9.0;\n\ncontract voting {\n\n  struct Voter {\n        string fullName;\n        string aadharNumber;\n        string irisImagePath; // Stores only the image path, not the actual image\n        string email;\n        string password;\n    }\n\n    struct Poll{\n      uint id;\n      string partyName;\n      string partyLeader;\n      string symbolPath;\n    }\n\n    uint private pollIdCounter; // Auto-incrementing poll ID\n    mapping(uint => Poll) private polls; // Mapping from poll ID to Poll struct\n\n    mapping(string => Voter) public voters;\n    string[] public voterAadhars;\n\n    function registerVoter(string memory _fullName, string memory _aadharNumber, string memory _irisImagePath,string memory email,string memory password) public {\n        require(bytes(voters[_aadharNumber].aadharNumber).length == 0, \"Voter already registered this aadhar number\");\n\n        voters[_aadharNumber] = Voter({\n            fullName: _fullName,\n            aadharNumber: _aadharNumber,\n            irisImagePath: _irisImagePath,\n            email:email,\n            password:password\n        });\n\n        voterAadhars.push(_aadharNumber);\n  }\n\n    function getVoter(string memory aadhar) public view returns (string memory, string memory, string memory,string memory,string memory) {\n        require(bytes(voters[aadhar].aadharNumber).length > 0, \"Voter not registered\");\n\n        Voter memory voter = voters[aadhar];\n        return (voter.fullName, voter.aadharNumber, voter.irisImagePath,voter.email,voter.password);\n    }\n\n  // Function to add a new poll\n    function addPoll(string memory _partyName, string memory _partyLeader, string memory _symbolPath) public {\n        pollIdCounter++; // Auto-increment ID\n        polls[pollIdCounter] = Poll(pollIdCounter, _partyName, _partyLeader, _symbolPath);\n    }\n\n    // Function to get a poll by ID\n    function getPoll(uint _id) public view returns (uint, string memory, string memory, string memory) {\n        require(_id > 0 && _id <= pollIdCounter, \"Poll ID does not exist\");\n        Poll memory poll = polls[_id];\n        return (poll.id, poll.partyName, poll.partyLeader, poll.symbolPath);\n    }\n}\n",
  "sourcePath": "E:\\BITS-2025\\Blockchain integrated voting app\\contracts\\voting.sol",
  "compiler": {
    "name": "solc",
    "version": "0.8.19+commit.7dd6d404.Emscripten.clang"
  },
  "schemaVersion": "3.4.16",
  "updatedAt": "2025-02-22T05:55:48.376Z",
  "networkType": "ethereum",
  "devdoc": {
    "kind": "dev",
    "methods": {},
    "version": 1
  },
  "userdoc": {
    "kind": "user",
    "methods": {},
    "version": 1
  }
}