{
  "contractName": "Voting",
  "abi": [
    {
      "inputs": [
        {
          "internalType": "uint256",
          "name": "",
          "type": "uint256"
        }
      ],
      "name": "allParties",
      "outputs": [
        {
          "internalType": "uint256",
          "name": "id",
          "type": "uint256"
        },
        {
          "internalType": "string",
          "name": "partyName",
          "type": "string"
        },
        {
          "internalType": "string",
          "name": "partyLeader",
          "type": "string"
        },
        {
          "internalType": "string",
          "name": "symbolPath",
          "type": "string"
        }
      ],
      "stateMutability": "view",
      "type": "function",
      "constant": true
    },
    {
      "inputs": [
        {
          "internalType": "uint256",
          "name": "",
          "type": "uint256"
        }
      ],
      "name": "polls",
      "outputs": [
        {
          "internalType": "uint256",
          "name": "pollId",
          "type": "uint256"
        },
        {
          "internalType": "string",
          "name": "pollName",
          "type": "string"
        },
        {
          "internalType": "string",
          "name": "pollDate",
          "type": "string"
        },
        {
          "internalType": "string",
          "name": "startTime",
          "type": "string"
        },
        {
          "internalType": "string",
          "name": "endTime",
          "type": "string"
        }
      ],
      "stateMutability": "view",
      "type": "function",
      "constant": true
    },
    {
      "inputs": [
        {
          "internalType": "uint256",
          "name": "",
          "type": "uint256"
        }
      ],
      "name": "voterAadhars",
      "outputs": [
        {
          "internalType": "string",
          "name": "",
          "type": "string"
        }
      ],
      "stateMutability": "view",
      "type": "function",
      "constant": true
    },
    {
      "inputs": [
        {
          "internalType": "string",
          "name": "",
          "type": "string"
        }
      ],
      "name": "voters",
      "outputs": [
        {
          "internalType": "string",
          "name": "fullName",
          "type": "string"
        },
        {
          "internalType": "string",
          "name": "aadharNumber",
          "type": "string"
        },
        {
          "internalType": "string",
          "name": "irisImagePath",
          "type": "string"
        },
        {
          "internalType": "string",
          "name": "email",
          "type": "string"
        },
        {
          "internalType": "string",
          "name": "password",
          "type": "string"
        }
      ],
      "stateMutability": "view",
      "type": "function",
      "constant": true
    },
    {
      "inputs": [
        {
          "internalType": "string",
          "name": "_fullName",
          "type": "string"
        },
        {
          "internalType": "string",
          "name": "_aadharNumber",
          "type": "string"
        },
        {
          "internalType": "string",
          "name": "_irisImagePath",
          "type": "string"
        },
        {
          "internalType": "string",
          "name": "_email",
          "type": "string"
        },
        {
          "internalType": "string",
          "name": "_password",
          "type": "string"
        }
      ],
      "name": "registerVoter",
      "outputs": [],
      "stateMutability": "nonpayable",
      "type": "function"
    },
    {
      "inputs": [
        {
          "internalType": "string",
          "name": "aadhar",
          "type": "string"
        }
      ],
      "name": "getVoter",
      "outputs": [
        {
          "internalType": "string",
          "name": "",
          "type": "string"
        },
        {
          "internalType": "string",
          "name": "",
          "type": "string"
        },
        {
          "internalType": "string",
          "name": "",
          "type": "string"
        },
        {
          "internalType": "string",
          "name": "",
          "type": "string"
        },
        {
          "internalType": "string",
          "name": "",
          "type": "string"
        }
      ],
      "stateMutability": "view",
      "type": "function",
      "constant": true
    },
    {
      "inputs": [
        {
          "internalType": "uint256",
          "name": "_id",
          "type": "uint256"
        },
        {
          "internalType": "string",
          "name": "_partyName",
          "type": "string"
        },
        {
          "internalType": "string",
          "name": "_partyLeader",
          "type": "string"
        },
        {
          "internalType": "string",
          "name": "_symbolPath",
          "type": "string"
        }
      ],
      "name": "addParty",
      "outputs": [],
      "stateMutability": "nonpayable",
      "type": "function"
    },
    {
      "inputs": [
        {
          "internalType": "uint256",
          "name": "_id",
          "type": "uint256"
        }
      ],
      "name": "getParty",
      "outputs": [
        {
          "internalType": "uint256",
          "name": "",
          "type": "uint256"
        },
        {
          "internalType": "string",
          "name": "",
          "type": "string"
        },
        {
          "internalType": "string",
          "name": "",
          "type": "string"
        },
        {
          "internalType": "string",
          "name": "",
          "type": "string"
        }
      ],
      "stateMutability": "view",
      "type": "function",
      "constant": true
    },
    {
      "inputs": [
        {
          "internalType": "uint256",
          "name": "partyId",
          "type": "uint256"
        }
      ],
      "name": "getPartiesByPartyId",
      "outputs": [
        {
          "components": [
            {
              "internalType": "uint256",
              "name": "id",
              "type": "uint256"
            },
            {
              "internalType": "string",
              "name": "partyName",
              "type": "string"
            },
            {
              "internalType": "string",
              "name": "partyLeader",
              "type": "string"
            },
            {
              "internalType": "string",
              "name": "symbolPath",
              "type": "string"
            }
          ],
          "internalType": "struct Voting.Party[]",
          "name": "",
          "type": "tuple[]"
        }
      ],
      "stateMutability": "view",
      "type": "function",
      "constant": true
    },
    {
      "inputs": [
        {
          "internalType": "string",
          "name": "_pollName",
          "type": "string"
        },
        {
          "internalType": "string",
          "name": "_pollDate",
          "type": "string"
        },
        {
          "internalType": "string",
          "name": "_startTime",
          "type": "string"
        },
        {
          "internalType": "string",
          "name": "_endTime",
          "type": "string"
        }
      ],
      "name": "addPoll",
      "outputs": [],
      "stateMutability": "nonpayable",
      "type": "function"
    },
    {
      "inputs": [],
      "name": "getAllPolls",
      "outputs": [
        {
          "components": [
            {
              "internalType": "uint256",
              "name": "pollId",
              "type": "uint256"
            },
            {
              "internalType": "string",
              "name": "pollName",
              "type": "string"
            },
            {
              "internalType": "string",
              "name": "pollDate",
              "type": "string"
            },
            {
              "internalType": "string",
              "name": "startTime",
              "type": "string"
            },
            {
              "internalType": "string",
              "name": "endTime",
              "type": "string"
            }
          ],
          "internalType": "struct Voting.Poll[]",
          "name": "",
          "type": "tuple[]"
        }
      ],
      "stateMutability": "view",
      "type": "function",
      "constant": true
    },
    {
      "inputs": [
        {
          "internalType": "uint256",
          "name": "_pollId",
          "type": "uint256"
        }
      ],
      "name": "getPollById",
      "outputs": [
        {
          "internalType": "uint256",
          "name": "",
          "type": "uint256"
        },
        {
          "internalType": "string",
          "name": "",
          "type": "string"
        },
        {
          "internalType": "string",
          "name": "",
          "type": "string"
        },
        {
          "internalType": "string",
          "name": "",
          "type": "string"
        },
        {
          "internalType": "string",
          "name": "",
          "type": "string"
        }
      ],
      "stateMutability": "view",
      "type": "function",
      "constant": true
    }
  ],
  "bytecode": "0x6080604052600060045534801561001557600080fd5b50612d74806100256000396000f3fe608060405234801561001057600080fd5b50600436106100b45760003560e01c80635f8fd579116100715780635f8fd579146101a757806360d50596146101d7578063947582181461020a578063ac2f00741461023d578063d4bc5e9114610271578063f20f4e23146102a5576100b4565b806308829408146100b95780630d0b800f146100d557806314a0069a1461010557806332b633fa1461013957806353fa2e64146101575780635ed5d2c31461018b575b600080fd5b6100d360048036038101906100ce9190611f76565b6102c1565b005b6100ef60048036038101906100ea9190612031565b6103e4565b6040516100fc91906120dd565b60405180910390f35b61011f600480360381019061011a91906120ff565b610490565b604051610130959493929190612148565b60405180910390f35b61014161083a565b60405161014e9190612364565b60405180910390f35b610171600480360381019061016c91906120ff565b610b70565b604051610182959493929190612148565b60405180910390f35b6101a560048036038101906101a09190612386565b610e64565b005b6101c160048036038101906101bc9190612031565b610fc5565b6040516101ce91906125c0565b60405180910390f35b6101f160048036038101906101ec9190612031565b6112f5565b60405161020194939291906125f1565b60405180910390f35b610224600480360381019061021f9190612031565b6114cd565b60405161023494939291906125f1565b60405180910390f35b61025760048036038101906102529190612031565b61173f565b60405161026895949392919061264b565b60405180910390f35b61028b60048036038101906102869190612031565b611995565b60405161029c95949392919061264b565b60405180910390f35b6102bf60048036038101906102ba91906126ba565b611ca3565b005b60405180608001604052808581526020018481526020018381526020018281525060026000868152602001908152602001600020600082015181600001556020820151816001019081610314919061299d565b50604082015181600201908161032a919061299d565b506060820151816003019081610340919061299d565b50905050600360405180608001604052808681526020018581526020018481526020018381525090806001815401808255809150506001900390600052602060002090600402016000909190919091506000820151816000015560208201518160010190816103af919061299d565b5060408201518160020190816103c5919061299d565b5060608201518160030190816103db919061299d565b50505050505050565b600181815481106103f457600080fd5b90600052602060002001600091509050805461040f906127c0565b80601f016020809104026020016040519081016040528092919081815260200182805461043b906127c0565b80156104885780601f1061045d57610100808354040283529160200191610488565b820191906000526020600020905b81548152906001019060200180831161046b57829003601f168201915b505050505081565b6060806060806060600080876040516104a99190612aab565b908152602001604051809103902060010180546104c5906127c0565b905011610507576040517f08c379a00000000000000000000000000000000000000000000000000000000081526004016104fe90612b0e565b60405180910390fd5b600080876040516105189190612aab565b90815260200160405180910390206040518060a0016040529081600082018054610541906127c0565b80601f016020809104026020016040519081016040528092919081815260200182805461056d906127c0565b80156105ba5780601f1061058f576101008083540402835291602001916105ba565b820191906000526020600020905b81548152906001019060200180831161059d57829003601f168201915b505050505081526020016001820180546105d3906127c0565b80601f01602080910402602001604051908101604052809291908181526020018280546105ff906127c0565b801561064c5780601f106106215761010080835404028352916020019161064c565b820191906000526020600020905b81548152906001019060200180831161062f57829003601f168201915b50505050508152602001600282018054610665906127c0565b80601f0160208091040260200160405190810160405280929190818152602001828054610691906127c0565b80156106de5780601f106106b3576101008083540402835291602001916106de565b820191906000526020600020905b8154815290600101906020018083116106c157829003601f168201915b505050505081526020016003820180546106f7906127c0565b80601f0160208091040260200160405190810160405280929190818152602001828054610723906127c0565b80156107705780601f1061074557610100808354040283529160200191610770565b820191906000526020600020905b81548152906001019060200180831161075357829003601f168201915b50505050508152602001600482018054610789906127c0565b80601f01602080910402602001604051908101604052809291908181526020018280546107b5906127c0565b80156108025780601f106107d757610100808354040283529160200191610802565b820191906000526020600020905b8154815290600101906020018083116107e557829003601f168201915b505050505081525050905080600001518160200151826040015183606001518460800151955095509550955095505091939590929450565b6060600060068054905067ffffffffffffffff81111561085d5761085c611e4b565b5b60405190808252806020026020018201604052801561089657816020015b610883611d8f565b81526020019060019003908161087b5790505b50905060005b600680549050811015610b685760056000600683815481106108c1576108c0612b2e565b5b906000526020600020015481526020019081526020016000206040518060a0016040529081600082015481526020016001820180546108ff906127c0565b80601f016020809104026020016040519081016040528092919081815260200182805461092b906127c0565b80156109785780601f1061094d57610100808354040283529160200191610978565b820191906000526020600020905b81548152906001019060200180831161095b57829003601f168201915b50505050508152602001600282018054610991906127c0565b80601f01602080910402602001604051908101604052809291908181526020018280546109bd906127c0565b8015610a0a5780601f106109df57610100808354040283529160200191610a0a565b820191906000526020600020905b8154815290600101906020018083116109ed57829003601f168201915b50505050508152602001600382018054610a23906127c0565b80601f0160208091040260200160405190810160405280929190818152602001828054610a4f906127c0565b8015610a9c5780601f10610a7157610100808354040283529160200191610a9c565b820191906000526020600020905b815481529060010190602001808311610a7f57829003601f168201915b50505050508152602001600482018054610ab5906127c0565b80601f0160208091040260200160405190810160405280929190818152602001828054610ae1906127c0565b8015610b2e5780601f10610b0357610100808354040283529160200191610b2e565b820191906000526020600020905b815481529060010190602001808311610b1157829003601f168201915b505050505081525050828281518110610b4a57610b49612b2e565b5b60200260200101819052508080610b6090612b8c565b91505061089c565b508091505090565b600081805160208101820180518482526020830160208501208183528095505050505050600091509050806000018054610ba9906127c0565b80601f0160208091040260200160405190810160405280929190818152602001828054610bd5906127c0565b8015610c225780601f10610bf757610100808354040283529160200191610c22565b820191906000526020600020905b815481529060010190602001808311610c0557829003601f168201915b505050505090806001018054610c37906127c0565b80601f0160208091040260200160405190810160405280929190818152602001828054610c63906127c0565b8015610cb05780601f10610c8557610100808354040283529160200191610cb0565b820191906000526020600020905b815481529060010190602001808311610c9357829003601f168201915b505050505090806002018054610cc5906127c0565b80601f0160208091040260200160405190810160405280929190818152602001828054610cf1906127c0565b8015610d3e5780601f10610d1357610100808354040283529160200191610d3e565b820191906000526020600020905b815481529060010190602001808311610d2157829003601f168201915b505050505090806003018054610d53906127c0565b80601f0160208091040260200160405190810160405280929190818152602001828054610d7f906127c0565b8015610dcc5780601f10610da157610100808354040283529160200191610dcc565b820191906000526020600020905b815481529060010190602001808311610daf57829003601f168201915b505050505090806004018054610de1906127c0565b80601f0160208091040260200160405190810160405280929190818152602001828054610e0d906127c0565b8015610e5a5780601f10610e2f57610100808354040283529160200191610e5a565b820191906000526020600020905b815481529060010190602001808311610e3d57829003601f168201915b5050505050905085565b60008085604051610e759190612aab565b90815260200160405180910390206001018054610e91906127c0565b905014610ed3576040517f08c379a0000000000000000000000000000000000000000000000000000000008152600401610eca90612c46565b60405180910390fd5b6040518060a0016040528086815260200185815260200184815260200183815260200182815250600085604051610f0a9190612aab565b90815260200160405180910390206000820151816000019081610f2d919061299d565b506020820151816001019081610f43919061299d565b506040820151816002019081610f59919061299d565b506060820151816003019081610f6f919061299d565b506080820151816004019081610f85919061299d565b50905050600184908060018154018082558091505060019003906000526020600020016000909190919091509081610fbd919061299d565b505050505050565b60606000805b600380549050811015611026578360038281548110610fed57610fec612b2e565b5b9060005260206000209060040201600001540361101357818061100f90612b8c565b9250505b808061101e90612b8c565b915050610fcb565b5060008167ffffffffffffffff81111561104357611042611e4b565b5b60405190808252806020026020018201604052801561107c57816020015b611069611dbe565b8152602001906001900390816110615790505b5090506000805b6003805490508110156112e95785600382815481106110a5576110a4612b2e565b5b906000526020600020906004020160000154036112d657600381815481106110d0576110cf612b2e565b5b906000526020600020906004020160405180608001604052908160008201548152602001600182018054611103906127c0565b80601f016020809104026020016040519081016040528092919081815260200182805461112f906127c0565b801561117c5780601f106111515761010080835404028352916020019161117c565b820191906000526020600020905b81548152906001019060200180831161115f57829003601f168201915b50505050508152602001600282018054611195906127c0565b80601f01602080910402602001604051908101604052809291908181526020018280546111c1906127c0565b801561120e5780601f106111e35761010080835404028352916020019161120e565b820191906000526020600020905b8154815290600101906020018083116111f157829003601f168201915b50505050508152602001600382018054611227906127c0565b80601f0160208091040260200160405190810160405280929190818152602001828054611253906127c0565b80156112a05780601f10611275576101008083540402835291602001916112a0565b820191906000526020600020905b81548152906001019060200180831161128357829003601f168201915b5050505050815250508383815181106112bc576112bb612b2e565b5b602002602001018190525081806112d290612b8c565b9250505b80806112e190612b8c565b915050611083565b50819350505050919050565b6003818154811061130557600080fd5b906000526020600020906004020160009150905080600001549080600101805461132e906127c0565b80601f016020809104026020016040519081016040528092919081815260200182805461135a906127c0565b80156113a75780601f1061137c576101008083540402835291602001916113a7565b820191906000526020600020905b81548152906001019060200180831161138a57829003601f168201915b5050505050908060020180546113bc906127c0565b80601f01602080910402602001604051908101604052809291908181526020018280546113e8906127c0565b80156114355780601f1061140a57610100808354040283529160200191611435565b820191906000526020600020905b81548152906001019060200180831161141857829003601f168201915b50505050509080600301805461144a906127c0565b80601f0160208091040260200160405190810160405280929190818152602001828054611476906127c0565b80156114c35780601f10611498576101008083540402835291602001916114c3565b820191906000526020600020905b8154815290600101906020018083116114a657829003601f168201915b5050505050905084565b6000606080606060006002600087815260200190815260200160002060010180546114f7906127c0565b905011611539576040517f08c379a000000000000000000000000000000000000000000000000000000000815260040161153090612cb2565b60405180910390fd5b60006002600087815260200190815260200160002060405180608001604052908160008201548152602001600182018054611573906127c0565b80601f016020809104026020016040519081016040528092919081815260200182805461159f906127c0565b80156115ec5780601f106115c1576101008083540402835291602001916115ec565b820191906000526020600020905b8154815290600101906020018083116115cf57829003601f168201915b50505050508152602001600282018054611605906127c0565b80601f0160208091040260200160405190810160405280929190818152602001828054611631906127c0565b801561167e5780601f106116535761010080835404028352916020019161167e565b820191906000526020600020905b81548152906001019060200180831161166157829003601f168201915b50505050508152602001600382018054611697906127c0565b80601f01602080910402602001604051908101604052809291908181526020018280546116c3906127c0565b80156117105780601f106116e557610100808354040283529160200191611710565b820191906000526020600020905b8154815290600101906020018083116116f357829003601f168201915b505050505081525050905080600001518160200151826040015183606001519450945094509450509193509193565b6005602052806000526040600020600091509050806000015490806001018054611768906127c0565b80601f0160208091040260200160405190810160405280929190818152602001828054611794906127c0565b80156117e15780601f106117b6576101008083540402835291602001916117e1565b820191906000526020600020905b8154815290600101906020018083116117c457829003601f168201915b5050505050908060020180546117f6906127c0565b80601f0160208091040260200160405190810160405280929190818152602001828054611822906127c0565b801561186f5780601f106118445761010080835404028352916020019161186f565b820191906000526020600020905b81548152906001019060200180831161185257829003601f168201915b505050505090806003018054611884906127c0565b80601f01602080910402602001604051908101604052809291908181526020018280546118b0906127c0565b80156118fd5780601f106118d2576101008083540402835291602001916118fd565b820191906000526020600020905b8154815290600101906020018083116118e057829003601f168201915b505050505090806004018054611912906127c0565b80601f016020809104026020016040519081016040528092919081815260200182805461193e906127c0565b801561198b5780601f106119605761010080835404028352916020019161198b565b820191906000526020600020905b81548152906001019060200180831161196e57829003601f168201915b5050505050905085565b600060608060608060006005600088815260200190815260200160002060010180546119c0906127c0565b905011611a02576040517f08c379a00000000000000000000000000000000000000000000000000000000081526004016119f990612d1e565b60405180910390fd5b6000600560008881526020019081526020016000206040518060a001604052908160008201548152602001600182018054611a3c906127c0565b80601f0160208091040260200160405190810160405280929190818152602001828054611a68906127c0565b8015611ab55780601f10611a8a57610100808354040283529160200191611ab5565b820191906000526020600020905b815481529060010190602001808311611a9857829003601f168201915b50505050508152602001600282018054611ace906127c0565b80601f0160208091040260200160405190810160405280929190818152602001828054611afa906127c0565b8015611b475780601f10611b1c57610100808354040283529160200191611b47565b820191906000526020600020905b815481529060010190602001808311611b2a57829003601f168201915b50505050508152602001600382018054611b60906127c0565b80601f0160208091040260200160405190810160405280929190818152602001828054611b8c906127c0565b8015611bd95780601f10611bae57610100808354040283529160200191611bd9565b820191906000526020600020905b815481529060010190602001808311611bbc57829003601f168201915b50505050508152602001600482018054611bf2906127c0565b80601f0160208091040260200160405190810160405280929190818152602001828054611c1e906127c0565b8015611c6b5780601f10611c4057610100808354040283529160200191611c6b565b820191906000526020600020905b815481529060010190602001808311611c4e57829003601f168201915b505050505081525050905080600001518160200151826040015183606001518460800151955095509550955095505091939590929450565b60046000815480929190611cb690612b8c565b91905055506040518060a00160405280600454815260200185815260200184815260200183815260200182815250600560006004548152602001908152602001600020600082015181600001556020820151816001019081611d18919061299d565b506040820151816002019081611d2e919061299d565b506060820151816003019081611d44919061299d565b506080820151816004019081611d5a919061299d565b509050506006600454908060018154018082558091505060019003906000526020600020016000909190919091505550505050565b6040518060a0016040528060008152602001606081526020016060815260200160608152602001606081525090565b6040518060800160405280600081526020016060815260200160608152602001606081525090565b6000604051905090565b600080fd5b600080fd5b6000819050919050565b611e0d81611dfa565b8114611e1857600080fd5b50565b600081359050611e2a81611e04565b92915050565b600080fd5b600080fd5b6000601f19601f8301169050919050565b7f4e487b7100000000000000000000000000000000000000000000000000000000600052604160045260246000fd5b611e8382611e3a565b810181811067ffffffffffffffff82111715611ea257611ea1611e4b565b5b80604052505050565b6000611eb5611de6565b9050611ec18282611e7a565b919050565b600067ffffffffffffffff821115611ee157611ee0611e4b565b5b611eea82611e3a565b9050602081019050919050565b82818337600083830152505050565b6000611f19611f1484611ec6565b611eab565b905082815260208101848484011115611f3557611f34611e35565b5b611f40848285611ef7565b509392505050565b600082601f830112611f5d57611f5c611e30565b5b8135611f6d848260208601611f06565b91505092915050565b60008060008060808587031215611f9057611f8f611df0565b5b6000611f9e87828801611e1b565b945050602085013567ffffffffffffffff811115611fbf57611fbe611df5565b5b611fcb87828801611f48565b935050604085013567ffffffffffffffff811115611fec57611feb611df5565b5b611ff887828801611f48565b925050606085013567ffffffffffffffff81111561201957612018611df5565b5b61202587828801611f48565b91505092959194509250565b60006020828403121561204757612046611df0565b5b600061205584828501611e1b565b91505092915050565b600081519050919050565b600082825260208201905092915050565b60005b8381101561209857808201518184015260208101905061207d565b60008484015250505050565b60006120af8261205e565b6120b98185612069565b93506120c981856020860161207a565b6120d281611e3a565b840191505092915050565b600060208201905081810360008301526120f781846120a4565b905092915050565b60006020828403121561211557612114611df0565b5b600082013567ffffffffffffffff81111561213357612132611df5565b5b61213f84828501611f48565b91505092915050565b600060a082019050818103600083015261216281886120a4565b9050818103602083015261217681876120a4565b9050818103604083015261218a81866120a4565b9050818103606083015261219e81856120a4565b905081810360808301526121b281846120a4565b90509695505050505050565b600081519050919050565b600082825260208201905092915050565b6000819050602082019050919050565b6121f381611dfa565b82525050565b600082825260208201905092915050565b60006122158261205e565b61221f81856121f9565b935061222f81856020860161207a565b61223881611e3a565b840191505092915050565b600060a08301600083015161225b60008601826121ea565b5060208301518482036020860152612273828261220a565b9150506040830151848203604086015261228d828261220a565b915050606083015184820360608601526122a7828261220a565b915050608083015184820360808601526122c1828261220a565b9150508091505092915050565b60006122da8383612243565b905092915050565b6000602082019050919050565b60006122fa826121be565b61230481856121c9565b935083602082028501612316856121da565b8060005b85811015612352578484038952815161233385826122ce565b945061233e836122e2565b925060208a0199505060018101905061231a565b50829750879550505050505092915050565b6000602082019050818103600083015261237e81846122ef565b905092915050565b600080600080600060a086880312156123a2576123a1611df0565b5b600086013567ffffffffffffffff8111156123c0576123bf611df5565b5b6123cc88828901611f48565b955050602086013567ffffffffffffffff8111156123ed576123ec611df5565b5b6123f988828901611f48565b945050604086013567ffffffffffffffff81111561241a57612419611df5565b5b61242688828901611f48565b935050606086013567ffffffffffffffff81111561244757612446611df5565b5b61245388828901611f48565b925050608086013567ffffffffffffffff81111561247457612473611df5565b5b61248088828901611f48565b9150509295509295909350565b600081519050919050565b600082825260208201905092915050565b6000819050602082019050919050565b60006080830160008301516124d160008601826121ea565b50602083015184820360208601526124e9828261220a565b91505060408301518482036040860152612503828261220a565b9150506060830151848203606086015261251d828261220a565b9150508091505092915050565b600061253683836124b9565b905092915050565b6000602082019050919050565b60006125568261248d565b6125608185612498565b935083602082028501612572856124a9565b8060005b858110156125ae578484038952815161258f858261252a565b945061259a8361253e565b925060208a01995050600181019050612576565b50829750879550505050505092915050565b600060208201905081810360008301526125da818461254b565b905092915050565b6125eb81611dfa565b82525050565b600060808201905061260660008301876125e2565b818103602083015261261881866120a4565b9050818103604083015261262c81856120a4565b9050818103606083015261264081846120a4565b905095945050505050565b600060a08201905061266060008301886125e2565b818103602083015261267281876120a4565b9050818103604083015261268681866120a4565b9050818103606083015261269a81856120a4565b905081810360808301526126ae81846120a4565b90509695505050505050565b600080600080608085870312156126d4576126d3611df0565b5b600085013567ffffffffffffffff8111156126f2576126f1611df5565b5b6126fe87828801611f48565b945050602085013567ffffffffffffffff81111561271f5761271e611df5565b5b61272b87828801611f48565b935050604085013567ffffffffffffffff81111561274c5761274b611df5565b5b61275887828801611f48565b925050606085013567ffffffffffffffff81111561277957612778611df5565b5b61278587828801611f48565b91505092959194509250565b7f4e487b7100000000000000000000000000000000000000000000000000000000600052602260045260246000fd5b600060028204905060018216806127d857607f821691505b6020821081036127eb576127ea612791565b5b50919050565b60008190508160005260206000209050919050565b60006020601f8301049050919050565b600082821b905092915050565b6000600883026128537fffffffffffffffffffffffffffffffffffffffffffffffffffffffffffffffff82612816565b61285d8683612816565b95508019841693508086168417925050509392505050565b6000819050919050565b600061289a61289561289084611dfa565b612875565b611dfa565b9050919050565b6000819050919050565b6128b48361287f565b6128c86128c0826128a1565b848454612823565b825550505050565b600090565b6128dd6128d0565b6128e88184846128ab565b505050565b5b8181101561290c576129016000826128d5565b6001810190506128ee565b5050565b601f82111561295157612922816127f1565b61292b84612806565b8101602085101561293a578190505b61294e61294685612806565b8301826128ed565b50505b505050565b600082821c905092915050565b600061297460001984600802612956565b1980831691505092915050565b600061298d8383612963565b9150826002028217905092915050565b6129a68261205e565b67ffffffffffffffff8111156129bf576129be611e4b565b5b6129c982546127c0565b6129d4828285612910565b600060209050601f831160018114612a0757600084156129f5578287015190505b6129ff8582612981565b865550612a67565b601f198416612a15866127f1565b60005b82811015612a3d57848901518255600182019150602085019450602081019050612a18565b86831015612a5a5784890151612a56601f891682612963565b8355505b6001600288020188555050505b505050505050565b600081905092915050565b6000612a858261205e565b612a8f8185612a6f565b9350612a9f81856020860161207a565b80840191505092915050565b6000612ab78284612a7a565b915081905092915050565b7f566f746572206e6f742072656769737465726564000000000000000000000000600082015250565b6000612af8601483612069565b9150612b0382612ac2565b602082019050919050565b60006020820190508181036000830152612b2781612aeb565b9050919050565b7f4e487b7100000000000000000000000000000000000000000000000000000000600052603260045260246000fd5b7f4e487b7100000000000000000000000000000000000000000000000000000000600052601160045260246000fd5b6000612b9782611dfa565b91507fffffffffffffffffffffffffffffffffffffffffffffffffffffffffffffffff8203612bc957612bc8612b5d565b5b600182019050919050565b7f566f74657220616c72656164792072656769737465726564207769746820746860008201527f697320416164686172206e756d62657200000000000000000000000000000000602082015250565b6000612c30603083612069565b9150612c3b82612bd4565b604082019050919050565b60006020820190508181036000830152612c5f81612c23565b9050919050565b7f506172747920646f6573206e6f74206578697374000000000000000000000000600082015250565b6000612c9c601483612069565b9150612ca782612c66565b602082019050919050565b60006020820190508181036000830152612ccb81612c8f565b9050919050565b7f506f6c6c20646f6573206e6f7420657869737400000000000000000000000000600082015250565b6000612d08601383612069565b9150612d1382612cd2565b602082019050919050565b60006020820190508181036000830152612d3781612cfb565b905091905056fea26469706673582212208946b4f244d4f69c3e4715b89f4c00aba0a8ac327e010b051700ef24aaca62ec64736f6c63430008130033",
  "immutableReferences": {},
  "source": "// SPDX-License-Identifier: MIT\npragma solidity >=0.4.22 <0.9.0;\n\ncontract Voting {\n\n    struct Voter {\n        string fullName;\n        string aadharNumber;\n        string irisImagePath;\n        string email;\n        string password;\n    }\n\n    struct Party {\n        uint id;\n        string partyName;\n        string partyLeader;\n        string symbolPath;\n    }\n\n    struct Poll {\n        uint pollId;\n        string pollName;\n        string pollDate;\n        string startTime;\n        string endTime;\n    }\n\n    mapping(string => Voter) public voters;\n    string[] public voterAadhars;\n\n    mapping(uint => Party) private parties; // Store parties by ID\n    Party[] public allParties;\n\n    uint private pollCounter = 0;  // Auto-incrementing poll ID\n    mapping(uint => Poll) public polls;\n    uint[] private pollIds;  // To track all poll IDs\n\n    function registerVoter(\n        string memory _fullName,\n        string memory _aadharNumber,\n        string memory _irisImagePath,\n        string memory _email,\n        string memory _password\n    ) public {\n        require(bytes(voters[_aadharNumber].aadharNumber).length == 0, \"Voter already registered with this Aadhar number\");\n\n        voters[_aadharNumber] = Voter({\n            fullName: _fullName,\n            aadharNumber: _aadharNumber,\n            irisImagePath: _irisImagePath,\n            email: _email,\n            password: _password\n        });\n\n        voterAadhars.push(_aadharNumber);\n    }\n\n    function getVoter(string memory aadhar) public view returns (string memory, string memory, string memory, string memory, string memory) {\n        require(bytes(voters[aadhar].aadharNumber).length > 0, \"Voter not registered\");\n\n        Voter memory voter = voters[aadhar];\n        return (voter.fullName, voter.aadharNumber, voter.irisImagePath, voter.email, voter.password);\n    }\n\n    // Function to add a new party (now accepts `id` as an argument)\n    function addParty(uint _id, string memory _partyName, string memory _partyLeader, string memory _symbolPath) public {\n\n        parties[_id] = Party(_id, _partyName, _partyLeader, _symbolPath);\n        allParties.push(Party(_id, _partyName, _partyLeader, _symbolPath));\n    }\n\n    // Function to get a party by ID\n    function getParty(uint _id) public view returns (uint, string memory, string memory, string memory) {\n        require(bytes(parties[_id].partyName).length > 0, \"Party does not exist\");\n\n        Party memory party = parties[_id];\n        return (party.id, party.partyName, party.partyLeader, party.symbolPath);\n    }\n\n    // Function to get all parties with a specific ID\nfunction getPartiesByPartyId(uint partyId) public view returns (Party[] memory) {\n    uint count = 0;\n\n    // Count how many parties have the given ID\n    for (uint i = 0; i < allParties.length; i++) {\n        if (allParties[i].id == partyId) {\n            count++;\n        }\n    }\n\n    // Create a dynamic array to store matching parties\n    Party[] memory result = new Party[](count);\n    uint index = 0;\n\n    // Add matching parties to the result array\n    for (uint i = 0; i < allParties.length; i++) {\n        if (allParties[i].id == partyId) {\n            result[index] = allParties[i];\n            index++;\n        }\n    }\n\n    return result;\n}\n\nfunction addPoll(string memory _pollName, string memory _pollDate, string memory _startTime, string memory _endTime) public {\n        pollCounter++;  // Auto-increment ID\n\n        polls[pollCounter] = Poll(pollCounter, _pollName, _pollDate, _startTime, _endTime);\n        pollIds.push(pollCounter);  // Store poll ID\n    }\n\n        function getAllPolls() public view returns (Poll[] memory) {\n        Poll[] memory allPolls = new Poll[](pollIds.length);\n        for (uint i = 0; i < pollIds.length; i++) {\n            allPolls[i] = polls[pollIds[i]];\n        }\n        return allPolls;\n    }\n\n        // Function to get poll details by pollId\n    function getPollById(uint _pollId) public view returns (uint, string memory, string memory, string memory, string memory) {\n        require(bytes(polls[_pollId].pollName).length > 0, \"Poll does not exist\");\n\n        Poll memory poll = polls[_pollId];\n        return (poll.pollId, poll.pollName, poll.pollDate, poll.startTime, poll.endTime);\n    }\n\n}\n",
  "sourcePath": "E:\\BITS-2025\\Blockchain integrated voting app\\contracts\\voting.sol",
  "compiler": {
    "name": "solc",
    "version": "0.8.19+commit.7dd6d404.Emscripten.clang"
  },
  "schemaVersion": "3.4.16",
  "updatedAt": "2025-02-22T12:05:04.134Z",
  "networkType": "ethereum",
  "devdoc": {
    "kind": "dev",
    "methods": {},
    "version": 1
  },
  "userdoc": {
    "kind": "user",
    "methods": {},
    "version": 1
  }
}