{
  "contractName": "Voting",
  "abi": [
    {
      "inputs": [
        {
          "internalType": "uint256",
          "name": "",
          "type": "uint256"
        }
      ],
      "name": "allParties",
      "outputs": [
        {
          "internalType": "uint256",
          "name": "id",
          "type": "uint256"
        },
        {
          "internalType": "string",
          "name": "partyName",
          "type": "string"
        },
        {
          "internalType": "string",
          "name": "partyLeader",
          "type": "string"
        },
        {
          "internalType": "string",
          "name": "symbolPath",
          "type": "string"
        }
      ],
      "stateMutability": "view",
      "type": "function",
      "constant": true
    },
    {
      "inputs": [
        {
          "internalType": "uint256",
          "name": "",
          "type": "uint256"
        }
      ],
      "name": "pollVotes",
      "outputs": [
        {
          "internalType": "uint256",
          "name": "pollId",
          "type": "uint256"
        },
        {
          "internalType": "bool",
          "name": "initialized",
          "type": "bool"
        }
      ],
      "stateMutability": "view",
      "type": "function",
      "constant": true
    },
    {
      "inputs": [
        {
          "internalType": "uint256",
          "name": "",
          "type": "uint256"
        }
      ],
      "name": "polledVoters",
      "outputs": [
        {
          "internalType": "uint256",
          "name": "pollId",
          "type": "uint256"
        }
      ],
      "stateMutability": "view",
      "type": "function",
      "constant": true
    },
    {
      "inputs": [
        {
          "internalType": "uint256",
          "name": "",
          "type": "uint256"
        }
      ],
      "name": "polls",
      "outputs": [
        {
          "internalType": "uint256",
          "name": "pollId",
          "type": "uint256"
        },
        {
          "internalType": "string",
          "name": "pollName",
          "type": "string"
        },
        {
          "internalType": "string",
          "name": "pollDate",
          "type": "string"
        },
        {
          "internalType": "string",
          "name": "startTime",
          "type": "string"
        },
        {
          "internalType": "string",
          "name": "endTime",
          "type": "string"
        }
      ],
      "stateMutability": "view",
      "type": "function",
      "constant": true
    },
    {
      "inputs": [
        {
          "internalType": "uint256",
          "name": "",
          "type": "uint256"
        }
      ],
      "name": "voterAadhars",
      "outputs": [
        {
          "internalType": "string",
          "name": "",
          "type": "string"
        }
      ],
      "stateMutability": "view",
      "type": "function",
      "constant": true
    },
    {
      "inputs": [
        {
          "internalType": "string",
          "name": "",
          "type": "string"
        }
      ],
      "name": "voters",
      "outputs": [
        {
          "internalType": "string",
          "name": "fullName",
          "type": "string"
        },
        {
          "internalType": "string",
          "name": "aadharNumber",
          "type": "string"
        },
        {
          "internalType": "string",
          "name": "irisImagePath",
          "type": "string"
        },
        {
          "internalType": "string",
          "name": "email",
          "type": "string"
        },
        {
          "internalType": "string",
          "name": "password",
          "type": "string"
        }
      ],
      "stateMutability": "view",
      "type": "function",
      "constant": true
    },
    {
      "inputs": [
        {
          "internalType": "string",
          "name": "_fullName",
          "type": "string"
        },
        {
          "internalType": "string",
          "name": "_aadharNumber",
          "type": "string"
        },
        {
          "internalType": "string",
          "name": "_irisImagePath",
          "type": "string"
        },
        {
          "internalType": "string",
          "name": "_email",
          "type": "string"
        },
        {
          "internalType": "string",
          "name": "_password",
          "type": "string"
        }
      ],
      "name": "registerVoter",
      "outputs": [],
      "stateMutability": "nonpayable",
      "type": "function"
    },
    {
      "inputs": [
        {
          "internalType": "string",
          "name": "aadhar",
          "type": "string"
        }
      ],
      "name": "getVoter",
      "outputs": [
        {
          "internalType": "string",
          "name": "",
          "type": "string"
        },
        {
          "internalType": "string",
          "name": "",
          "type": "string"
        },
        {
          "internalType": "string",
          "name": "",
          "type": "string"
        },
        {
          "internalType": "string",
          "name": "",
          "type": "string"
        },
        {
          "internalType": "string",
          "name": "",
          "type": "string"
        }
      ],
      "stateMutability": "view",
      "type": "function",
      "constant": true
    },
    {
      "inputs": [],
      "name": "getAllVoters",
      "outputs": [
        {
          "components": [
            {
              "internalType": "string",
              "name": "fullName",
              "type": "string"
            },
            {
              "internalType": "string",
              "name": "aadharNumber",
              "type": "string"
            },
            {
              "internalType": "string",
              "name": "irisImagePath",
              "type": "string"
            },
            {
              "internalType": "string",
              "name": "email",
              "type": "string"
            },
            {
              "internalType": "string",
              "name": "password",
              "type": "string"
            }
          ],
          "internalType": "struct Voting.Voter[]",
          "name": "",
          "type": "tuple[]"
        }
      ],
      "stateMutability": "view",
      "type": "function",
      "constant": true
    },
    {
      "inputs": [
        {
          "internalType": "uint256",
          "name": "_id",
          "type": "uint256"
        },
        {
          "internalType": "string",
          "name": "_partyName",
          "type": "string"
        },
        {
          "internalType": "string",
          "name": "_partyLeader",
          "type": "string"
        },
        {
          "internalType": "string",
          "name": "_symbolPath",
          "type": "string"
        }
      ],
      "name": "addParty",
      "outputs": [],
      "stateMutability": "nonpayable",
      "type": "function"
    },
    {
      "inputs": [
        {
          "internalType": "uint256",
          "name": "_id",
          "type": "uint256"
        }
      ],
      "name": "getParty",
      "outputs": [
        {
          "internalType": "uint256",
          "name": "",
          "type": "uint256"
        },
        {
          "internalType": "string",
          "name": "",
          "type": "string"
        },
        {
          "internalType": "string",
          "name": "",
          "type": "string"
        },
        {
          "internalType": "string",
          "name": "",
          "type": "string"
        }
      ],
      "stateMutability": "view",
      "type": "function",
      "constant": true
    },
    {
      "inputs": [
        {
          "internalType": "uint256",
          "name": "partyId",
          "type": "uint256"
        }
      ],
      "name": "getPartiesByPartyId",
      "outputs": [
        {
          "components": [
            {
              "internalType": "uint256",
              "name": "id",
              "type": "uint256"
            },
            {
              "internalType": "string",
              "name": "partyName",
              "type": "string"
            },
            {
              "internalType": "string",
              "name": "partyLeader",
              "type": "string"
            },
            {
              "internalType": "string",
              "name": "symbolPath",
              "type": "string"
            }
          ],
          "internalType": "struct Voting.Party[]",
          "name": "",
          "type": "tuple[]"
        }
      ],
      "stateMutability": "view",
      "type": "function",
      "constant": true
    },
    {
      "inputs": [
        {
          "internalType": "string",
          "name": "_pollName",
          "type": "string"
        },
        {
          "internalType": "string",
          "name": "_pollDate",
          "type": "string"
        },
        {
          "internalType": "string",
          "name": "_startTime",
          "type": "string"
        },
        {
          "internalType": "string",
          "name": "_endTime",
          "type": "string"
        }
      ],
      "name": "addPoll",
      "outputs": [],
      "stateMutability": "nonpayable",
      "type": "function"
    },
    {
      "inputs": [],
      "name": "getAllPolls",
      "outputs": [
        {
          "components": [
            {
              "internalType": "uint256",
              "name": "pollId",
              "type": "uint256"
            },
            {
              "internalType": "string",
              "name": "pollName",
              "type": "string"
            },
            {
              "internalType": "string",
              "name": "pollDate",
              "type": "string"
            },
            {
              "internalType": "string",
              "name": "startTime",
              "type": "string"
            },
            {
              "internalType": "string",
              "name": "endTime",
              "type": "string"
            }
          ],
          "internalType": "struct Voting.Poll[]",
          "name": "",
          "type": "tuple[]"
        }
      ],
      "stateMutability": "view",
      "type": "function",
      "constant": true
    },
    {
      "inputs": [
        {
          "internalType": "uint256",
          "name": "_pollId",
          "type": "uint256"
        }
      ],
      "name": "getPollById",
      "outputs": [
        {
          "internalType": "uint256",
          "name": "",
          "type": "uint256"
        },
        {
          "internalType": "string",
          "name": "",
          "type": "string"
        },
        {
          "internalType": "string",
          "name": "",
          "type": "string"
        },
        {
          "internalType": "string",
          "name": "",
          "type": "string"
        },
        {
          "internalType": "string",
          "name": "",
          "type": "string"
        }
      ],
      "stateMutability": "view",
      "type": "function",
      "constant": true
    },
    {
      "inputs": [
        {
          "internalType": "uint256",
          "name": "_pollId",
          "type": "uint256"
        },
        {
          "internalType": "uint256",
          "name": "_partyId",
          "type": "uint256"
        },
        {
          "internalType": "string",
          "name": "_aadharNumber",
          "type": "string"
        }
      ],
      "name": "vote",
      "outputs": [],
      "stateMutability": "nonpayable",
      "type": "function"
    },
    {
      "inputs": [
        {
          "internalType": "uint256",
          "name": "_pollId",
          "type": "uint256"
        },
        {
          "internalType": "uint256",
          "name": "_partyId",
          "type": "uint256"
        }
      ],
      "name": "getVotes",
      "outputs": [
        {
          "internalType": "uint256",
          "name": "",
          "type": "uint256"
        }
      ],
      "stateMutability": "view",
      "type": "function",
      "constant": true
    },
    {
      "inputs": [
        {
          "internalType": "uint256",
          "name": "_pollId",
          "type": "uint256"
        },
        {
          "internalType": "string",
          "name": "_aadharNumber",
          "type": "string"
        }
      ],
      "name": "hasVoted",
      "outputs": [
        {
          "internalType": "bool",
          "name": "",
          "type": "bool"
        }
      ],
      "stateMutability": "view",
      "type": "function",
      "constant": true
    },
    {
      "inputs": [
        {
          "internalType": "uint256",
          "name": "_pollId",
          "type": "uint256"
        }
      ],
      "name": "getPollResults",
      "outputs": [
        {
          "internalType": "uint256[]",
          "name": "partyIds",
          "type": "uint256[]"
        },
        {
          "internalType": "uint256[]",
          "name": "voteCounts",
          "type": "uint256[]"
        }
      ],
      "stateMutability": "view",
      "type": "function",
      "constant": true
    }
  ],
  "bytecode": "0x6080604052600060045534801561001557600080fd5b50613cd2806100256000396000f3fe608060405234801561001057600080fd5b50600436106101215760003560e01c806357a834e0116100ad57806394758218116100715780639475821814610387578063a1bbfc05146103ba578063ac2f0074146103d6578063d4bc5e911461040a578063f20f4e231461043e57610121565b806357a834e0146102a85780635ed5d2c3146102d85780635f8fd579146102f457806360d505961461032457806391f366331461035757610121565b806333b4097b116100f457806333b4097b146101c457806335bbe70e146101f55780633d9e100c146102135780634b2966ec1461024457806353fa2e641461027457610121565b806308829408146101265780630d0b800f1461014257806314a0069a1461017257806332b633fa146101a6575b600080fd5b610140600480360381019061013b9190612981565b61045a565b005b61015c60048036038101906101579190612a3c565b61057d565b6040516101699190612ae8565b60405180910390f35b61018c60048036038101906101879190612b0a565b610629565b60405161019d959493929190612b53565b60405180910390f35b6101ae6109d3565b6040516101bb9190612d6f565b60405180910390f35b6101de60048036038101906101d99190612a3c565b610d09565b6040516101ec929190612e40565b60405180910390f35b6101fd610ee7565b60405161020a9190612fcb565b60405180910390f35b61022d60048036038101906102289190612a3c565b6112af565b60405161023b929190613017565b60405180910390f35b61025e60048036038101906102599190612a3c565b6112e0565b60405161026b9190613040565b60405180910390f35b61028e60048036038101906102899190612b0a565b6112fe565b60405161029f959493929190612b53565b60405180910390f35b6102c260048036038101906102bd919061305b565b6115f2565b6040516102cf91906130b7565b60405180910390f35b6102f260048036038101906102ed91906130d2565b61163c565b005b61030e60048036038101906103099190612a3c565b61179d565b60405161031b919061330c565b60405180910390f35b61033e60048036038101906103399190612a3c565b611acd565b60405161034e949392919061332e565b60405180910390f35b610371600480360381019061036c9190613388565b611ca5565b60405161037e9190613040565b60405180910390f35b6103a1600480360381019061039c9190612a3c565b611cd7565b6040516103b1949392919061332e565b60405180910390f35b6103d460048036038101906103cf91906133c8565b611f49565b005b6103f060048036038101906103eb9190612a3c565b61211b565b604051610401959493929190613437565b60405180910390f35b610424600480360381019061041f9190612a3c565b612371565b604051610435959493929190613437565b60405180910390f35b610458600480360381019061045391906134a6565b61267f565b005b604051806080016040528085815260200184815260200183815260200182815250600260008681526020019081526020016000206000820151816000015560208201518160010190816104ad9190613789565b5060408201518160020190816104c39190613789565b5060608201518160030190816104d99190613789565b50905050600360405180608001604052808681526020018581526020018481526020018381525090806001815401808255809150506001900390600052602060002090600402016000909190919091506000820151816000015560208201518160010190816105489190613789565b50604082015181600201908161055e9190613789565b5060608201518160030190816105749190613789565b50505050505050565b6001818154811061058d57600080fd5b9060005260206000200160009150905080546105a8906135ac565b80601f01602080910402602001604051908101604052809291908181526020018280546105d4906135ac565b80156106215780601f106105f657610100808354040283529160200191610621565b820191906000526020600020905b81548152906001019060200180831161060457829003601f168201915b505050505081565b6060806060806060600080876040516106429190613897565b9081526020016040518091039020600101805461065e906135ac565b9050116106a0576040517f08c379a0000000000000000000000000000000000000000000000000000000008152600401610697906138fa565b60405180910390fd5b600080876040516106b19190613897565b90815260200160405180910390206040518060a00160405290816000820180546106da906135ac565b80601f0160208091040260200160405190810160405280929190818152602001828054610706906135ac565b80156107535780601f1061072857610100808354040283529160200191610753565b820191906000526020600020905b81548152906001019060200180831161073657829003601f168201915b5050505050815260200160018201805461076c906135ac565b80601f0160208091040260200160405190810160405280929190818152602001828054610798906135ac565b80156107e55780601f106107ba576101008083540402835291602001916107e5565b820191906000526020600020905b8154815290600101906020018083116107c857829003601f168201915b505050505081526020016002820180546107fe906135ac565b80601f016020809104026020016040519081016040528092919081815260200182805461082a906135ac565b80156108775780601f1061084c57610100808354040283529160200191610877565b820191906000526020600020905b81548152906001019060200180831161085a57829003601f168201915b50505050508152602001600382018054610890906135ac565b80601f01602080910402602001604051908101604052809291908181526020018280546108bc906135ac565b80156109095780601f106108de57610100808354040283529160200191610909565b820191906000526020600020905b8154815290600101906020018083116108ec57829003601f168201915b50505050508152602001600482018054610922906135ac565b80601f016020809104026020016040519081016040528092919081815260200182805461094e906135ac565b801561099b5780601f106109705761010080835404028352916020019161099b565b820191906000526020600020905b81548152906001019060200180831161097e57829003601f168201915b505050505081525050905080600001518160200151826040015183606001518460800151955095509550955095505091939590929450565b6060600060068054905067ffffffffffffffff8111156109f6576109f5612856565b5b604051908082528060200260200182016040528015610a2f57816020015b610a1c61276b565b815260200190600190039081610a145790505b50905060005b600680549050811015610d01576005600060068381548110610a5a57610a5961391a565b5b906000526020600020015481526020019081526020016000206040518060a001604052908160008201548152602001600182018054610a98906135ac565b80601f0160208091040260200160405190810160405280929190818152602001828054610ac4906135ac565b8015610b115780601f10610ae657610100808354040283529160200191610b11565b820191906000526020600020905b815481529060010190602001808311610af457829003601f168201915b50505050508152602001600282018054610b2a906135ac565b80601f0160208091040260200160405190810160405280929190818152602001828054610b56906135ac565b8015610ba35780601f10610b7857610100808354040283529160200191610ba3565b820191906000526020600020905b815481529060010190602001808311610b8657829003601f168201915b50505050508152602001600382018054610bbc906135ac565b80601f0160208091040260200160405190810160405280929190818152602001828054610be8906135ac565b8015610c355780601f10610c0a57610100808354040283529160200191610c35565b820191906000526020600020905b815481529060010190602001808311610c1857829003601f168201915b50505050508152602001600482018054610c4e906135ac565b80601f0160208091040260200160405190810160405280929190818152602001828054610c7a906135ac565b8015610cc75780601f10610c9c57610100808354040283529160200191610cc7565b820191906000526020600020905b815481529060010190602001808311610caa57829003601f168201915b505050505081525050828281518110610ce357610ce261391a565b5b60200260200101819052508080610cf990613978565b915050610a35565b508091505090565b6060806007600084815260200190815260200160002060030160009054906101000a900460ff16610d6f576040517f08c379a0000000000000000000000000000000000000000000000000000000008152600401610d6690613a0c565b60405180910390fd5b6000600760008581526020019081526020016000206002018054905090508067ffffffffffffffff811115610da757610da6612856565b5b604051908082528060200260200182016040528015610dd55781602001602082028036833780820191505090505b5092508067ffffffffffffffff811115610df257610df1612856565b5b604051908082528060200260200182016040528015610e205781602001602082028036833780820191505090505b50915060005b81811015610ee0576000600760008781526020019081526020016000206002018281548110610e5857610e5761391a565b5b9060005260206000200154905080858381518110610e7957610e7861391a565b5b60200260200101818152505060076000878152602001908152602001600020600101600082815260200190815260200160002054848381518110610ec057610ebf61391a565b5b602002602001018181525050508080610ed890613978565b915050610e26565b5050915091565b6060600060018054905067ffffffffffffffff811115610f0a57610f09612856565b5b604051908082528060200260200182016040528015610f4357816020015b610f3061279a565b815260200190600190039081610f285790505b50905060005b6001805490508110156112a757600060018281548110610f6c57610f6b61391a565b5b90600052602060002001604051610f839190613aaf565b90815260200160405180910390206040518060a0016040529081600082018054610fac906135ac565b80601f0160208091040260200160405190810160405280929190818152602001828054610fd8906135ac565b80156110255780601f10610ffa57610100808354040283529160200191611025565b820191906000526020600020905b81548152906001019060200180831161100857829003601f168201915b5050505050815260200160018201805461103e906135ac565b80601f016020809104026020016040519081016040528092919081815260200182805461106a906135ac565b80156110b75780601f1061108c576101008083540402835291602001916110b7565b820191906000526020600020905b81548152906001019060200180831161109a57829003601f168201915b505050505081526020016002820180546110d0906135ac565b80601f01602080910402602001604051908101604052809291908181526020018280546110fc906135ac565b80156111495780601f1061111e57610100808354040283529160200191611149565b820191906000526020600020905b81548152906001019060200180831161112c57829003601f168201915b50505050508152602001600382018054611162906135ac565b80601f016020809104026020016040519081016040528092919081815260200182805461118e906135ac565b80156111db5780601f106111b0576101008083540402835291602001916111db565b820191906000526020600020905b8154815290600101906020018083116111be57829003601f168201915b505050505081526020016004820180546111f4906135ac565b80601f0160208091040260200160405190810160405280929190818152602001828054611220906135ac565b801561126d5780601f106112425761010080835404028352916020019161126d565b820191906000526020600020905b81548152906001019060200180831161125057829003601f168201915b5050505050815250508282815181106112895761128861391a565b5b6020026020010181905250808061129f90613978565b915050610f49565b508091505090565b60076020528060005260406000206000915090508060000154908060030160009054906101000a900460ff16905082565b60086020528060005260406000206000915090508060000154905081565b600081805160208101820180518482526020830160208501208183528095505050505050600091509050806000018054611337906135ac565b80601f0160208091040260200160405190810160405280929190818152602001828054611363906135ac565b80156113b05780601f10611385576101008083540402835291602001916113b0565b820191906000526020600020905b81548152906001019060200180831161139357829003601f168201915b5050505050908060010180546113c5906135ac565b80601f01602080910402602001604051908101604052809291908181526020018280546113f1906135ac565b801561143e5780601f106114135761010080835404028352916020019161143e565b820191906000526020600020905b81548152906001019060200180831161142157829003601f168201915b505050505090806002018054611453906135ac565b80601f016020809104026020016040519081016040528092919081815260200182805461147f906135ac565b80156114cc5780601f106114a1576101008083540402835291602001916114cc565b820191906000526020600020905b8154815290600101906020018083116114af57829003601f168201915b5050505050908060030180546114e1906135ac565b80601f016020809104026020016040519081016040528092919081815260200182805461150d906135ac565b801561155a5780601f1061152f5761010080835404028352916020019161155a565b820191906000526020600020905b81548152906001019060200180831161153d57829003601f168201915b50505050509080600401805461156f906135ac565b80601f016020809104026020016040519081016040528092919081815260200182805461159b906135ac565b80156115e85780601f106115bd576101008083540402835291602001916115e8565b820191906000526020600020905b8154815290600101906020018083116115cb57829003601f168201915b5050505050905085565b600060086000848152602001908152602001600020600101826040516116189190613897565b908152602001604051809103902060009054906101000a900460ff16905092915050565b6000808560405161164d9190613897565b90815260200160405180910390206001018054611669906135ac565b9050146116ab576040517f08c379a00000000000000000000000000000000000000000000000000000000081526004016116a290613b38565b60405180910390fd5b6040518060a00160405280868152602001858152602001848152602001838152602001828152506000856040516116e29190613897565b908152602001604051809103902060008201518160000190816117059190613789565b50602082015181600101908161171b9190613789565b5060408201518160020190816117319190613789565b5060608201518160030190816117479190613789565b50608082015181600401908161175d9190613789565b509050506001849080600181540180825580915050600190039060005260206000200160009091909190915090816117959190613789565b505050505050565b60606000805b6003805490508110156117fe5783600382815481106117c5576117c461391a565b5b906000526020600020906004020160000154036117eb5781806117e790613978565b9250505b80806117f690613978565b9150506117a3565b5060008167ffffffffffffffff81111561181b5761181a612856565b5b60405190808252806020026020018201604052801561185457816020015b6118416127c9565b8152602001906001900390816118395790505b5090506000805b600380549050811015611ac157856003828154811061187d5761187c61391a565b5b90600052602060002090600402016000015403611aae57600381815481106118a8576118a761391a565b5b9060005260206000209060040201604051806080016040529081600082015481526020016001820180546118db906135ac565b80601f0160208091040260200160405190810160405280929190818152602001828054611907906135ac565b80156119545780601f1061192957610100808354040283529160200191611954565b820191906000526020600020905b81548152906001019060200180831161193757829003601f168201915b5050505050815260200160028201805461196d906135ac565b80601f0160208091040260200160405190810160405280929190818152602001828054611999906135ac565b80156119e65780601f106119bb576101008083540402835291602001916119e6565b820191906000526020600020905b8154815290600101906020018083116119c957829003601f168201915b505050505081526020016003820180546119ff906135ac565b80601f0160208091040260200160405190810160405280929190818152602001828054611a2b906135ac565b8015611a785780601f10611a4d57610100808354040283529160200191611a78565b820191906000526020600020905b815481529060010190602001808311611a5b57829003601f168201915b505050505081525050838381518110611a9457611a9361391a565b5b60200260200101819052508180611aaa90613978565b9250505b8080611ab990613978565b91505061185b565b50819350505050919050565b60038181548110611add57600080fd5b9060005260206000209060040201600091509050806000015490806001018054611b06906135ac565b80601f0160208091040260200160405190810160405280929190818152602001828054611b32906135ac565b8015611b7f5780601f10611b5457610100808354040283529160200191611b7f565b820191906000526020600020905b815481529060010190602001808311611b6257829003601f168201915b505050505090806002018054611b94906135ac565b80601f0160208091040260200160405190810160405280929190818152602001828054611bc0906135ac565b8015611c0d5780601f10611be257610100808354040283529160200191611c0d565b820191906000526020600020905b815481529060010190602001808311611bf057829003601f168201915b505050505090806003018054611c22906135ac565b80601f0160208091040260200160405190810160405280929190818152602001828054611c4e906135ac565b8015611c9b5780601f10611c7057610100808354040283529160200191611c9b565b820191906000526020600020905b815481529060010190602001808311611c7e57829003601f168201915b5050505050905084565b600060076000848152602001908152602001600020600101600083815260200190815260200160002054905092915050565b600060608060606000600260008781526020019081526020016000206001018054611d01906135ac565b905011611d43576040517f08c379a0000000000000000000000000000000000000000000000000000000008152600401611d3a90613ba4565b60405180910390fd5b60006002600087815260200190815260200160002060405180608001604052908160008201548152602001600182018054611d7d906135ac565b80601f0160208091040260200160405190810160405280929190818152602001828054611da9906135ac565b8015611df65780601f10611dcb57610100808354040283529160200191611df6565b820191906000526020600020905b815481529060010190602001808311611dd957829003601f168201915b50505050508152602001600282018054611e0f906135ac565b80601f0160208091040260200160405190810160405280929190818152602001828054611e3b906135ac565b8015611e885780601f10611e5d57610100808354040283529160200191611e88565b820191906000526020600020905b815481529060010190602001808311611e6b57829003601f168201915b50505050508152602001600382018054611ea1906135ac565b80601f0160208091040260200160405190810160405280929190818152602001828054611ecd906135ac565b8015611f1a5780601f10611eef57610100808354040283529160200191611f1a565b820191906000526020600020905b815481529060010190602001808311611efd57829003601f168201915b505050505081525050905080600001518160200151826040015183606001519450945094509450509193509193565b6008600084815260200190815260200160002060010181604051611f6d9190613897565b908152602001604051809103902060009054906101000a900460ff1615611fc9576040517f08c379a0000000000000000000000000000000000000000000000000000000008152600401611fc090613c10565b60405180910390fd5b6007600084815260200190815260200160002060030160009054906101000a900460ff166120215760016007600085815260200190815260200160002060030160006101000a81548160ff0219169083151502179055505b6000600760008581526020019081526020016000206001016000848152602001908152602001600020540361208e57600760008481526020019081526020016000206002018290806001815401808255809150506001900390600052602060002001600090919091909150555b60076000848152602001908152602001600020600101600083815260200190815260200160002060008154809291906120c690613978565b9190505550600160086000858152602001908152602001600020600101826040516120f19190613897565b908152602001604051809103902060006101000a81548160ff021916908315150217905550505050565b6005602052806000526040600020600091509050806000015490806001018054612144906135ac565b80601f0160208091040260200160405190810160405280929190818152602001828054612170906135ac565b80156121bd5780601f10612192576101008083540402835291602001916121bd565b820191906000526020600020905b8154815290600101906020018083116121a057829003601f168201915b5050505050908060020180546121d2906135ac565b80601f01602080910402602001604051908101604052809291908181526020018280546121fe906135ac565b801561224b5780601f106122205761010080835404028352916020019161224b565b820191906000526020600020905b81548152906001019060200180831161222e57829003601f168201915b505050505090806003018054612260906135ac565b80601f016020809104026020016040519081016040528092919081815260200182805461228c906135ac565b80156122d95780601f106122ae576101008083540402835291602001916122d9565b820191906000526020600020905b8154815290600101906020018083116122bc57829003601f168201915b5050505050908060040180546122ee906135ac565b80601f016020809104026020016040519081016040528092919081815260200182805461231a906135ac565b80156123675780601f1061233c57610100808354040283529160200191612367565b820191906000526020600020905b81548152906001019060200180831161234a57829003601f168201915b5050505050905085565b6000606080606080600060056000888152602001908152602001600020600101805461239c906135ac565b9050116123de576040517f08c379a00000000000000000000000000000000000000000000000000000000081526004016123d590613c7c565b60405180910390fd5b6000600560008881526020019081526020016000206040518060a001604052908160008201548152602001600182018054612418906135ac565b80601f0160208091040260200160405190810160405280929190818152602001828054612444906135ac565b80156124915780601f1061246657610100808354040283529160200191612491565b820191906000526020600020905b81548152906001019060200180831161247457829003601f168201915b505050505081526020016002820180546124aa906135ac565b80601f01602080910402602001604051908101604052809291908181526020018280546124d6906135ac565b80156125235780601f106124f857610100808354040283529160200191612523565b820191906000526020600020905b81548152906001019060200180831161250657829003601f168201915b5050505050815260200160038201805461253c906135ac565b80601f0160208091040260200160405190810160405280929190818152602001828054612568906135ac565b80156125b55780601f1061258a576101008083540402835291602001916125b5565b820191906000526020600020905b81548152906001019060200180831161259857829003601f168201915b505050505081526020016004820180546125ce906135ac565b80601f01602080910402602001604051908101604052809291908181526020018280546125fa906135ac565b80156126475780601f1061261c57610100808354040283529160200191612647565b820191906000526020600020905b81548152906001019060200180831161262a57829003601f168201915b505050505081525050905080600001518160200151826040015183606001518460800151955095509550955095505091939590929450565b6004600081548092919061269290613978565b91905055506040518060a001604052806004548152602001858152602001848152602001838152602001828152506005600060045481526020019081526020016000206000820151816000015560208201518160010190816126f49190613789565b50604082015181600201908161270a9190613789565b5060608201518160030190816127209190613789565b5060808201518160040190816127369190613789565b509050506006600454908060018154018082558091505060019003906000526020600020016000909190919091505550505050565b6040518060a0016040528060008152602001606081526020016060815260200160608152602001606081525090565b6040518060a0016040528060608152602001606081526020016060815260200160608152602001606081525090565b6040518060800160405280600081526020016060815260200160608152602001606081525090565b6000604051905090565b600080fd5b600080fd5b6000819050919050565b61281881612805565b811461282357600080fd5b50565b6000813590506128358161280f565b92915050565b600080fd5b600080fd5b6000601f19601f8301169050919050565b7f4e487b7100000000000000000000000000000000000000000000000000000000600052604160045260246000fd5b61288e82612845565b810181811067ffffffffffffffff821117156128ad576128ac612856565b5b80604052505050565b60006128c06127f1565b90506128cc8282612885565b919050565b600067ffffffffffffffff8211156128ec576128eb612856565b5b6128f582612845565b9050602081019050919050565b82818337600083830152505050565b600061292461291f846128d1565b6128b6565b9050828152602081018484840111156129405761293f612840565b5b61294b848285612902565b509392505050565b600082601f8301126129685761296761283b565b5b8135612978848260208601612911565b91505092915050565b6000806000806080858703121561299b5761299a6127fb565b5b60006129a987828801612826565b945050602085013567ffffffffffffffff8111156129ca576129c9612800565b5b6129d687828801612953565b935050604085013567ffffffffffffffff8111156129f7576129f6612800565b5b612a0387828801612953565b925050606085013567ffffffffffffffff811115612a2457612a23612800565b5b612a3087828801612953565b91505092959194509250565b600060208284031215612a5257612a516127fb565b5b6000612a6084828501612826565b91505092915050565b600081519050919050565b600082825260208201905092915050565b60005b83811015612aa3578082015181840152602081019050612a88565b60008484015250505050565b6000612aba82612a69565b612ac48185612a74565b9350612ad4818560208601612a85565b612add81612845565b840191505092915050565b60006020820190508181036000830152612b028184612aaf565b905092915050565b600060208284031215612b2057612b1f6127fb565b5b600082013567ffffffffffffffff811115612b3e57612b3d612800565b5b612b4a84828501612953565b91505092915050565b600060a0820190508181036000830152612b6d8188612aaf565b90508181036020830152612b818187612aaf565b90508181036040830152612b958186612aaf565b90508181036060830152612ba98185612aaf565b90508181036080830152612bbd8184612aaf565b90509695505050505050565b600081519050919050565b600082825260208201905092915050565b6000819050602082019050919050565b612bfe81612805565b82525050565b600082825260208201905092915050565b6000612c2082612a69565b612c2a8185612c04565b9350612c3a818560208601612a85565b612c4381612845565b840191505092915050565b600060a083016000830151612c666000860182612bf5565b5060208301518482036020860152612c7e8282612c15565b91505060408301518482036040860152612c988282612c15565b91505060608301518482036060860152612cb28282612c15565b91505060808301518482036080860152612ccc8282612c15565b9150508091505092915050565b6000612ce58383612c4e565b905092915050565b6000602082019050919050565b6000612d0582612bc9565b612d0f8185612bd4565b935083602082028501612d2185612be5565b8060005b85811015612d5d5784840389528151612d3e8582612cd9565b9450612d4983612ced565b925060208a01995050600181019050612d25565b50829750879550505050505092915050565b60006020820190508181036000830152612d898184612cfa565b905092915050565b600081519050919050565b600082825260208201905092915050565b6000819050602082019050919050565b6000612dc98383612bf5565b60208301905092915050565b6000602082019050919050565b6000612ded82612d91565b612df78185612d9c565b9350612e0283612dad565b8060005b83811015612e33578151612e1a8882612dbd565b9750612e2583612dd5565b925050600181019050612e06565b5085935050505092915050565b60006040820190508181036000830152612e5a8185612de2565b90508181036020830152612e6e8184612de2565b90509392505050565b600081519050919050565b600082825260208201905092915050565b6000819050602082019050919050565b600060a0830160008301518482036000860152612ec08282612c15565b91505060208301518482036020860152612eda8282612c15565b91505060408301518482036040860152612ef48282612c15565b91505060608301518482036060860152612f0e8282612c15565b91505060808301518482036080860152612f288282612c15565b9150508091505092915050565b6000612f418383612ea3565b905092915050565b6000602082019050919050565b6000612f6182612e77565b612f6b8185612e82565b935083602082028501612f7d85612e93565b8060005b85811015612fb95784840389528151612f9a8582612f35565b9450612fa583612f49565b925060208a01995050600181019050612f81565b50829750879550505050505092915050565b60006020820190508181036000830152612fe58184612f56565b905092915050565b612ff681612805565b82525050565b60008115159050919050565b61301181612ffc565b82525050565b600060408201905061302c6000830185612fed565b6130396020830184613008565b9392505050565b60006020820190506130556000830184612fed565b92915050565b60008060408385031215613072576130716127fb565b5b600061308085828601612826565b925050602083013567ffffffffffffffff8111156130a1576130a0612800565b5b6130ad85828601612953565b9150509250929050565b60006020820190506130cc6000830184613008565b92915050565b600080600080600060a086880312156130ee576130ed6127fb565b5b600086013567ffffffffffffffff81111561310c5761310b612800565b5b61311888828901612953565b955050602086013567ffffffffffffffff81111561313957613138612800565b5b61314588828901612953565b945050604086013567ffffffffffffffff81111561316657613165612800565b5b61317288828901612953565b935050606086013567ffffffffffffffff81111561319357613192612800565b5b61319f88828901612953565b925050608086013567ffffffffffffffff8111156131c0576131bf612800565b5b6131cc88828901612953565b9150509295509295909350565b600081519050919050565b600082825260208201905092915050565b6000819050602082019050919050565b600060808301600083015161321d6000860182612bf5565b50602083015184820360208601526132358282612c15565b9150506040830151848203604086015261324f8282612c15565b915050606083015184820360608601526132698282612c15565b9150508091505092915050565b60006132828383613205565b905092915050565b6000602082019050919050565b60006132a2826131d9565b6132ac81856131e4565b9350836020820285016132be856131f5565b8060005b858110156132fa57848403895281516132db8582613276565b94506132e68361328a565b925060208a019950506001810190506132c2565b50829750879550505050505092915050565b600060208201905081810360008301526133268184613297565b905092915050565b60006080820190506133436000830187612fed565b81810360208301526133558186612aaf565b905081810360408301526133698185612aaf565b9050818103606083015261337d8184612aaf565b905095945050505050565b6000806040838503121561339f5761339e6127fb565b5b60006133ad85828601612826565b92505060206133be85828601612826565b9150509250929050565b6000806000606084860312156133e1576133e06127fb565b5b60006133ef86828701612826565b935050602061340086828701612826565b925050604084013567ffffffffffffffff81111561342157613420612800565b5b61342d86828701612953565b9150509250925092565b600060a08201905061344c6000830188612fed565b818103602083015261345e8187612aaf565b905081810360408301526134728186612aaf565b905081810360608301526134868185612aaf565b9050818103608083015261349a8184612aaf565b90509695505050505050565b600080600080608085870312156134c0576134bf6127fb565b5b600085013567ffffffffffffffff8111156134de576134dd612800565b5b6134ea87828801612953565b945050602085013567ffffffffffffffff81111561350b5761350a612800565b5b61351787828801612953565b935050604085013567ffffffffffffffff81111561353857613537612800565b5b61354487828801612953565b925050606085013567ffffffffffffffff81111561356557613564612800565b5b61357187828801612953565b91505092959194509250565b7f4e487b7100000000000000000000000000000000000000000000000000000000600052602260045260246000fd5b600060028204905060018216806135c457607f821691505b6020821081036135d7576135d661357d565b5b50919050565b60008190508160005260206000209050919050565b60006020601f8301049050919050565b600082821b905092915050565b60006008830261363f7fffffffffffffffffffffffffffffffffffffffffffffffffffffffffffffffff82613602565b6136498683613602565b95508019841693508086168417925050509392505050565b6000819050919050565b600061368661368161367c84612805565b613661565b612805565b9050919050565b6000819050919050565b6136a08361366b565b6136b46136ac8261368d565b84845461360f565b825550505050565b600090565b6136c96136bc565b6136d4818484613697565b505050565b5b818110156136f8576136ed6000826136c1565b6001810190506136da565b5050565b601f82111561373d5761370e816135dd565b613717846135f2565b81016020851015613726578190505b61373a613732856135f2565b8301826136d9565b50505b505050565b600082821c905092915050565b600061376060001984600802613742565b1980831691505092915050565b6000613779838361374f565b9150826002028217905092915050565b61379282612a69565b67ffffffffffffffff8111156137ab576137aa612856565b5b6137b582546135ac565b6137c08282856136fc565b600060209050601f8311600181146137f357600084156137e1578287015190505b6137eb858261376d565b865550613853565b601f198416613801866135dd565b60005b8281101561382957848901518255600182019150602085019450602081019050613804565b868310156138465784890151613842601f89168261374f565b8355505b6001600288020188555050505b505050505050565b600081905092915050565b600061387182612a69565b61387b818561385b565b935061388b818560208601612a85565b80840191505092915050565b60006138a38284613866565b915081905092915050565b7f566f746572206e6f742072656769737465726564000000000000000000000000600082015250565b60006138e4601483612a74565b91506138ef826138ae565b602082019050919050565b60006020820190508181036000830152613913816138d7565b9050919050565b7f4e487b7100000000000000000000000000000000000000000000000000000000600052603260045260246000fd5b7f4e487b7100000000000000000000000000000000000000000000000000000000600052601160045260246000fd5b600061398382612805565b91507fffffffffffffffffffffffffffffffffffffffffffffffffffffffffffffffff82036139b5576139b4613949565b5b600182019050919050565b7f506f6c6c20646f6573206e6f7420657869737421000000000000000000000000600082015250565b60006139f6601483612a74565b9150613a01826139c0565b602082019050919050565b60006020820190508181036000830152613a25816139e9565b9050919050565b60008154613a39816135ac565b613a43818661385b565b94506001821660008114613a5e5760018114613a7357613aa6565b60ff1983168652811515820286019350613aa6565b613a7c856135dd565b60005b83811015613a9e57815481890152600182019150602081019050613a7f565b838801955050505b50505092915050565b6000613abb8284613a2c565b915081905092915050565b7f566f74657220616c72656164792072656769737465726564207769746820746860008201527f697320416164686172206e756d62657200000000000000000000000000000000602082015250565b6000613b22603083612a74565b9150613b2d82613ac6565b604082019050919050565b60006020820190508181036000830152613b5181613b15565b9050919050565b7f506172747920646f6573206e6f74206578697374000000000000000000000000600082015250565b6000613b8e601483612a74565b9150613b9982613b58565b602082019050919050565b60006020820190508181036000830152613bbd81613b81565b9050919050565b7f416c726561647920766f74656421000000000000000000000000000000000000600082015250565b6000613bfa600e83612a74565b9150613c0582613bc4565b602082019050919050565b60006020820190508181036000830152613c2981613bed565b9050919050565b7f506f6c6c20646f6573206e6f7420657869737400000000000000000000000000600082015250565b6000613c66601383612a74565b9150613c7182613c30565b602082019050919050565b60006020820190508181036000830152613c9581613c59565b905091905056fea2646970667358221220ed9126a2350a5559560a476e99579cd793dbd629476dde76dc4609e880d10a3c64736f6c63430008130033",
  "immutableReferences": {},
  "source": "// SPDX-License-Identifier: MIT\npragma solidity >=0.4.22 <0.9.0;\n\ncontract Voting {\n\n    struct Voter {\n        string fullName;\n        string aadharNumber;\n        string irisImagePath;\n        string email;\n        string password;\n    }\n\n    struct Party {\n        uint id;\n        string partyName;\n        string partyLeader;\n        string symbolPath;\n    }\n\n    struct Poll {\n        uint pollId;\n        string pollName;\n        string pollDate;\n        string startTime;\n        string endTime;\n    }\n\n    mapping(string => Voter) public voters;\n    string[] public voterAadhars;\n\n    mapping(uint => Party) private parties; // Store parties by ID\n    Party[] public allParties;\n\n    uint private pollCounter = 0;  // Auto-incrementing poll ID\n    mapping(uint => Poll) public polls;\n    uint[] private pollIds;  // To track all poll IDs\n\n    function registerVoter(\n        string memory _fullName,\n        string memory _aadharNumber,\n        string memory _irisImagePath,\n        string memory _email,\n        string memory _password\n    ) public {\n        require(bytes(voters[_aadharNumber].aadharNumber).length == 0, \"Voter already registered with this Aadhar number\");\n\n        voters[_aadharNumber] = Voter({\n            fullName: _fullName,\n            aadharNumber: _aadharNumber,\n            irisImagePath: _irisImagePath,\n            email: _email,\n            password: _password\n        });\n\n        voterAadhars.push(_aadharNumber);\n    }\n\n    function getVoter(string memory aadhar) public view returns (string memory, string memory, string memory, string memory, string memory) {\n        require(bytes(voters[aadhar].aadharNumber).length > 0, \"Voter not registered\");\n\n        Voter memory voter = voters[aadhar];\n        return (voter.fullName, voter.aadharNumber, voter.irisImagePath, voter.email, voter.password);\n    }\n\n    // New function to get all registered voters\n    function getAllVoters() public view returns (Voter[] memory) {\n        Voter[] memory allVoters = new Voter[](voterAadhars.length);\n        for (uint i = 0; i < voterAadhars.length; i++) {\n            allVoters[i] = voters[voterAadhars[i]];\n        }\n        return allVoters;\n    }\n\n    function addParty(uint _id, string memory _partyName, string memory _partyLeader, string memory _symbolPath) public {\n        parties[_id] = Party(_id, _partyName, _partyLeader, _symbolPath);\n        allParties.push(Party(_id, _partyName, _partyLeader, _symbolPath));\n    }\n\n    function getParty(uint _id) public view returns (uint, string memory, string memory, string memory) {\n        require(bytes(parties[_id].partyName).length > 0, \"Party does not exist\");\n\n        Party memory party = parties[_id];\n        return (party.id, party.partyName, party.partyLeader, party.symbolPath);\n    }\n\n    function getPartiesByPartyId(uint partyId) public view returns (Party[] memory) {\n        uint count = 0;\n\n        for (uint i = 0; i < allParties.length; i++) {\n            if (allParties[i].id == partyId) {\n                count++;\n            }\n        }\n\n        Party[] memory result = new Party[](count);\n        uint index = 0;\n\n        for (uint i = 0; i < allParties.length; i++) {\n            if (allParties[i].id == partyId) {\n                result[index] = allParties[i];\n                index++;\n            }\n        }\n\n        return result;\n    }\n\n    function addPoll(string memory _pollName, string memory _pollDate, string memory _startTime, string memory _endTime) public {\n        pollCounter++;  \n\n        polls[pollCounter] = Poll(pollCounter, _pollName, _pollDate, _startTime, _endTime);\n        pollIds.push(pollCounter);\n    }\n\n    function getAllPolls() public view returns (Poll[] memory) {\n        Poll[] memory allPolls = new Poll[](pollIds.length);\n        for (uint i = 0; i < pollIds.length; i++) {\n            allPolls[i] = polls[pollIds[i]];\n        }\n        return allPolls;\n    }\n\n    function getPollById(uint _pollId) public view returns (uint, string memory, string memory, string memory, string memory) {\n        require(bytes(polls[_pollId].pollName).length > 0, \"Poll does not exist\");\n\n        Poll memory poll = polls[_pollId];\n        return (poll.pollId, poll.pollName, poll.pollDate, poll.startTime, poll.endTime);\n    }\n\n    struct Vote {\n        uint pollId;\n        mapping(uint => uint) partyVotes; // Maps partyId to vote count\n        uint[] partyIds; // List of all partyIds in the poll\n        bool initialized; // Flag to track if poll exists\n    }\n\n    struct PolledIds {\n        uint pollId;\n        mapping(string => bool) hasVoted; // Maps Aadhaar number to voting status\n    }\n\n    mapping(uint => Vote) public pollVotes; // Maps pollId to Vote struct\n    mapping(uint => PolledIds) public polledVoters; // Maps pollId to PolledIds struct\n\n    function vote(uint _pollId, uint _partyId, string memory _aadharNumber) public {\n        require(!polledVoters[_pollId].hasVoted[_aadharNumber], \"Already voted!\");\n\n        // Initialize poll if first vote\n        if (!pollVotes[_pollId].initialized) {\n            pollVotes[_pollId].initialized = true;\n        }\n\n        // Record vote\n        if (pollVotes[_pollId].partyVotes[_partyId] == 0) {\n            pollVotes[_pollId].partyIds.push(_partyId); // Track party ID\n        }\n        pollVotes[_pollId].partyVotes[_partyId]++;\n\n        // Mark Aadhaar as voted\n        polledVoters[_pollId].hasVoted[_aadharNumber] = true;\n\n    }\n\n    function getVotes(uint _pollId, uint _partyId) public view returns (uint) {\n        return pollVotes[_pollId].partyVotes[_partyId];\n    }\n\n    function hasVoted(uint _pollId, string memory _aadharNumber) public view returns (bool) {\n        return polledVoters[_pollId].hasVoted[_aadharNumber];\n    }\n\n    /// @notice Retrieves the poll results with party vote counts\n    /// @param _pollId The poll ID to fetch results for\n    /// @return partyIds Array of party IDs\n    /// @return voteCounts Array of corresponding vote counts\n    function getPollResults(uint _pollId) public view returns (uint[] memory partyIds, uint[] memory voteCounts) {\n        require(pollVotes[_pollId].initialized, \"Poll does not exist!\");\n\n        uint totalParties = pollVotes[_pollId].partyIds.length;\n        partyIds = new uint[](totalParties);\n        voteCounts = new uint[](totalParties);\n\n        for (uint i = 0; i < totalParties; i++) {\n            uint partyId = pollVotes[_pollId].partyIds[i];\n            partyIds[i] = partyId;\n            voteCounts[i] = pollVotes[_pollId].partyVotes[partyId];\n        }\n\n        return (partyIds, voteCounts);\n    }\n\n}\n",
  "sourcePath": "E:\\BITS-2025\\Blockchain integrated voting app\\contracts\\voting.sol",
  "compiler": {
    "name": "solc",
    "version": "0.8.19+commit.7dd6d404.Emscripten.clang"
  },
  "schemaVersion": "3.4.16",
  "updatedAt": "2025-02-23T15:31:10.806Z",
  "networkType": "ethereum",
  "devdoc": {
    "kind": "dev",
    "methods": {
      "getPollResults(uint256)": {
        "params": {
          "_pollId": "The poll ID to fetch results for"
        },
        "returns": {
          "partyIds": "Array of party IDs",
          "voteCounts": "Array of corresponding vote counts"
        }
      }
    },
    "version": 1
  },
  "userdoc": {
    "kind": "user",
    "methods": {
      "getPollResults(uint256)": {
        "notice": "Retrieves the poll results with party vote counts"
      }
    },
    "version": 1
  }
}