{
  "contractName": "voting",
  "abi": [
    {
      "inputs": [
        {
          "internalType": "uint256",
          "name": "",
          "type": "uint256"
        }
      ],
      "name": "voterAadhars",
      "outputs": [
        {
          "internalType": "string",
          "name": "",
          "type": "string"
        }
      ],
      "stateMutability": "view",
      "type": "function",
      "constant": true
    },
    {
      "inputs": [
        {
          "internalType": "string",
          "name": "",
          "type": "string"
        }
      ],
      "name": "voters",
      "outputs": [
        {
          "internalType": "string",
          "name": "fullName",
          "type": "string"
        },
        {
          "internalType": "string",
          "name": "aadharNumber",
          "type": "string"
        },
        {
          "internalType": "string",
          "name": "irisImagePath",
          "type": "string"
        }
      ],
      "stateMutability": "view",
      "type": "function",
      "constant": true
    },
    {
      "inputs": [
        {
          "internalType": "string",
          "name": "_fullName",
          "type": "string"
        },
        {
          "internalType": "string",
          "name": "_aadharNumber",
          "type": "string"
        },
        {
          "internalType": "string",
          "name": "_irisImagePath",
          "type": "string"
        }
      ],
      "name": "registerVoter",
      "outputs": [],
      "stateMutability": "nonpayable",
      "type": "function"
    },
    {
      "inputs": [
        {
          "internalType": "string",
          "name": "aadhar",
          "type": "string"
        }
      ],
      "name": "getVoter",
      "outputs": [
        {
          "internalType": "string",
          "name": "",
          "type": "string"
        },
        {
          "internalType": "string",
          "name": "",
          "type": "string"
        },
        {
          "internalType": "string",
          "name": "",
          "type": "string"
        }
      ],
      "stateMutability": "view",
      "type": "function",
      "constant": true
    }
  ],
  "bytecode": "0x608060405234801561001057600080fd5b50610ef8806100206000396000f3fe608060405234801561001057600080fd5b506004361061004c5760003560e01c806307439509146100515780630d0b800f1461006d57806314a0069a1461009d57806353fa2e64146100cf575b600080fd5b61006b60048036038101906100669190610879565b610101565b005b61008760048036038101906100829190610956565b610228565b6040516100949190610a02565b60405180910390f35b6100b760048036038101906100b29190610a24565b6102d4565b6040516100c693929190610a6d565b60405180910390f35b6100e960048036038101906100e49190610a24565b610547565b6040516100f893929190610a6d565b60405180910390f35b600080836040516101129190610af5565b9081526020016040518091039020600101805461012e90610b3b565b905014610170576040517f08c379a000000000000000000000000000000000000000000000000000000000815260040161016790610bb8565b60405180910390fd5b60405180606001604052808481526020018381526020018281525060008360405161019b9190610af5565b908152602001604051809103902060008201518160000190816101be9190610d84565b5060208201518160010190816101d49190610d84565b5060408201518160020190816101ea9190610d84565b509050506001829080600181540180825580915050600190039060005260206000200160009091909190915090816102229190610d84565b50505050565b6001818154811061023857600080fd5b90600052602060002001600091509050805461025390610b3b565b80601f016020809104026020016040519081016040528092919081815260200182805461027f90610b3b565b80156102cc5780601f106102a1576101008083540402835291602001916102cc565b820191906000526020600020905b8154815290600101906020018083116102af57829003601f168201915b505050505081565b6060806060600080856040516102ea9190610af5565b9081526020016040518091039020600101805461030690610b3b565b905011610348576040517f08c379a000000000000000000000000000000000000000000000000000000000815260040161033f90610ea2565b60405180910390fd5b600080856040516103599190610af5565b908152602001604051809103902060405180606001604052908160008201805461038290610b3b565b80601f01602080910402602001604051908101604052809291908181526020018280546103ae90610b3b565b80156103fb5780601f106103d0576101008083540402835291602001916103fb565b820191906000526020600020905b8154815290600101906020018083116103de57829003601f168201915b5050505050815260200160018201805461041490610b3b565b80601f016020809104026020016040519081016040528092919081815260200182805461044090610b3b565b801561048d5780601f106104625761010080835404028352916020019161048d565b820191906000526020600020905b81548152906001019060200180831161047057829003601f168201915b505050505081526020016002820180546104a690610b3b565b80601f01602080910402602001604051908101604052809291908181526020018280546104d290610b3b565b801561051f5780601f106104f45761010080835404028352916020019161051f565b820191906000526020600020905b81548152906001019060200180831161050257829003601f168201915b5050505050815250509050806000015181602001518260400151935093509350509193909250565b60008180516020810182018051848252602083016020850120818352809550505050505060009150905080600001805461058090610b3b565b80601f01602080910402602001604051908101604052809291908181526020018280546105ac90610b3b565b80156105f95780601f106105ce576101008083540402835291602001916105f9565b820191906000526020600020905b8154815290600101906020018083116105dc57829003601f168201915b50505050509080600101805461060e90610b3b565b80601f016020809104026020016040519081016040528092919081815260200182805461063a90610b3b565b80156106875780601f1061065c57610100808354040283529160200191610687565b820191906000526020600020905b81548152906001019060200180831161066a57829003601f168201915b50505050509080600201805461069c90610b3b565b80601f01602080910402602001604051908101604052809291908181526020018280546106c890610b3b565b80156107155780601f106106ea57610100808354040283529160200191610715565b820191906000526020600020905b8154815290600101906020018083116106f857829003601f168201915b5050505050905083565b6000604051905090565b600080fd5b600080fd5b600080fd5b600080fd5b6000601f19601f8301169050919050565b7f4e487b7100000000000000000000000000000000000000000000000000000000600052604160045260246000fd5b6107868261073d565b810181811067ffffffffffffffff821117156107a5576107a461074e565b5b80604052505050565b60006107b861071f565b90506107c4828261077d565b919050565b600067ffffffffffffffff8211156107e4576107e361074e565b5b6107ed8261073d565b9050602081019050919050565b82818337600083830152505050565b600061081c610817846107c9565b6107ae565b90508281526020810184848401111561083857610837610738565b5b6108438482856107fa565b509392505050565b600082601f8301126108605761085f610733565b5b8135610870848260208601610809565b91505092915050565b60008060006060848603121561089257610891610729565b5b600084013567ffffffffffffffff8111156108b0576108af61072e565b5b6108bc8682870161084b565b935050602084013567ffffffffffffffff8111156108dd576108dc61072e565b5b6108e98682870161084b565b925050604084013567ffffffffffffffff81111561090a5761090961072e565b5b6109168682870161084b565b9150509250925092565b6000819050919050565b61093381610920565b811461093e57600080fd5b50565b6000813590506109508161092a565b92915050565b60006020828403121561096c5761096b610729565b5b600061097a84828501610941565b91505092915050565b600081519050919050565b600082825260208201905092915050565b60005b838110156109bd5780820151818401526020810190506109a2565b60008484015250505050565b60006109d482610983565b6109de818561098e565b93506109ee81856020860161099f565b6109f78161073d565b840191505092915050565b60006020820190508181036000830152610a1c81846109c9565b905092915050565b600060208284031215610a3a57610a39610729565b5b600082013567ffffffffffffffff811115610a5857610a5761072e565b5b610a648482850161084b565b91505092915050565b60006060820190508181036000830152610a8781866109c9565b90508181036020830152610a9b81856109c9565b90508181036040830152610aaf81846109c9565b9050949350505050565b600081905092915050565b6000610acf82610983565b610ad98185610ab9565b9350610ae981856020860161099f565b80840191505092915050565b6000610b018284610ac4565b915081905092915050565b7f4e487b7100000000000000000000000000000000000000000000000000000000600052602260045260246000fd5b60006002820490506001821680610b5357607f821691505b602082108103610b6657610b65610b0c565b5b50919050565b7f566f74657220616c726561647920726567697374657265640000000000000000600082015250565b6000610ba260188361098e565b9150610bad82610b6c565b602082019050919050565b60006020820190508181036000830152610bd181610b95565b9050919050565b60008190508160005260206000209050919050565b60006020601f8301049050919050565b600082821b905092915050565b600060088302610c3a7fffffffffffffffffffffffffffffffffffffffffffffffffffffffffffffffff82610bfd565b610c448683610bfd565b95508019841693508086168417925050509392505050565b6000819050919050565b6000610c81610c7c610c7784610920565b610c5c565b610920565b9050919050565b6000819050919050565b610c9b83610c66565b610caf610ca782610c88565b848454610c0a565b825550505050565b600090565b610cc4610cb7565b610ccf818484610c92565b505050565b5b81811015610cf357610ce8600082610cbc565b600181019050610cd5565b5050565b601f821115610d3857610d0981610bd8565b610d1284610bed565b81016020851015610d21578190505b610d35610d2d85610bed565b830182610cd4565b50505b505050565b600082821c905092915050565b6000610d5b60001984600802610d3d565b1980831691505092915050565b6000610d748383610d4a565b9150826002028217905092915050565b610d8d82610983565b67ffffffffffffffff811115610da657610da561074e565b5b610db08254610b3b565b610dbb828285610cf7565b600060209050601f831160018114610dee5760008415610ddc578287015190505b610de68582610d68565b865550610e4e565b601f198416610dfc86610bd8565b60005b82811015610e2457848901518255600182019150602085019450602081019050610dff565b86831015610e415784890151610e3d601f891682610d4a565b8355505b6001600288020188555050505b505050505050565b7f566f746572206e6f742072656769737465726564000000000000000000000000600082015250565b6000610e8c60148361098e565b9150610e9782610e56565b602082019050919050565b60006020820190508181036000830152610ebb81610e7f565b905091905056fea26469706673582212203d6935ab6622d7b7b22f1092e95eaae3139cc2d33dd347a28c02f6e8b8bedb7164736f6c63430008130033",
  "immutableReferences": {},
  "source": "// SPDX-License-Identifier: MIT\npragma solidity >=0.4.22 <0.9.0;\n\ncontract voting {\n  \n  struct Voter {\n        string fullName;\n        string aadharNumber;\n        string irisImagePath; // Stores only the image path, not the actual image\n    }\n\n    mapping(string => Voter) public voters;\n    string[] public voterAadhars;\n\n    function registerVoter(string memory _fullName, string memory _aadharNumber, string memory _irisImagePath) public {\n        require(bytes(voters[_aadharNumber].aadharNumber).length == 0, \"Voter already registered\");\n\n        voters[_aadharNumber] = Voter({\n            fullName: _fullName,\n            aadharNumber: _aadharNumber,\n            irisImagePath: _irisImagePath\n        });\n\n        voterAadhars.push(_aadharNumber);\n  }\n\n    function getVoter(string memory aadhar) public view returns (string memory, string memory, string memory) {\n        require(bytes(voters[aadhar].aadharNumber).length > 0, \"Voter not registered\");\n\n        Voter memory voter = voters[aadhar];\n        return (voter.fullName, voter.aadharNumber, voter.irisImagePath);\n    }\n}\n",
  "sourcePath": "E:\\BITS-2025\\Blockchain integrated voting app\\contracts\\voting.sol",
  "compiler": {
    "name": "solc",
    "version": "0.8.19+commit.7dd6d404.Emscripten.clang"
  },
  "schemaVersion": "3.4.16",
  "updatedAt": "2025-02-21T11:52:01.640Z",
  "networkType": "ethereum",
  "devdoc": {
    "kind": "dev",
    "methods": {},
    "version": 1
  },
  "userdoc": {
    "kind": "user",
    "methods": {},
    "version": 1
  }
}