{
  "contractName": "Voting",
  "abi": [
    {
      "inputs": [
        {
          "internalType": "uint256",
          "name": "",
          "type": "uint256"
        }
      ],
      "name": "allParties",
      "outputs": [
        {
          "internalType": "uint256",
          "name": "pollId",
          "type": "uint256"
        },
        {
          "internalType": "string",
          "name": "partyName",
          "type": "string"
        },
        {
          "internalType": "string",
          "name": "partyLeader",
          "type": "string"
        },
        {
          "internalType": "string",
          "name": "symbolPath",
          "type": "string"
        },
        {
          "internalType": "uint256",
          "name": "partyId",
          "type": "uint256"
        }
      ],
      "stateMutability": "view",
      "type": "function",
      "constant": true
    },
    {
      "inputs": [
        {
          "internalType": "uint256",
          "name": "",
          "type": "uint256"
        }
      ],
      "name": "pollVotes",
      "outputs": [
        {
          "internalType": "uint256",
          "name": "pollId",
          "type": "uint256"
        },
        {
          "internalType": "bool",
          "name": "initialized",
          "type": "bool"
        }
      ],
      "stateMutability": "view",
      "type": "function",
      "constant": true
    },
    {
      "inputs": [
        {
          "internalType": "uint256",
          "name": "",
          "type": "uint256"
        }
      ],
      "name": "polledVoters",
      "outputs": [
        {
          "internalType": "uint256",
          "name": "pollId",
          "type": "uint256"
        }
      ],
      "stateMutability": "view",
      "type": "function",
      "constant": true
    },
    {
      "inputs": [
        {
          "internalType": "uint256",
          "name": "",
          "type": "uint256"
        }
      ],
      "name": "polls",
      "outputs": [
        {
          "internalType": "uint256",
          "name": "pollId",
          "type": "uint256"
        },
        {
          "internalType": "string",
          "name": "pollName",
          "type": "string"
        },
        {
          "internalType": "string",
          "name": "pollDate",
          "type": "string"
        },
        {
          "internalType": "string",
          "name": "startTime",
          "type": "string"
        },
        {
          "internalType": "string",
          "name": "endTime",
          "type": "string"
        }
      ],
      "stateMutability": "view",
      "type": "function",
      "constant": true
    },
    {
      "inputs": [
        {
          "internalType": "uint256",
          "name": "",
          "type": "uint256"
        }
      ],
      "name": "voterAadhars",
      "outputs": [
        {
          "internalType": "string",
          "name": "",
          "type": "string"
        }
      ],
      "stateMutability": "view",
      "type": "function",
      "constant": true
    },
    {
      "inputs": [
        {
          "internalType": "string",
          "name": "",
          "type": "string"
        }
      ],
      "name": "voters",
      "outputs": [
        {
          "internalType": "uint256",
          "name": "id",
          "type": "uint256"
        },
        {
          "internalType": "string",
          "name": "fullName",
          "type": "string"
        },
        {
          "internalType": "string",
          "name": "aadharNumber",
          "type": "string"
        },
        {
          "internalType": "string",
          "name": "irisImagePath",
          "type": "string"
        },
        {
          "internalType": "string",
          "name": "email",
          "type": "string"
        },
        {
          "internalType": "string",
          "name": "password",
          "type": "string"
        }
      ],
      "stateMutability": "view",
      "type": "function",
      "constant": true
    },
    {
      "inputs": [
        {
          "internalType": "string",
          "name": "_fullName",
          "type": "string"
        },
        {
          "internalType": "string",
          "name": "_aadharNumber",
          "type": "string"
        },
        {
          "internalType": "string",
          "name": "_irisImagePath",
          "type": "string"
        },
        {
          "internalType": "string",
          "name": "_email",
          "type": "string"
        },
        {
          "internalType": "string",
          "name": "_password",
          "type": "string"
        }
      ],
      "name": "registerVoter",
      "outputs": [],
      "stateMutability": "nonpayable",
      "type": "function"
    },
    {
      "inputs": [
        {
          "internalType": "string",
          "name": "_email",
          "type": "string"
        },
        {
          "internalType": "string",
          "name": "_newPassword",
          "type": "string"
        }
      ],
      "name": "updateVoterByEmail",
      "outputs": [],
      "stateMutability": "nonpayable",
      "type": "function"
    },
    {
      "inputs": [
        {
          "internalType": "uint256",
          "name": "_pollId",
          "type": "uint256"
        }
      ],
      "name": "getPollById",
      "outputs": [
        {
          "internalType": "uint256",
          "name": "",
          "type": "uint256"
        },
        {
          "internalType": "string",
          "name": "",
          "type": "string"
        },
        {
          "internalType": "string",
          "name": "",
          "type": "string"
        },
        {
          "internalType": "string",
          "name": "",
          "type": "string"
        },
        {
          "internalType": "string",
          "name": "",
          "type": "string"
        }
      ],
      "stateMutability": "view",
      "type": "function",
      "constant": true
    },
    {
      "inputs": [
        {
          "internalType": "uint256",
          "name": "partyId",
          "type": "uint256"
        }
      ],
      "name": "getPartiesByPartyId",
      "outputs": [
        {
          "components": [
            {
              "internalType": "uint256",
              "name": "pollId",
              "type": "uint256"
            },
            {
              "internalType": "string",
              "name": "partyName",
              "type": "string"
            },
            {
              "internalType": "string",
              "name": "partyLeader",
              "type": "string"
            },
            {
              "internalType": "string",
              "name": "symbolPath",
              "type": "string"
            },
            {
              "internalType": "uint256",
              "name": "partyId",
              "type": "uint256"
            }
          ],
          "internalType": "struct Voting.Party[]",
          "name": "",
          "type": "tuple[]"
        }
      ],
      "stateMutability": "view",
      "type": "function",
      "constant": true
    },
    {
      "inputs": [
        {
          "internalType": "string",
          "name": "aadhar",
          "type": "string"
        }
      ],
      "name": "getVoter",
      "outputs": [
        {
          "internalType": "uint256",
          "name": "",
          "type": "uint256"
        },
        {
          "internalType": "string",
          "name": "",
          "type": "string"
        },
        {
          "internalType": "string",
          "name": "",
          "type": "string"
        },
        {
          "internalType": "string",
          "name": "",
          "type": "string"
        },
        {
          "internalType": "string",
          "name": "",
          "type": "string"
        },
        {
          "internalType": "string",
          "name": "",
          "type": "string"
        }
      ],
      "stateMutability": "view",
      "type": "function",
      "constant": true
    },
    {
      "inputs": [],
      "name": "getAllVoters",
      "outputs": [
        {
          "components": [
            {
              "internalType": "uint256",
              "name": "id",
              "type": "uint256"
            },
            {
              "internalType": "string",
              "name": "fullName",
              "type": "string"
            },
            {
              "internalType": "string",
              "name": "aadharNumber",
              "type": "string"
            },
            {
              "internalType": "string",
              "name": "irisImagePath",
              "type": "string"
            },
            {
              "internalType": "string",
              "name": "email",
              "type": "string"
            },
            {
              "internalType": "string",
              "name": "password",
              "type": "string"
            }
          ],
          "internalType": "struct Voting.Voter[]",
          "name": "",
          "type": "tuple[]"
        }
      ],
      "stateMutability": "view",
      "type": "function",
      "constant": true
    },
    {
      "inputs": [
        {
          "internalType": "uint256",
          "name": "_id",
          "type": "uint256"
        },
        {
          "internalType": "string",
          "name": "_partyName",
          "type": "string"
        },
        {
          "internalType": "string",
          "name": "_partyLeader",
          "type": "string"
        },
        {
          "internalType": "string",
          "name": "_symbolPath",
          "type": "string"
        }
      ],
      "name": "addParty",
      "outputs": [],
      "stateMutability": "nonpayable",
      "type": "function"
    },
    {
      "inputs": [
        {
          "internalType": "uint256",
          "name": "_id",
          "type": "uint256"
        }
      ],
      "name": "getParty",
      "outputs": [
        {
          "internalType": "uint256",
          "name": "",
          "type": "uint256"
        },
        {
          "internalType": "string",
          "name": "",
          "type": "string"
        },
        {
          "internalType": "string",
          "name": "",
          "type": "string"
        },
        {
          "internalType": "string",
          "name": "",
          "type": "string"
        }
      ],
      "stateMutability": "view",
      "type": "function",
      "constant": true
    },
    {
      "inputs": [
        {
          "internalType": "string",
          "name": "_pollName",
          "type": "string"
        },
        {
          "internalType": "string",
          "name": "_pollDate",
          "type": "string"
        },
        {
          "internalType": "string",
          "name": "_startTime",
          "type": "string"
        },
        {
          "internalType": "string",
          "name": "_endTime",
          "type": "string"
        }
      ],
      "name": "addPoll",
      "outputs": [],
      "stateMutability": "nonpayable",
      "type": "function"
    },
    {
      "inputs": [],
      "name": "getAllPolls",
      "outputs": [
        {
          "components": [
            {
              "internalType": "uint256",
              "name": "pollId",
              "type": "uint256"
            },
            {
              "internalType": "string",
              "name": "pollName",
              "type": "string"
            },
            {
              "internalType": "string",
              "name": "pollDate",
              "type": "string"
            },
            {
              "internalType": "string",
              "name": "startTime",
              "type": "string"
            },
            {
              "internalType": "string",
              "name": "endTime",
              "type": "string"
            }
          ],
          "internalType": "struct Voting.Poll[]",
          "name": "",
          "type": "tuple[]"
        }
      ],
      "stateMutability": "view",
      "type": "function",
      "constant": true
    },
    {
      "inputs": [
        {
          "internalType": "uint256",
          "name": "_pollId",
          "type": "uint256"
        },
        {
          "internalType": "uint256",
          "name": "_partyId",
          "type": "uint256"
        },
        {
          "internalType": "string",
          "name": "_aadharNumber",
          "type": "string"
        }
      ],
      "name": "vote",
      "outputs": [],
      "stateMutability": "nonpayable",
      "type": "function"
    },
    {
      "inputs": [
        {
          "internalType": "uint256",
          "name": "_pollId",
          "type": "uint256"
        },
        {
          "internalType": "uint256",
          "name": "_partyId",
          "type": "uint256"
        }
      ],
      "name": "getVotes",
      "outputs": [
        {
          "internalType": "uint256",
          "name": "",
          "type": "uint256"
        }
      ],
      "stateMutability": "view",
      "type": "function",
      "constant": true
    },
    {
      "inputs": [
        {
          "internalType": "uint256",
          "name": "_pollId",
          "type": "uint256"
        },
        {
          "internalType": "string",
          "name": "_aadharNumber",
          "type": "string"
        }
      ],
      "name": "hasVoted",
      "outputs": [
        {
          "internalType": "bool",
          "name": "",
          "type": "bool"
        }
      ],
      "stateMutability": "view",
      "type": "function",
      "constant": true
    },
    {
      "inputs": [
        {
          "internalType": "uint256",
          "name": "_pollId",
          "type": "uint256"
        }
      ],
      "name": "getPollResults",
      "outputs": [
        {
          "internalType": "uint256[]",
          "name": "partyIds",
          "type": "uint256[]"
        },
        {
          "internalType": "uint256[]",
          "name": "voteCounts",
          "type": "uint256[]"
        }
      ],
      "stateMutability": "view",
      "type": "function",
      "constant": true
    },
    {
      "inputs": [
        {
          "internalType": "string",
          "name": "_aadharNumber",
          "type": "string"
        }
      ],
      "name": "deleteVoter",
      "outputs": [],
      "stateMutability": "nonpayable",
      "type": "function"
    }
  ],
  "bytecode": "0x608060405260008055600060055534801561001957600080fd5b5061477f806100296000396000f3fe608060405234801561001057600080fd5b50600436106101375760003560e01c806357a834e0116100b8578063947582181161007c57806394758218146103bc578063a1bbfc05146103ef578063ac2f00741461040b578063b686db501461043f578063d4bc5e911461045b578063f20f4e231461048f57610137565b806357a834e0146102dc5780635ed5d2c31461030c5780635f8fd5791461032857806360d505961461035857806391f366331461038c57610137565b806335bbe70e116100ff57806335bbe70e1461020c5780633d9e100c1461022a57806345fbfa1f1461025b5780634b2966ec1461027757806353fa2e64146102a757610137565b8063088294081461013c5780630d0b800f1461015857806314a0069a1461018857806332b633fa146101bd57806333b4097b146101db575b600080fd5b61015660048036038101906101519190612fa6565b6104ab565b005b610172600480360381019061016d9190613061565b61060a565b60405161017f919061310d565b60405180910390f35b6101a2600480360381019061019d919061312f565b6106b6565b6040516101b496959493929190613187565b60405180910390f35b6101c5610a75565b6040516101d291906133b1565b60405180910390f35b6101f560048036038101906101f09190613061565b610dab565b604051610203929190613482565b60405180910390f35b610214610f89565b6040516102219190613620565b60405180910390f35b610244600480360381019061023f9190613061565b61135b565b60405161025292919061365d565b60405180910390f35b6102756004803603810190610270919061312f565b61138c565b005b610291600480360381019061028c9190613061565b61156b565b60405161029e9190613686565b60405180910390f35b6102c160048036038101906102bc919061312f565b611589565b6040516102d396959493929190613187565b60405180910390f35b6102f660048036038101906102f191906136a1565b611883565b60405161030391906136fd565b60405180910390f35b61032660048036038101906103219190613718565b6118cd565b005b610342600480360381019061033d9190613061565b611a58565b60405161034f9190613965565b60405180910390f35b610372600480360381019061036d9190613061565b611d92565b604051610383959493929190613987565b60405180910390f35b6103a660048036038101906103a191906139ef565b611f70565b6040516103b39190613686565b60405180910390f35b6103d660048036038101906103d19190613061565b612005565b6040516103e69493929190613a2f565b60405180910390f35b61040960048036038101906104049190613a89565b612281565b005b61042560048036038101906104209190613061565b612543565b604051610436959493929190613af8565b60405180910390f35b61045960048036038101906104549190613b67565b612799565b005b61047560048036038101906104709190613061565b61292b565b604051610486959493929190613af8565b60405180910390f35b6104a960048036038101906104a49190613bdf565b612c39565b005b600a60008154809291906104be90613ce5565b91905055506040518060a00160405280858152602001848152602001838152602001828152602001600a548152506003600086815260200190815260200160002060008201518160000155602082015181600101908161051e9190613f39565b5060408201518160020190816105349190613f39565b50606082015181600301908161054a9190613f39565b506080820151816004015590505060046040518060a00160405280868152602001858152602001848152602001838152602001600a5481525090806001815401808255809150506001900390600052602060002090600502016000909190919091506000820151816000015560208201518160010190816105cb9190613f39565b5060408201518160020190816105e19190613f39565b5060608201518160030190816105f79190613f39565b5060808201518160040155505050505050565b6002818154811061061a57600080fd5b90600052602060002001600091509050805461063590613d5c565b80601f016020809104026020016040519081016040528092919081815260200182805461066190613d5c565b80156106ae5780601f10610683576101008083540402835291602001916106ae565b820191906000526020600020905b81548152906001019060200180831161069157829003601f168201915b505050505081565b6000606080606080606060006001886040516106d29190614047565b908152602001604051809103902060020180546106ee90613d5c565b905011610730576040517f08c379a0000000000000000000000000000000000000000000000000000000008152600401610727906140aa565b60405180910390fd5b60006001886040516107429190614047565b90815260200160405180910390206040518060c00160405290816000820154815260200160018201805461077590613d5c565b80601f01602080910402602001604051908101604052809291908181526020018280546107a190613d5c565b80156107ee5780601f106107c3576101008083540402835291602001916107ee565b820191906000526020600020905b8154815290600101906020018083116107d157829003601f168201915b5050505050815260200160028201805461080790613d5c565b80601f016020809104026020016040519081016040528092919081815260200182805461083390613d5c565b80156108805780601f1061085557610100808354040283529160200191610880565b820191906000526020600020905b81548152906001019060200180831161086357829003601f168201915b5050505050815260200160038201805461089990613d5c565b80601f01602080910402602001604051908101604052809291908181526020018280546108c590613d5c565b80156109125780601f106108e757610100808354040283529160200191610912565b820191906000526020600020905b8154815290600101906020018083116108f557829003601f168201915b5050505050815260200160048201805461092b90613d5c565b80601f016020809104026020016040519081016040528092919081815260200182805461095790613d5c565b80156109a45780601f10610979576101008083540402835291602001916109a4565b820191906000526020600020905b81548152906001019060200180831161098757829003601f168201915b505050505081526020016005820180546109bd90613d5c565b80601f01602080910402602001604051908101604052809291908181526020018280546109e990613d5c565b8015610a365780601f10610a0b57610100808354040283529160200191610a36565b820191906000526020600020905b815481529060010190602001808311610a1957829003601f168201915b5050505050815250509050806000015181602001518260400151836060015184608001518560a001519650965096509650965096505091939550919395565b6060600060078054905067ffffffffffffffff811115610a9857610a97612e7b565b5b604051908082528060200260200182016040528015610ad157816020015b610abe612d25565b815260200190600190039081610ab65790505b50905060005b600780549050811015610da3576006600060078381548110610afc57610afb6140ca565b5b906000526020600020015481526020019081526020016000206040518060a001604052908160008201548152602001600182018054610b3a90613d5c565b80601f0160208091040260200160405190810160405280929190818152602001828054610b6690613d5c565b8015610bb35780601f10610b8857610100808354040283529160200191610bb3565b820191906000526020600020905b815481529060010190602001808311610b9657829003601f168201915b50505050508152602001600282018054610bcc90613d5c565b80601f0160208091040260200160405190810160405280929190818152602001828054610bf890613d5c565b8015610c455780601f10610c1a57610100808354040283529160200191610c45565b820191906000526020600020905b815481529060010190602001808311610c2857829003601f168201915b50505050508152602001600382018054610c5e90613d5c565b80601f0160208091040260200160405190810160405280929190818152602001828054610c8a90613d5c565b8015610cd75780601f10610cac57610100808354040283529160200191610cd7565b820191906000526020600020905b815481529060010190602001808311610cba57829003601f168201915b50505050508152602001600482018054610cf090613d5c565b80601f0160208091040260200160405190810160405280929190818152602001828054610d1c90613d5c565b8015610d695780601f10610d3e57610100808354040283529160200191610d69565b820191906000526020600020905b815481529060010190602001808311610d4c57829003601f168201915b505050505081525050828281518110610d8557610d846140ca565b5b60200260200101819052508080610d9b90613ce5565b915050610ad7565b508091505090565b6060806008600084815260200190815260200160002060030160009054906101000a900460ff16610e11576040517f08c379a0000000000000000000000000000000000000000000000000000000008152600401610e0890614145565b60405180910390fd5b6000600860008581526020019081526020016000206002018054905090508067ffffffffffffffff811115610e4957610e48612e7b565b5b604051908082528060200260200182016040528015610e775781602001602082028036833780820191505090505b5092508067ffffffffffffffff811115610e9457610e93612e7b565b5b604051908082528060200260200182016040528015610ec25781602001602082028036833780820191505090505b50915060005b81811015610f82576000600860008781526020019081526020016000206002018281548110610efa57610ef96140ca565b5b9060005260206000200154905080858381518110610f1b57610f1a6140ca565b5b60200260200101818152505060086000878152602001908152602001600020600101600082815260200190815260200160002054848381518110610f6257610f616140ca565b5b602002602001018181525050508080610f7a90613ce5565b915050610ec8565b5050915091565b6060600060028054905067ffffffffffffffff811115610fac57610fab612e7b565b5b604051908082528060200260200182016040528015610fe557816020015b610fd2612d54565b815260200190600190039081610fca5790505b50905060005b6002805490508110156113535760016002828154811061100e5761100d6140ca565b5b9060005260206000200160405161102591906141e8565b90815260200160405180910390206040518060c00160405290816000820154815260200160018201805461105890613d5c565b80601f016020809104026020016040519081016040528092919081815260200182805461108490613d5c565b80156110d15780601f106110a6576101008083540402835291602001916110d1565b820191906000526020600020905b8154815290600101906020018083116110b457829003601f168201915b505050505081526020016002820180546110ea90613d5c565b80601f016020809104026020016040519081016040528092919081815260200182805461111690613d5c565b80156111635780601f1061113857610100808354040283529160200191611163565b820191906000526020600020905b81548152906001019060200180831161114657829003601f168201915b5050505050815260200160038201805461117c90613d5c565b80601f01602080910402602001604051908101604052809291908181526020018280546111a890613d5c565b80156111f55780601f106111ca576101008083540402835291602001916111f5565b820191906000526020600020905b8154815290600101906020018083116111d857829003601f168201915b5050505050815260200160048201805461120e90613d5c565b80601f016020809104026020016040519081016040528092919081815260200182805461123a90613d5c565b80156112875780601f1061125c57610100808354040283529160200191611287565b820191906000526020600020905b81548152906001019060200180831161126a57829003601f168201915b505050505081526020016005820180546112a090613d5c565b80601f01602080910402602001604051908101604052809291908181526020018280546112cc90613d5c565b80156113195780601f106112ee57610100808354040283529160200191611319565b820191906000526020600020905b8154815290600101906020018083116112fc57829003601f168201915b505050505081525050828281518110611335576113346140ca565b5b6020026020010181905250808061134b90613ce5565b915050610feb565b508091505090565b60086020528060005260406000206000915090508060000154908060030160009054906101000a900460ff16905082565b600060018260405161139e9190614047565b908152602001604051809103902060020180546113ba90613d5c565b9050116113fc576040517f08c379a00000000000000000000000000000000000000000000000000000000081526004016113f39061424b565b60405180910390fd5b60018160405161140c9190614047565b90815260200160405180910390206000808201600090556001820160006114339190612d8a565b6002820160006114439190612d8a565b6003820160006114539190612d8a565b6004820160006114639190612d8a565b6005820160006114739190612d8a565b505060005b600280549050811015611567578180519060200120600282815481106114a1576114a06140ca565b5b906000526020600020016040516114b8919061430e565b60405180910390200361155457600260016002805490506114d99190614325565b815481106114ea576114e96140ca565b5b9060005260206000200160028281548110611508576115076140ca565b5b90600052602060002001908161151e9190614384565b5060028054806115315761153061446c565b5b60019003818190600052602060002001600061154d9190612d8a565b9055611567565b808061155f90613ce5565b915050611478565b5050565b60096020528060005260406000206000915090508060000154905081565b6001818051602081018201805184825260208301602085012081835280955050505050506000915090508060000154908060010180546115c890613d5c565b80601f01602080910402602001604051908101604052809291908181526020018280546115f490613d5c565b80156116415780601f1061161657610100808354040283529160200191611641565b820191906000526020600020905b81548152906001019060200180831161162457829003601f168201915b50505050509080600201805461165690613d5c565b80601f016020809104026020016040519081016040528092919081815260200182805461168290613d5c565b80156116cf5780601f106116a4576101008083540402835291602001916116cf565b820191906000526020600020905b8154815290600101906020018083116116b257829003601f168201915b5050505050908060030180546116e490613d5c565b80601f016020809104026020016040519081016040528092919081815260200182805461171090613d5c565b801561175d5780601f106117325761010080835404028352916020019161175d565b820191906000526020600020905b81548152906001019060200180831161174057829003601f168201915b50505050509080600401805461177290613d5c565b80601f016020809104026020016040519081016040528092919081815260200182805461179e90613d5c565b80156117eb5780601f106117c0576101008083540402835291602001916117eb565b820191906000526020600020905b8154815290600101906020018083116117ce57829003601f168201915b50505050509080600501805461180090613d5c565b80601f016020809104026020016040519081016040528092919081815260200182805461182c90613d5c565b80156118795780601f1061184e57610100808354040283529160200191611879565b820191906000526020600020905b81548152906001019060200180831161185c57829003601f168201915b5050505050905086565b600060096000848152602001908152602001600020600101826040516118a99190614047565b908152602001604051809103902060009054906101000a900460ff16905092915050565b60006001856040516118df9190614047565b908152602001604051809103902060020180546118fb90613d5c565b90501461193d576040517f08c379a00000000000000000000000000000000000000000000000000000000081526004016119349061450d565b60405180910390fd5b60008081548092919061194f90613ce5565b91905055506040518060c001604052806000548152602001868152602001858152602001848152602001838152602001828152506001856040516119939190614047565b90815260200160405180910390206000820151816000015560208201518160010190816119c09190613f39565b5060408201518160020190816119d69190613f39565b5060608201518160030190816119ec9190613f39565b506080820151816004019081611a029190613f39565b5060a0820151816005019081611a189190613f39565b50905050600284908060018154018082558091505060019003906000526020600020016000909190919091509081611a509190613f39565b505050505050565b60606000805b600480549050811015611ab9578360048281548110611a8057611a7f6140ca565b5b90600052602060002090600502016000015403611aa6578180611aa290613ce5565b9250505b8080611ab190613ce5565b915050611a5e565b5060008167ffffffffffffffff811115611ad657611ad5612e7b565b5b604051908082528060200260200182016040528015611b0f57816020015b611afc612dca565b815260200190600190039081611af45790505b5090506000805b600480549050811015611d86578560048281548110611b3857611b376140ca565b5b90600052602060002090600502016000015403611d735760048181548110611b6357611b626140ca565b5b90600052602060002090600502016040518060a001604052908160008201548152602001600182018054611b9690613d5c565b80601f0160208091040260200160405190810160405280929190818152602001828054611bc290613d5c565b8015611c0f5780601f10611be457610100808354040283529160200191611c0f565b820191906000526020600020905b815481529060010190602001808311611bf257829003601f168201915b50505050508152602001600282018054611c2890613d5c565b80601f0160208091040260200160405190810160405280929190818152602001828054611c5490613d5c565b8015611ca15780601f10611c7657610100808354040283529160200191611ca1565b820191906000526020600020905b815481529060010190602001808311611c8457829003601f168201915b50505050508152602001600382018054611cba90613d5c565b80601f0160208091040260200160405190810160405280929190818152602001828054611ce690613d5c565b8015611d335780601f10611d0857610100808354040283529160200191611d33565b820191906000526020600020905b815481529060010190602001808311611d1657829003601f168201915b50505050508152602001600482015481525050838381518110611d5957611d586140ca565b5b60200260200101819052508180611d6f90613ce5565b9250505b8080611d7e90613ce5565b915050611b16565b50819350505050919050565b60048181548110611da257600080fd5b9060005260206000209060050201600091509050806000015490806001018054611dcb90613d5c565b80601f0160208091040260200160405190810160405280929190818152602001828054611df790613d5c565b8015611e445780601f10611e1957610100808354040283529160200191611e44565b820191906000526020600020905b815481529060010190602001808311611e2757829003601f168201915b505050505090806002018054611e5990613d5c565b80601f0160208091040260200160405190810160405280929190818152602001828054611e8590613d5c565b8015611ed25780601f10611ea757610100808354040283529160200191611ed2565b820191906000526020600020905b815481529060010190602001808311611eb557829003601f168201915b505050505090806003018054611ee790613d5c565b80601f0160208091040260200160405190810160405280929190818152602001828054611f1390613d5c565b8015611f605780601f10611f3557610100808354040283529160200191611f60565b820191906000526020600020905b815481529060010190602001808311611f4357829003601f168201915b5050505050908060040154905085565b60006008600084815260200190815260200160002060030160009054906101000a900460ff16611fd5576040517f08c379a0000000000000000000000000000000000000000000000000000000008152600401611fcc90614579565b60405180910390fd5b60086000848152602001908152602001600020600101600083815260200190815260200160002054905092915050565b60006060806060600060036000878152602001908152602001600020600101805461202f90613d5c565b905011612071576040517f08c379a0000000000000000000000000000000000000000000000000000000008152600401612068906145e5565b60405180910390fd5b6000600360008781526020019081526020016000206040518060a0016040529081600082015481526020016001820180546120ab90613d5c565b80601f01602080910402602001604051908101604052809291908181526020018280546120d790613d5c565b80156121245780601f106120f957610100808354040283529160200191612124565b820191906000526020600020905b81548152906001019060200180831161210757829003601f168201915b5050505050815260200160028201805461213d90613d5c565b80601f016020809104026020016040519081016040528092919081815260200182805461216990613d5c565b80156121b65780601f1061218b576101008083540402835291602001916121b6565b820191906000526020600020905b81548152906001019060200180831161219957829003601f168201915b505050505081526020016003820180546121cf90613d5c565b80601f01602080910402602001604051908101604052809291908181526020018280546121fb90613d5c565b80156122485780601f1061221d57610100808354040283529160200191612248565b820191906000526020600020905b81548152906001019060200180831161222b57829003601f168201915b50505050508152602001600482015481525050905080600001518160200151826040015183606001519450945094509450509193509193565b60006001826040516122939190614047565b908152602001604051809103902060020180546122af90613d5c565b9050116122f1576040517f08c379a00000000000000000000000000000000000000000000000000000000081526004016122e8906140aa565b60405180910390fd5b60096000848152602001908152602001600020600101816040516123159190614047565b908152602001604051809103902060009054906101000a900460ff1615612371576040517f08c379a000000000000000000000000000000000000000000000000000000000815260040161236890614651565b60405180910390fd5b600060066000858152602001908152602001600020600101805461239490613d5c565b9050116123d6576040517f08c379a00000000000000000000000000000000000000000000000000000000081526004016123cd906146bd565b60405180910390fd5b6008600084815260200190815260200160002060030160009054906101000a900460ff166124495760016008600085815260200190815260200160002060030160006101000a81548160ff0219169083151502179055508260086000858152602001908152602001600020600001819055505b600060086000858152602001908152602001600020600101600084815260200190815260200160002054036124b657600860008481526020019081526020016000206002018290806001815401808255809150506001900390600052602060002001600090919091909150555b60086000848152602001908152602001600020600101600083815260200190815260200160002060008154809291906124ee90613ce5565b9190505550600160096000858152602001908152602001600020600101826040516125199190614047565b908152602001604051809103902060006101000a81548160ff021916908315150217905550505050565b600660205280600052604060002060009150905080600001549080600101805461256c90613d5c565b80601f016020809104026020016040519081016040528092919081815260200182805461259890613d5c565b80156125e55780601f106125ba576101008083540402835291602001916125e5565b820191906000526020600020905b8154815290600101906020018083116125c857829003601f168201915b5050505050908060020180546125fa90613d5c565b80601f016020809104026020016040519081016040528092919081815260200182805461262690613d5c565b80156126735780601f1061264857610100808354040283529160200191612673565b820191906000526020600020905b81548152906001019060200180831161265657829003601f168201915b50505050509080600301805461268890613d5c565b80601f01602080910402602001604051908101604052809291908181526020018280546126b490613d5c565b80156127015780601f106126d657610100808354040283529160200191612701565b820191906000526020600020905b8154815290600101906020018083116126e457829003601f168201915b50505050509080600401805461271690613d5c565b80601f016020809104026020016040519081016040528092919081815260200182805461274290613d5c565b801561278f5780601f106127645761010080835404028352916020019161278f565b820191906000526020600020905b81548152906001019060200180831161277257829003601f168201915b5050505050905085565b6000805b6002805490508110156128e5576000600282815481106127c0576127bf6140ca565b5b9060005260206000200180546127d590613d5c565b80601f016020809104026020016040519081016040528092919081815260200182805461280190613d5c565b801561284e5780601f106128235761010080835404028352916020019161284e565b820191906000526020600020905b81548152906001019060200180831161283157829003601f168201915b50505050509050848051906020012060018260405161286d9190614047565b908152602001604051809103902060040160405161288b919061430e565b6040518091039020036128d157836001826040516128a99190614047565b908152602001604051809103902060050190816128c69190613f39565b5060019250506128e5565b5080806128dd90613ce5565b91505061279d565b5080612926576040517f08c379a000000000000000000000000000000000000000000000000000000000815260040161291d90614729565b60405180910390fd5b505050565b6000606080606080600060066000888152602001908152602001600020600101805461295690613d5c565b905011612998576040517f08c379a000000000000000000000000000000000000000000000000000000000815260040161298f906146bd565b60405180910390fd5b6000600660008881526020019081526020016000206040518060a0016040529081600082015481526020016001820180546129d290613d5c565b80601f01602080910402602001604051908101604052809291908181526020018280546129fe90613d5c565b8015612a4b5780601f10612a2057610100808354040283529160200191612a4b565b820191906000526020600020905b815481529060010190602001808311612a2e57829003601f168201915b50505050508152602001600282018054612a6490613d5c565b80601f0160208091040260200160405190810160405280929190818152602001828054612a9090613d5c565b8015612add5780601f10612ab257610100808354040283529160200191612add565b820191906000526020600020905b815481529060010190602001808311612ac057829003601f168201915b50505050508152602001600382018054612af690613d5c565b80601f0160208091040260200160405190810160405280929190818152602001828054612b2290613d5c565b8015612b6f5780601f10612b4457610100808354040283529160200191612b6f565b820191906000526020600020905b815481529060010190602001808311612b5257829003601f168201915b50505050508152602001600482018054612b8890613d5c565b80601f0160208091040260200160405190810160405280929190818152602001828054612bb490613d5c565b8015612c015780601f10612bd657610100808354040283529160200191612c01565b820191906000526020600020905b815481529060010190602001808311612be457829003601f168201915b505050505081525050905080600001518160200151826040015183606001518460800151955095509550955095505091939590929450565b60056000815480929190612c4c90613ce5565b91905055506040518060a00160405280600554815260200185815260200184815260200183815260200182815250600660006005548152602001908152602001600020600082015181600001556020820151816001019081612cae9190613f39565b506040820151816002019081612cc49190613f39565b506060820151816003019081612cda9190613f39565b506080820151816004019081612cf09190613f39565b509050506007600554908060018154018082558091505060019003906000526020600020016000909190919091505550505050565b6040518060a0016040528060008152602001606081526020016060815260200160608152602001606081525090565b6040518060c001604052806000815260200160608152602001606081526020016060815260200160608152602001606081525090565b508054612d9690613d5c565b6000825580601f10612da85750612dc7565b601f016020900490600052602060002090810190612dc69190612df9565b5b50565b6040518060a0016040528060008152602001606081526020016060815260200160608152602001600081525090565b5b80821115612e12576000816000905550600101612dfa565b5090565b6000604051905090565b600080fd5b600080fd5b6000819050919050565b612e3d81612e2a565b8114612e4857600080fd5b50565b600081359050612e5a81612e34565b92915050565b600080fd5b600080fd5b6000601f19601f8301169050919050565b7f4e487b7100000000000000000000000000000000000000000000000000000000600052604160045260246000fd5b612eb382612e6a565b810181811067ffffffffffffffff82111715612ed257612ed1612e7b565b5b80604052505050565b6000612ee5612e16565b9050612ef18282612eaa565b919050565b600067ffffffffffffffff821115612f1157612f10612e7b565b5b612f1a82612e6a565b9050602081019050919050565b82818337600083830152505050565b6000612f49612f4484612ef6565b612edb565b905082815260208101848484011115612f6557612f64612e65565b5b612f70848285612f27565b509392505050565b600082601f830112612f8d57612f8c612e60565b5b8135612f9d848260208601612f36565b91505092915050565b60008060008060808587031215612fc057612fbf612e20565b5b6000612fce87828801612e4b565b945050602085013567ffffffffffffffff811115612fef57612fee612e25565b5b612ffb87828801612f78565b935050604085013567ffffffffffffffff81111561301c5761301b612e25565b5b61302887828801612f78565b925050606085013567ffffffffffffffff81111561304957613048612e25565b5b61305587828801612f78565b91505092959194509250565b60006020828403121561307757613076612e20565b5b600061308584828501612e4b565b91505092915050565b600081519050919050565b600082825260208201905092915050565b60005b838110156130c85780820151818401526020810190506130ad565b60008484015250505050565b60006130df8261308e565b6130e98185613099565b93506130f98185602086016130aa565b61310281612e6a565b840191505092915050565b6000602082019050818103600083015261312781846130d4565b905092915050565b60006020828403121561314557613144612e20565b5b600082013567ffffffffffffffff81111561316357613162612e25565b5b61316f84828501612f78565b91505092915050565b61318181612e2a565b82525050565b600060c08201905061319c6000830189613178565b81810360208301526131ae81886130d4565b905081810360408301526131c281876130d4565b905081810360608301526131d681866130d4565b905081810360808301526131ea81856130d4565b905081810360a08301526131fe81846130d4565b9050979650505050505050565b600081519050919050565b600082825260208201905092915050565b6000819050602082019050919050565b61324081612e2a565b82525050565b600082825260208201905092915050565b60006132628261308e565b61326c8185613246565b935061327c8185602086016130aa565b61328581612e6a565b840191505092915050565b600060a0830160008301516132a86000860182613237565b50602083015184820360208601526132c08282613257565b915050604083015184820360408601526132da8282613257565b915050606083015184820360608601526132f48282613257565b9150506080830151848203608086015261330e8282613257565b9150508091505092915050565b60006133278383613290565b905092915050565b6000602082019050919050565b60006133478261320b565b6133518185613216565b93508360208202850161336385613227565b8060005b8581101561339f5784840389528151613380858261331b565b945061338b8361332f565b925060208a01995050600181019050613367565b50829750879550505050505092915050565b600060208201905081810360008301526133cb818461333c565b905092915050565b600081519050919050565b600082825260208201905092915050565b6000819050602082019050919050565b600061340b8383613237565b60208301905092915050565b6000602082019050919050565b600061342f826133d3565b61343981856133de565b9350613444836133ef565b8060005b8381101561347557815161345c88826133ff565b975061346783613417565b925050600181019050613448565b5085935050505092915050565b6000604082019050818103600083015261349c8185613424565b905081810360208301526134b08184613424565b90509392505050565b600081519050919050565b600082825260208201905092915050565b6000819050602082019050919050565b600060c0830160008301516134fd6000860182613237565b50602083015184820360208601526135158282613257565b9150506040830151848203604086015261352f8282613257565b915050606083015184820360608601526135498282613257565b915050608083015184820360808601526135638282613257565b91505060a083015184820360a086015261357d8282613257565b9150508091505092915050565b600061359683836134e5565b905092915050565b6000602082019050919050565b60006135b6826134b9565b6135c081856134c4565b9350836020820285016135d2856134d5565b8060005b8581101561360e57848403895281516135ef858261358a565b94506135fa8361359e565b925060208a019950506001810190506135d6565b50829750879550505050505092915050565b6000602082019050818103600083015261363a81846135ab565b905092915050565b60008115159050919050565b61365781613642565b82525050565b60006040820190506136726000830185613178565b61367f602083018461364e565b9392505050565b600060208201905061369b6000830184613178565b92915050565b600080604083850312156136b8576136b7612e20565b5b60006136c685828601612e4b565b925050602083013567ffffffffffffffff8111156136e7576136e6612e25565b5b6136f385828601612f78565b9150509250929050565b6000602082019050613712600083018461364e565b92915050565b600080600080600060a0868803121561373457613733612e20565b5b600086013567ffffffffffffffff81111561375257613751612e25565b5b61375e88828901612f78565b955050602086013567ffffffffffffffff81111561377f5761377e612e25565b5b61378b88828901612f78565b945050604086013567ffffffffffffffff8111156137ac576137ab612e25565b5b6137b888828901612f78565b935050606086013567ffffffffffffffff8111156137d9576137d8612e25565b5b6137e588828901612f78565b925050608086013567ffffffffffffffff81111561380657613805612e25565b5b61381288828901612f78565b9150509295509295909350565b600081519050919050565b600082825260208201905092915050565b6000819050602082019050919050565b600060a0830160008301516138636000860182613237565b506020830151848203602086015261387b8282613257565b915050604083015184820360408601526138958282613257565b915050606083015184820360608601526138af8282613257565b91505060808301516138c46080860182613237565b508091505092915050565b60006138db838361384b565b905092915050565b6000602082019050919050565b60006138fb8261381f565b613905818561382a565b9350836020820285016139178561383b565b8060005b85811015613953578484038952815161393485826138cf565b945061393f836138e3565b925060208a0199505060018101905061391b565b50829750879550505050505092915050565b6000602082019050818103600083015261397f81846138f0565b905092915050565b600060a08201905061399c6000830188613178565b81810360208301526139ae81876130d4565b905081810360408301526139c281866130d4565b905081810360608301526139d681856130d4565b90506139e56080830184613178565b9695505050505050565b60008060408385031215613a0657613a05612e20565b5b6000613a1485828601612e4b565b9250506020613a2585828601612e4b565b9150509250929050565b6000608082019050613a446000830187613178565b8181036020830152613a5681866130d4565b90508181036040830152613a6a81856130d4565b90508181036060830152613a7e81846130d4565b905095945050505050565b600080600060608486031215613aa257613aa1612e20565b5b6000613ab086828701612e4b565b9350506020613ac186828701612e4b565b925050604084013567ffffffffffffffff811115613ae257613ae1612e25565b5b613aee86828701612f78565b9150509250925092565b600060a082019050613b0d6000830188613178565b8181036020830152613b1f81876130d4565b90508181036040830152613b3381866130d4565b90508181036060830152613b4781856130d4565b90508181036080830152613b5b81846130d4565b90509695505050505050565b60008060408385031215613b7e57613b7d612e20565b5b600083013567ffffffffffffffff811115613b9c57613b9b612e25565b5b613ba885828601612f78565b925050602083013567ffffffffffffffff811115613bc957613bc8612e25565b5b613bd585828601612f78565b9150509250929050565b60008060008060808587031215613bf957613bf8612e20565b5b600085013567ffffffffffffffff811115613c1757613c16612e25565b5b613c2387828801612f78565b945050602085013567ffffffffffffffff811115613c4457613c43612e25565b5b613c5087828801612f78565b935050604085013567ffffffffffffffff811115613c7157613c70612e25565b5b613c7d87828801612f78565b925050606085013567ffffffffffffffff811115613c9e57613c9d612e25565b5b613caa87828801612f78565b91505092959194509250565b7f4e487b7100000000000000000000000000000000000000000000000000000000600052601160045260246000fd5b6000613cf082612e2a565b91507fffffffffffffffffffffffffffffffffffffffffffffffffffffffffffffffff8203613d2257613d21613cb6565b5b600182019050919050565b7f4e487b7100000000000000000000000000000000000000000000000000000000600052602260045260246000fd5b60006002820490506001821680613d7457607f821691505b602082108103613d8757613d86613d2d565b5b50919050565b60008190508160005260206000209050919050565b60006020601f8301049050919050565b600082821b905092915050565b600060088302613def7fffffffffffffffffffffffffffffffffffffffffffffffffffffffffffffffff82613db2565b613df98683613db2565b95508019841693508086168417925050509392505050565b6000819050919050565b6000613e36613e31613e2c84612e2a565b613e11565b612e2a565b9050919050565b6000819050919050565b613e5083613e1b565b613e64613e5c82613e3d565b848454613dbf565b825550505050565b600090565b613e79613e6c565b613e84818484613e47565b505050565b5b81811015613ea857613e9d600082613e71565b600181019050613e8a565b5050565b601f821115613eed57613ebe81613d8d565b613ec784613da2565b81016020851015613ed6578190505b613eea613ee285613da2565b830182613e89565b50505b505050565b600082821c905092915050565b6000613f1060001984600802613ef2565b1980831691505092915050565b6000613f298383613eff565b9150826002028217905092915050565b613f428261308e565b67ffffffffffffffff811115613f5b57613f5a612e7b565b5b613f658254613d5c565b613f70828285613eac565b600060209050601f831160018114613fa35760008415613f91578287015190505b613f9b8582613f1d565b865550614003565b601f198416613fb186613d8d565b60005b82811015613fd957848901518255600182019150602085019450602081019050613fb4565b86831015613ff65784890151613ff2601f891682613eff565b8355505b6001600288020188555050505b505050505050565b600081905092915050565b60006140218261308e565b61402b818561400b565b935061403b8185602086016130aa565b80840191505092915050565b60006140538284614016565b915081905092915050565b7f566f746572206e6f742072656769737465726564000000000000000000000000600082015250565b6000614094601483613099565b915061409f8261405e565b602082019050919050565b600060208201905081810360008301526140c381614087565b9050919050565b7f4e487b7100000000000000000000000000000000000000000000000000000000600052603260045260246000fd5b7f506f6c6c20646f6573206e6f7420657869737421000000000000000000000000600082015250565b600061412f601483613099565b915061413a826140f9565b602082019050919050565b6000602082019050818103600083015261415e81614122565b9050919050565b6000815461417281613d5c565b61417c818661400b565b9450600182166000811461419757600181146141ac576141df565b60ff19831686528115158202860193506141df565b6141b585613d8d565b60005b838110156141d7578154818901526001820191506020810190506141b8565b838801955050505b50505092915050565b60006141f48284614165565b915081905092915050565b7f566f746572206e6f7420666f756e640000000000000000000000000000000000600082015250565b6000614235600f83613099565b9150614240826141ff565b602082019050919050565b6000602082019050818103600083015261426481614228565b9050919050565b600081905092915050565b60008190508160005260206000209050919050565b6000815461429881613d5c565b6142a2818661426b565b945060018216600081146142bd57600181146142d257614305565b60ff1983168652811515820286019350614305565b6142db85614276565b60005b838110156142fd578154818901526001820191506020810190506142de565b838801955050505b50505092915050565b600061431a828461428b565b915081905092915050565b600061433082612e2a565b915061433b83612e2a565b925082820390508181111561435357614352613cb6565b5b92915050565b60008154905061436881613d5c565b9050919050565b60008190508160005260206000209050919050565b81810361439257505061446a565b61439b82614359565b67ffffffffffffffff8111156143b4576143b3612e7b565b5b6143be8254613d5c565b6143c9828285613eac565b6000601f8311600181146143f857600084156143e6578287015490505b6143f08582613f1d565b865550614463565b601f1984166144068761436f565b965061441186613d8d565b60005b8281101561443957848901548255600182019150600185019450602081019050614414565b868310156144565784890154614452601f891682613eff565b8355505b6001600288020188555050505b5050505050505b565b7f4e487b7100000000000000000000000000000000000000000000000000000000600052603160045260246000fd5b7f566f74657220616c72656164792072656769737465726564207769746820746860008201527f697320416164686172206e756d62657200000000000000000000000000000000602082015250565b60006144f7603083613099565b91506145028261449b565b604082019050919050565b60006020820190508181036000830152614526816144ea565b9050919050565b7f506f6c6c20686173206e6f20766f746573000000000000000000000000000000600082015250565b6000614563601183613099565b915061456e8261452d565b602082019050919050565b6000602082019050818103600083015261459281614556565b9050919050565b7f506172747920646f6573206e6f74206578697374000000000000000000000000600082015250565b60006145cf601483613099565b91506145da82614599565b602082019050919050565b600060208201905081810360008301526145fe816145c2565b9050919050565b7f416c726561647920766f74656421000000000000000000000000000000000000600082015250565b600061463b600e83613099565b915061464682614605565b602082019050919050565b6000602082019050818103600083015261466a8161462e565b9050919050565b7f506f6c6c20646f6573206e6f7420657869737400000000000000000000000000600082015250565b60006146a7601383613099565b91506146b282614671565b602082019050919050565b600060208201905081810360008301526146d68161469a565b9050919050565b7f566f7465722077697468207468697320656d61696c206e6f7420666f756e6400600082015250565b6000614713601f83613099565b915061471e826146dd565b602082019050919050565b6000602082019050818103600083015261474281614706565b905091905056fea2646970667358221220d2eeaa01dd587cb7449f229fe0f4ca0baa616b475b21048ea4cb7b26576b937264736f6c63430008130033",
  "immutableReferences": {},
  "source": "// SPDX-License-Identifier: MIT\npragma solidity >=0.4.22 <0.9.0;\n\ncontract Voting {\n\n    struct Voter {\n        uint id;\n        string fullName;\n        string aadharNumber;\n        string irisImagePath;\n        string email;\n        string password;\n    }\n\n    struct Party {\n        uint pollId;\n        string partyName;\n        string partyLeader;\n        string symbolPath;\n        uint partyId;\n    }\n\n    struct Poll {\n        uint pollId;\n        string pollName;\n        string pollDate;\n        string startTime;\n        string endTime;\n    }\n\n    uint private voterCounter = 0; // Auto-incrementing voter ID\n    mapping(string => Voter) public voters;\n    string[] public voterAadhars;\n\n    mapping(uint => Party) private parties;\n    Party[] public allParties;\n\n    uint private pollCounter = 0;\n    mapping(uint => Poll) public polls;\n    uint[] private pollIds;\n\n    // Struct for storing votes for each poll\n    struct Vote {\n        uint pollId;\n        mapping(uint => uint) partyVotes; // Maps partyId to vote count\n        uint[] partyIds; // List of all partyIds in the poll\n        bool initialized; // Flag to track if poll exists\n    }\n\n    // Struct for tracking who has voted in each poll\n    struct PolledIds {\n        uint pollId;\n        mapping(string => bool) hasVoted; // Maps Aadhaar number to voting status\n    }\n\n    // Mappings for votes and voter tracking\n    mapping(uint => Vote) public pollVotes; // Maps pollId to Vote struct\n    mapping(uint => PolledIds) public polledVoters; // Maps pollId to PolledIds struct\n\n    function registerVoter(\n        string memory _fullName,\n        string memory _aadharNumber,\n        string memory _irisImagePath,\n        string memory _email,\n        string memory _password\n    ) public {\n        require(bytes(voters[_aadharNumber].aadharNumber).length == 0, \"Voter already registered with this Aadhar number\");\n\n        voterCounter++; // Auto-increment voter ID\n\n        voters[_aadharNumber] = Voter({\n            id: voterCounter,\n            fullName: _fullName,\n            aadharNumber: _aadharNumber,\n            irisImagePath: _irisImagePath,\n            email: _email,\n            password: _password\n        });\n\n        voterAadhars.push(_aadharNumber);\n    }\n\n    function updateVoterByEmail(string memory _email, string memory _newPassword) public {\n    bool found = false;\n    for (uint i = 0; i < voterAadhars.length; i++) {\n        string memory aadhar = voterAadhars[i];\n        if (keccak256(bytes(voters[aadhar].email)) == keccak256(bytes(_email))) {\n            voters[aadhar].password = _newPassword;\n            found = true;\n            break;\n        }\n    }\n    require(found, \"Voter with this email not found\");\n}\n\n\n    function getPollById(uint _pollId) public view returns (uint, string memory, string memory, string memory, string memory) {\n        require(bytes(polls[_pollId].pollName).length > 0, \"Poll does not exist\");\n\n        Poll memory poll = polls[_pollId];\n        return (poll.pollId, poll.pollName, poll.pollDate, poll.startTime, poll.endTime);\n    }\n\n    function getPartiesByPartyId(uint partyId) public view returns (Party[] memory) {\n        uint count = 0;\n\n        for (uint i = 0; i < allParties.length; i++) {\n            if (allParties[i].pollId == partyId) {\n                count++;\n            }\n        }\n\n        Party[] memory result = new Party[](count);\n        uint index = 0;\n\n        for (uint i = 0; i < allParties.length; i++) {\n            if (allParties[i].pollId == partyId) {\n                result[index] = allParties[i];\n                index++;\n            }\n        }\n\n        return result;\n    }\n\n    function getVoter(string memory aadhar) public view returns (uint, string memory, string memory, string memory, string memory, string memory) {\n        require(bytes(voters[aadhar].aadharNumber).length > 0, \"Voter not registered\");\n\n        Voter memory voter = voters[aadhar];\n        return (voter.id, voter.fullName, voter.aadharNumber, voter.irisImagePath, voter.email, voter.password);\n    }\n\n    function getAllVoters() public view returns (Voter[] memory) {\n        Voter[] memory allVoters = new Voter[](voterAadhars.length);\n        for (uint i = 0; i < voterAadhars.length; i++) {\n            allVoters[i] = voters[voterAadhars[i]];\n        }\n        return allVoters;\n    }\n    uint partyCounter;\n    function addParty(uint _id, string memory _partyName, string memory _partyLeader, string memory _symbolPath) public {\n        partyCounter++;\n        parties[_id] = Party(_id, _partyName, _partyLeader, _symbolPath,partyCounter);\n        allParties.push(Party(_id, _partyName, _partyLeader, _symbolPath,partyCounter));\n    }\n\n    function getParty(uint _id) public view returns (uint, string memory, string memory, string memory) {\n        require(bytes(parties[_id].partyName).length > 0, \"Party does not exist\");\n\n        Party memory party = parties[_id];\n        return (party.pollId, party.partyName, party.partyLeader, party.symbolPath);\n    }\n\n    function addPoll(string memory _pollName, string memory _pollDate, string memory _startTime, string memory _endTime) public {\n        pollCounter++;\n\n        polls[pollCounter] = Poll(pollCounter, _pollName, _pollDate, _startTime, _endTime);\n        pollIds.push(pollCounter);\n    }\n\n    function getAllPolls() public view returns (Poll[] memory) {\n        Poll[] memory allPolls = new Poll[](pollIds.length);\n        for (uint i = 0; i < pollIds.length; i++) {\n            allPolls[i] = polls[pollIds[i]];\n        }\n        return allPolls;\n    }\n\n    function vote(uint _pollId, uint _partyId, string memory _aadharNumber) public {\n        require(bytes(voters[_aadharNumber].aadharNumber).length > 0, \"Voter not registered\");\n        require(!polledVoters[_pollId].hasVoted[_aadharNumber], \"Already voted!\");\n        require(bytes(polls[_pollId].pollName).length > 0, \"Poll does not exist\");\n\n        // Initialize poll if first vote\n        if (!pollVotes[_pollId].initialized) {\n            pollVotes[_pollId].initialized = true;\n            pollVotes[_pollId].pollId = _pollId;\n        }\n\n        // Record vote\n        if (pollVotes[_pollId].partyVotes[_partyId] == 0) {\n            pollVotes[_pollId].partyIds.push(_partyId);\n        }\n        pollVotes[_pollId].partyVotes[_partyId]++;\n\n        // Mark Aadhaar as voted\n        polledVoters[_pollId].hasVoted[_aadharNumber] = true;\n    }\n\n    function getVotes(uint _pollId, uint _partyId) public view returns (uint) {\n        require(pollVotes[_pollId].initialized, \"Poll has no votes\");\n        return pollVotes[_pollId].partyVotes[_partyId];\n    }\n\n    function hasVoted(uint _pollId, string memory _aadharNumber) public view returns (bool) {\n        return polledVoters[_pollId].hasVoted[_aadharNumber];\n    }\n\n    function getPollResults(uint _pollId) public view returns (uint[] memory partyIds, uint[] memory voteCounts) {\n        require(pollVotes[_pollId].initialized, \"Poll does not exist!\");\n\n        uint totalParties = pollVotes[_pollId].partyIds.length;\n        partyIds = new uint[](totalParties);\n        voteCounts = new uint[](totalParties);\n\n        for (uint i = 0; i < totalParties; i++) {\n            uint partyId = pollVotes[_pollId].partyIds[i];\n            partyIds[i] = partyId;\n            voteCounts[i] = pollVotes[_pollId].partyVotes[partyId];\n        }\n\n        return (partyIds, voteCounts);\n    }\n\n    function deleteVoter(string memory _aadharNumber) public {\n        require(bytes(voters[_aadharNumber].aadharNumber).length > 0, \"Voter not found\");\n        \n        // Remove from mapping\n        delete voters[_aadharNumber];\n        \n        // Remove from array\n        for (uint i = 0; i < voterAadhars.length; i++) {\n            if (keccak256(bytes(voterAadhars[i])) == keccak256(bytes(_aadharNumber))) {\n                // Move the last element to the position of the element to delete\n                voterAadhars[i] = voterAadhars[voterAadhars.length - 1];\n                // Remove the last element\n                voterAadhars.pop();\n                break;\n            }\n        }\n    }\n\n}\n",
  "sourcePath": "E:\\BITS-2025\\Blockchain integrated voting app\\contracts\\voting.sol",
  "compiler": {
    "name": "solc",
    "version": "0.8.19+commit.7dd6d404.Emscripten.clang"
  },
  "schemaVersion": "3.4.16",
  "updatedAt": "2025-02-23T18:27:12.710Z",
  "networkType": "ethereum",
  "devdoc": {
    "kind": "dev",
    "methods": {},
    "version": 1
  },
  "userdoc": {
    "kind": "user",
    "methods": {},
    "version": 1
  }
}