{
  "contractName": "Voting",
  "abi": [
    {
      "inputs": [
        {
          "internalType": "uint256",
          "name": "",
          "type": "uint256"
        }
      ],
      "name": "allParties",
      "outputs": [
        {
          "internalType": "uint256",
          "name": "id",
          "type": "uint256"
        },
        {
          "internalType": "string",
          "name": "partyName",
          "type": "string"
        },
        {
          "internalType": "string",
          "name": "partyLeader",
          "type": "string"
        },
        {
          "internalType": "string",
          "name": "symbolPath",
          "type": "string"
        }
      ],
      "stateMutability": "view",
      "type": "function",
      "constant": true
    },
    {
      "inputs": [
        {
          "internalType": "uint256",
          "name": "",
          "type": "uint256"
        }
      ],
      "name": "polls",
      "outputs": [
        {
          "internalType": "uint256",
          "name": "pollId",
          "type": "uint256"
        },
        {
          "internalType": "string",
          "name": "pollName",
          "type": "string"
        },
        {
          "internalType": "string",
          "name": "pollDate",
          "type": "string"
        },
        {
          "internalType": "string",
          "name": "startTime",
          "type": "string"
        },
        {
          "internalType": "string",
          "name": "endTime",
          "type": "string"
        }
      ],
      "stateMutability": "view",
      "type": "function",
      "constant": true
    },
    {
      "inputs": [
        {
          "internalType": "uint256",
          "name": "",
          "type": "uint256"
        }
      ],
      "name": "voterAadhars",
      "outputs": [
        {
          "internalType": "string",
          "name": "",
          "type": "string"
        }
      ],
      "stateMutability": "view",
      "type": "function",
      "constant": true
    },
    {
      "inputs": [
        {
          "internalType": "string",
          "name": "",
          "type": "string"
        }
      ],
      "name": "voters",
      "outputs": [
        {
          "internalType": "string",
          "name": "fullName",
          "type": "string"
        },
        {
          "internalType": "string",
          "name": "aadharNumber",
          "type": "string"
        },
        {
          "internalType": "string",
          "name": "irisImagePath",
          "type": "string"
        },
        {
          "internalType": "string",
          "name": "email",
          "type": "string"
        },
        {
          "internalType": "string",
          "name": "password",
          "type": "string"
        }
      ],
      "stateMutability": "view",
      "type": "function",
      "constant": true
    },
    {
      "inputs": [
        {
          "internalType": "string",
          "name": "_fullName",
          "type": "string"
        },
        {
          "internalType": "string",
          "name": "_aadharNumber",
          "type": "string"
        },
        {
          "internalType": "string",
          "name": "_irisImagePath",
          "type": "string"
        },
        {
          "internalType": "string",
          "name": "_email",
          "type": "string"
        },
        {
          "internalType": "string",
          "name": "_password",
          "type": "string"
        }
      ],
      "name": "registerVoter",
      "outputs": [],
      "stateMutability": "nonpayable",
      "type": "function"
    },
    {
      "inputs": [
        {
          "internalType": "string",
          "name": "aadhar",
          "type": "string"
        }
      ],
      "name": "getVoter",
      "outputs": [
        {
          "internalType": "string",
          "name": "",
          "type": "string"
        },
        {
          "internalType": "string",
          "name": "",
          "type": "string"
        },
        {
          "internalType": "string",
          "name": "",
          "type": "string"
        },
        {
          "internalType": "string",
          "name": "",
          "type": "string"
        },
        {
          "internalType": "string",
          "name": "",
          "type": "string"
        }
      ],
      "stateMutability": "view",
      "type": "function",
      "constant": true
    },
    {
      "inputs": [],
      "name": "getAllVoters",
      "outputs": [
        {
          "components": [
            {
              "internalType": "string",
              "name": "fullName",
              "type": "string"
            },
            {
              "internalType": "string",
              "name": "aadharNumber",
              "type": "string"
            },
            {
              "internalType": "string",
              "name": "irisImagePath",
              "type": "string"
            },
            {
              "internalType": "string",
              "name": "email",
              "type": "string"
            },
            {
              "internalType": "string",
              "name": "password",
              "type": "string"
            }
          ],
          "internalType": "struct Voting.Voter[]",
          "name": "",
          "type": "tuple[]"
        }
      ],
      "stateMutability": "view",
      "type": "function",
      "constant": true
    },
    {
      "inputs": [
        {
          "internalType": "uint256",
          "name": "_id",
          "type": "uint256"
        },
        {
          "internalType": "string",
          "name": "_partyName",
          "type": "string"
        },
        {
          "internalType": "string",
          "name": "_partyLeader",
          "type": "string"
        },
        {
          "internalType": "string",
          "name": "_symbolPath",
          "type": "string"
        }
      ],
      "name": "addParty",
      "outputs": [],
      "stateMutability": "nonpayable",
      "type": "function"
    },
    {
      "inputs": [
        {
          "internalType": "uint256",
          "name": "_id",
          "type": "uint256"
        }
      ],
      "name": "getParty",
      "outputs": [
        {
          "internalType": "uint256",
          "name": "",
          "type": "uint256"
        },
        {
          "internalType": "string",
          "name": "",
          "type": "string"
        },
        {
          "internalType": "string",
          "name": "",
          "type": "string"
        },
        {
          "internalType": "string",
          "name": "",
          "type": "string"
        }
      ],
      "stateMutability": "view",
      "type": "function",
      "constant": true
    },
    {
      "inputs": [
        {
          "internalType": "uint256",
          "name": "partyId",
          "type": "uint256"
        }
      ],
      "name": "getPartiesByPartyId",
      "outputs": [
        {
          "components": [
            {
              "internalType": "uint256",
              "name": "id",
              "type": "uint256"
            },
            {
              "internalType": "string",
              "name": "partyName",
              "type": "string"
            },
            {
              "internalType": "string",
              "name": "partyLeader",
              "type": "string"
            },
            {
              "internalType": "string",
              "name": "symbolPath",
              "type": "string"
            }
          ],
          "internalType": "struct Voting.Party[]",
          "name": "",
          "type": "tuple[]"
        }
      ],
      "stateMutability": "view",
      "type": "function",
      "constant": true
    },
    {
      "inputs": [
        {
          "internalType": "string",
          "name": "_pollName",
          "type": "string"
        },
        {
          "internalType": "string",
          "name": "_pollDate",
          "type": "string"
        },
        {
          "internalType": "string",
          "name": "_startTime",
          "type": "string"
        },
        {
          "internalType": "string",
          "name": "_endTime",
          "type": "string"
        }
      ],
      "name": "addPoll",
      "outputs": [],
      "stateMutability": "nonpayable",
      "type": "function"
    },
    {
      "inputs": [],
      "name": "getAllPolls",
      "outputs": [
        {
          "components": [
            {
              "internalType": "uint256",
              "name": "pollId",
              "type": "uint256"
            },
            {
              "internalType": "string",
              "name": "pollName",
              "type": "string"
            },
            {
              "internalType": "string",
              "name": "pollDate",
              "type": "string"
            },
            {
              "internalType": "string",
              "name": "startTime",
              "type": "string"
            },
            {
              "internalType": "string",
              "name": "endTime",
              "type": "string"
            }
          ],
          "internalType": "struct Voting.Poll[]",
          "name": "",
          "type": "tuple[]"
        }
      ],
      "stateMutability": "view",
      "type": "function",
      "constant": true
    },
    {
      "inputs": [
        {
          "internalType": "uint256",
          "name": "_pollId",
          "type": "uint256"
        }
      ],
      "name": "getPollById",
      "outputs": [
        {
          "internalType": "uint256",
          "name": "",
          "type": "uint256"
        },
        {
          "internalType": "string",
          "name": "",
          "type": "string"
        },
        {
          "internalType": "string",
          "name": "",
          "type": "string"
        },
        {
          "internalType": "string",
          "name": "",
          "type": "string"
        },
        {
          "internalType": "string",
          "name": "",
          "type": "string"
        }
      ],
      "stateMutability": "view",
      "type": "function",
      "constant": true
    }
  ],
  "bytecode": "0x6080604052600060045534801561001557600080fd5b506133b4806100256000396000f3fe608060405234801561001057600080fd5b50600436106100cf5760003560e01c80635ed5d2c31161008c57806394758218116100665780639475821814610243578063ac2f007414610276578063d4bc5e91146102aa578063f20f4e23146102de576100cf565b80635ed5d2c3146101c45780635f8fd579146101e057806360d5059614610210576100cf565b806308829408146100d45780630d0b800f146100f057806314a0069a1461012057806332b633fa1461015457806335bbe70e1461017257806353fa2e6414610190575b600080fd5b6100ee60048036038101906100e991906123a6565b6102fa565b005b61010a60048036038101906101059190612461565b61041d565b604051610117919061250d565b60405180910390f35b61013a6004803603810190610135919061252f565b6104c9565b60405161014b959493929190612578565b60405180910390f35b61015c610873565b6040516101699190612794565b60405180910390f35b61017a610ba9565b604051610187919061290a565b60405180910390f35b6101aa60048036038101906101a5919061252f565b610f71565b6040516101bb959493929190612578565b60405180910390f35b6101de60048036038101906101d9919061292c565b611265565b005b6101fa60048036038101906101f59190612461565b6113c6565b6040516102079190612b66565b60405180910390f35b61022a60048036038101906102259190612461565b6116f6565b60405161023a9493929190612b97565b60405180910390f35b61025d60048036038101906102589190612461565b6118ce565b60405161026d9493929190612b97565b60405180910390f35b610290600480360381019061028b9190612461565b611b40565b6040516102a1959493929190612bf1565b60405180910390f35b6102c460048036038101906102bf9190612461565b611d96565b6040516102d5959493929190612bf1565b60405180910390f35b6102f860048036038101906102f39190612c60565b6120a4565b005b6040518060800160405280858152602001848152602001838152602001828152506002600086815260200190815260200160002060008201518160000155602082015181600101908161034d9190612f43565b5060408201518160020190816103639190612f43565b5060608201518160030190816103799190612f43565b50905050600360405180608001604052808681526020018581526020018481526020018381525090806001815401808255809150506001900390600052602060002090600402016000909190919091506000820151816000015560208201518160010190816103e89190612f43565b5060408201518160020190816103fe9190612f43565b5060608201518160030190816104149190612f43565b50505050505050565b6001818154811061042d57600080fd5b90600052602060002001600091509050805461044890612d66565b80601f016020809104026020016040519081016040528092919081815260200182805461047490612d66565b80156104c15780601f10610496576101008083540402835291602001916104c1565b820191906000526020600020905b8154815290600101906020018083116104a457829003601f168201915b505050505081565b6060806060806060600080876040516104e29190613051565b908152602001604051809103902060010180546104fe90612d66565b905011610540576040517f08c379a0000000000000000000000000000000000000000000000000000000008152600401610537906130b4565b60405180910390fd5b600080876040516105519190613051565b90815260200160405180910390206040518060a001604052908160008201805461057a90612d66565b80601f01602080910402602001604051908101604052809291908181526020018280546105a690612d66565b80156105f35780601f106105c8576101008083540402835291602001916105f3565b820191906000526020600020905b8154815290600101906020018083116105d657829003601f168201915b5050505050815260200160018201805461060c90612d66565b80601f016020809104026020016040519081016040528092919081815260200182805461063890612d66565b80156106855780601f1061065a57610100808354040283529160200191610685565b820191906000526020600020905b81548152906001019060200180831161066857829003601f168201915b5050505050815260200160028201805461069e90612d66565b80601f01602080910402602001604051908101604052809291908181526020018280546106ca90612d66565b80156107175780601f106106ec57610100808354040283529160200191610717565b820191906000526020600020905b8154815290600101906020018083116106fa57829003601f168201915b5050505050815260200160038201805461073090612d66565b80601f016020809104026020016040519081016040528092919081815260200182805461075c90612d66565b80156107a95780601f1061077e576101008083540402835291602001916107a9565b820191906000526020600020905b81548152906001019060200180831161078c57829003601f168201915b505050505081526020016004820180546107c290612d66565b80601f01602080910402602001604051908101604052809291908181526020018280546107ee90612d66565b801561083b5780601f106108105761010080835404028352916020019161083b565b820191906000526020600020905b81548152906001019060200180831161081e57829003601f168201915b505050505081525050905080600001518160200151826040015183606001518460800151955095509550955095505091939590929450565b6060600060068054905067ffffffffffffffff8111156108965761089561227b565b5b6040519080825280602002602001820160405280156108cf57816020015b6108bc612190565b8152602001906001900390816108b45790505b50905060005b600680549050811015610ba15760056000600683815481106108fa576108f96130d4565b5b906000526020600020015481526020019081526020016000206040518060a00160405290816000820154815260200160018201805461093890612d66565b80601f016020809104026020016040519081016040528092919081815260200182805461096490612d66565b80156109b15780601f10610986576101008083540402835291602001916109b1565b820191906000526020600020905b81548152906001019060200180831161099457829003601f168201915b505050505081526020016002820180546109ca90612d66565b80601f01602080910402602001604051908101604052809291908181526020018280546109f690612d66565b8015610a435780601f10610a1857610100808354040283529160200191610a43565b820191906000526020600020905b815481529060010190602001808311610a2657829003601f168201915b50505050508152602001600382018054610a5c90612d66565b80601f0160208091040260200160405190810160405280929190818152602001828054610a8890612d66565b8015610ad55780601f10610aaa57610100808354040283529160200191610ad5565b820191906000526020600020905b815481529060010190602001808311610ab857829003601f168201915b50505050508152602001600482018054610aee90612d66565b80601f0160208091040260200160405190810160405280929190818152602001828054610b1a90612d66565b8015610b675780601f10610b3c57610100808354040283529160200191610b67565b820191906000526020600020905b815481529060010190602001808311610b4a57829003601f168201915b505050505081525050828281518110610b8357610b826130d4565b5b60200260200101819052508080610b9990613132565b9150506108d5565b508091505090565b6060600060018054905067ffffffffffffffff811115610bcc57610bcb61227b565b5b604051908082528060200260200182016040528015610c0557816020015b610bf26121bf565b815260200190600190039081610bea5790505b50905060005b600180549050811015610f6957600060018281548110610c2e57610c2d6130d4565b5b90600052602060002001604051610c4591906131fd565b90815260200160405180910390206040518060a0016040529081600082018054610c6e90612d66565b80601f0160208091040260200160405190810160405280929190818152602001828054610c9a90612d66565b8015610ce75780601f10610cbc57610100808354040283529160200191610ce7565b820191906000526020600020905b815481529060010190602001808311610cca57829003601f168201915b50505050508152602001600182018054610d0090612d66565b80601f0160208091040260200160405190810160405280929190818152602001828054610d2c90612d66565b8015610d795780601f10610d4e57610100808354040283529160200191610d79565b820191906000526020600020905b815481529060010190602001808311610d5c57829003601f168201915b50505050508152602001600282018054610d9290612d66565b80601f0160208091040260200160405190810160405280929190818152602001828054610dbe90612d66565b8015610e0b5780601f10610de057610100808354040283529160200191610e0b565b820191906000526020600020905b815481529060010190602001808311610dee57829003601f168201915b50505050508152602001600382018054610e2490612d66565b80601f0160208091040260200160405190810160405280929190818152602001828054610e5090612d66565b8015610e9d5780601f10610e7257610100808354040283529160200191610e9d565b820191906000526020600020905b815481529060010190602001808311610e8057829003601f168201915b50505050508152602001600482018054610eb690612d66565b80601f0160208091040260200160405190810160405280929190818152602001828054610ee290612d66565b8015610f2f5780601f10610f0457610100808354040283529160200191610f2f565b820191906000526020600020905b815481529060010190602001808311610f1257829003601f168201915b505050505081525050828281518110610f4b57610f4a6130d4565b5b60200260200101819052508080610f6190613132565b915050610c0b565b508091505090565b600081805160208101820180518482526020830160208501208183528095505050505050600091509050806000018054610faa90612d66565b80601f0160208091040260200160405190810160405280929190818152602001828054610fd690612d66565b80156110235780601f10610ff857610100808354040283529160200191611023565b820191906000526020600020905b81548152906001019060200180831161100657829003601f168201915b50505050509080600101805461103890612d66565b80601f016020809104026020016040519081016040528092919081815260200182805461106490612d66565b80156110b15780601f10611086576101008083540402835291602001916110b1565b820191906000526020600020905b81548152906001019060200180831161109457829003601f168201915b5050505050908060020180546110c690612d66565b80601f01602080910402602001604051908101604052809291908181526020018280546110f290612d66565b801561113f5780601f106111145761010080835404028352916020019161113f565b820191906000526020600020905b81548152906001019060200180831161112257829003601f168201915b50505050509080600301805461115490612d66565b80601f016020809104026020016040519081016040528092919081815260200182805461118090612d66565b80156111cd5780601f106111a2576101008083540402835291602001916111cd565b820191906000526020600020905b8154815290600101906020018083116111b057829003601f168201915b5050505050908060040180546111e290612d66565b80601f016020809104026020016040519081016040528092919081815260200182805461120e90612d66565b801561125b5780601f106112305761010080835404028352916020019161125b565b820191906000526020600020905b81548152906001019060200180831161123e57829003601f168201915b5050505050905085565b600080856040516112769190613051565b9081526020016040518091039020600101805461129290612d66565b9050146112d4576040517f08c379a00000000000000000000000000000000000000000000000000000000081526004016112cb90613286565b60405180910390fd5b6040518060a001604052808681526020018581526020018481526020018381526020018281525060008560405161130b9190613051565b9081526020016040518091039020600082015181600001908161132e9190612f43565b5060208201518160010190816113449190612f43565b50604082015181600201908161135a9190612f43565b5060608201518160030190816113709190612f43565b5060808201518160040190816113869190612f43565b509050506001849080600181540180825580915050600190039060005260206000200160009091909190915090816113be9190612f43565b505050505050565b60606000805b6003805490508110156114275783600382815481106113ee576113ed6130d4565b5b9060005260206000209060040201600001540361141457818061141090613132565b9250505b808061141f90613132565b9150506113cc565b5060008167ffffffffffffffff8111156114445761144361227b565b5b60405190808252806020026020018201604052801561147d57816020015b61146a6121ee565b8152602001906001900390816114625790505b5090506000805b6003805490508110156116ea5785600382815481106114a6576114a56130d4565b5b906000526020600020906004020160000154036116d757600381815481106114d1576114d06130d4565b5b90600052602060002090600402016040518060800160405290816000820154815260200160018201805461150490612d66565b80601f016020809104026020016040519081016040528092919081815260200182805461153090612d66565b801561157d5780601f106115525761010080835404028352916020019161157d565b820191906000526020600020905b81548152906001019060200180831161156057829003601f168201915b5050505050815260200160028201805461159690612d66565b80601f01602080910402602001604051908101604052809291908181526020018280546115c290612d66565b801561160f5780601f106115e45761010080835404028352916020019161160f565b820191906000526020600020905b8154815290600101906020018083116115f257829003601f168201915b5050505050815260200160038201805461162890612d66565b80601f016020809104026020016040519081016040528092919081815260200182805461165490612d66565b80156116a15780601f10611676576101008083540402835291602001916116a1565b820191906000526020600020905b81548152906001019060200180831161168457829003601f168201915b5050505050815250508383815181106116bd576116bc6130d4565b5b602002602001018190525081806116d390613132565b9250505b80806116e290613132565b915050611484565b50819350505050919050565b6003818154811061170657600080fd5b906000526020600020906004020160009150905080600001549080600101805461172f90612d66565b80601f016020809104026020016040519081016040528092919081815260200182805461175b90612d66565b80156117a85780601f1061177d576101008083540402835291602001916117a8565b820191906000526020600020905b81548152906001019060200180831161178b57829003601f168201915b5050505050908060020180546117bd90612d66565b80601f01602080910402602001604051908101604052809291908181526020018280546117e990612d66565b80156118365780601f1061180b57610100808354040283529160200191611836565b820191906000526020600020905b81548152906001019060200180831161181957829003601f168201915b50505050509080600301805461184b90612d66565b80601f016020809104026020016040519081016040528092919081815260200182805461187790612d66565b80156118c45780601f10611899576101008083540402835291602001916118c4565b820191906000526020600020905b8154815290600101906020018083116118a757829003601f168201915b5050505050905084565b6000606080606060006002600087815260200190815260200160002060010180546118f890612d66565b90501161193a576040517f08c379a0000000000000000000000000000000000000000000000000000000008152600401611931906132f2565b60405180910390fd5b6000600260008781526020019081526020016000206040518060800160405290816000820154815260200160018201805461197490612d66565b80601f01602080910402602001604051908101604052809291908181526020018280546119a090612d66565b80156119ed5780601f106119c2576101008083540402835291602001916119ed565b820191906000526020600020905b8154815290600101906020018083116119d057829003601f168201915b50505050508152602001600282018054611a0690612d66565b80601f0160208091040260200160405190810160405280929190818152602001828054611a3290612d66565b8015611a7f5780601f10611a5457610100808354040283529160200191611a7f565b820191906000526020600020905b815481529060010190602001808311611a6257829003601f168201915b50505050508152602001600382018054611a9890612d66565b80601f0160208091040260200160405190810160405280929190818152602001828054611ac490612d66565b8015611b115780601f10611ae657610100808354040283529160200191611b11565b820191906000526020600020905b815481529060010190602001808311611af457829003601f168201915b505050505081525050905080600001518160200151826040015183606001519450945094509450509193509193565b6005602052806000526040600020600091509050806000015490806001018054611b6990612d66565b80601f0160208091040260200160405190810160405280929190818152602001828054611b9590612d66565b8015611be25780601f10611bb757610100808354040283529160200191611be2565b820191906000526020600020905b815481529060010190602001808311611bc557829003601f168201915b505050505090806002018054611bf790612d66565b80601f0160208091040260200160405190810160405280929190818152602001828054611c2390612d66565b8015611c705780601f10611c4557610100808354040283529160200191611c70565b820191906000526020600020905b815481529060010190602001808311611c5357829003601f168201915b505050505090806003018054611c8590612d66565b80601f0160208091040260200160405190810160405280929190818152602001828054611cb190612d66565b8015611cfe5780601f10611cd357610100808354040283529160200191611cfe565b820191906000526020600020905b815481529060010190602001808311611ce157829003601f168201915b505050505090806004018054611d1390612d66565b80601f0160208091040260200160405190810160405280929190818152602001828054611d3f90612d66565b8015611d8c5780601f10611d6157610100808354040283529160200191611d8c565b820191906000526020600020905b815481529060010190602001808311611d6f57829003601f168201915b5050505050905085565b60006060806060806000600560008881526020019081526020016000206001018054611dc190612d66565b905011611e03576040517f08c379a0000000000000000000000000000000000000000000000000000000008152600401611dfa9061335e565b60405180910390fd5b6000600560008881526020019081526020016000206040518060a001604052908160008201548152602001600182018054611e3d90612d66565b80601f0160208091040260200160405190810160405280929190818152602001828054611e6990612d66565b8015611eb65780601f10611e8b57610100808354040283529160200191611eb6565b820191906000526020600020905b815481529060010190602001808311611e9957829003601f168201915b50505050508152602001600282018054611ecf90612d66565b80601f0160208091040260200160405190810160405280929190818152602001828054611efb90612d66565b8015611f485780601f10611f1d57610100808354040283529160200191611f48565b820191906000526020600020905b815481529060010190602001808311611f2b57829003601f168201915b50505050508152602001600382018054611f6190612d66565b80601f0160208091040260200160405190810160405280929190818152602001828054611f8d90612d66565b8015611fda5780601f10611faf57610100808354040283529160200191611fda565b820191906000526020600020905b815481529060010190602001808311611fbd57829003601f168201915b50505050508152602001600482018054611ff390612d66565b80601f016020809104026020016040519081016040528092919081815260200182805461201f90612d66565b801561206c5780601f106120415761010080835404028352916020019161206c565b820191906000526020600020905b81548152906001019060200180831161204f57829003601f168201915b505050505081525050905080600001518160200151826040015183606001518460800151955095509550955095505091939590929450565b600460008154809291906120b790613132565b91905055506040518060a001604052806004548152602001858152602001848152602001838152602001828152506005600060045481526020019081526020016000206000820151816000015560208201518160010190816121199190612f43565b50604082015181600201908161212f9190612f43565b5060608201518160030190816121459190612f43565b50608082015181600401908161215b9190612f43565b509050506006600454908060018154018082558091505060019003906000526020600020016000909190919091505550505050565b6040518060a0016040528060008152602001606081526020016060815260200160608152602001606081525090565b6040518060a0016040528060608152602001606081526020016060815260200160608152602001606081525090565b6040518060800160405280600081526020016060815260200160608152602001606081525090565b6000604051905090565b600080fd5b600080fd5b6000819050919050565b61223d8161222a565b811461224857600080fd5b50565b60008135905061225a81612234565b92915050565b600080fd5b600080fd5b6000601f19601f8301169050919050565b7f4e487b7100000000000000000000000000000000000000000000000000000000600052604160045260246000fd5b6122b38261226a565b810181811067ffffffffffffffff821117156122d2576122d161227b565b5b80604052505050565b60006122e5612216565b90506122f182826122aa565b919050565b600067ffffffffffffffff8211156123115761231061227b565b5b61231a8261226a565b9050602081019050919050565b82818337600083830152505050565b6000612349612344846122f6565b6122db565b90508281526020810184848401111561236557612364612265565b5b612370848285612327565b509392505050565b600082601f83011261238d5761238c612260565b5b813561239d848260208601612336565b91505092915050565b600080600080608085870312156123c0576123bf612220565b5b60006123ce8782880161224b565b945050602085013567ffffffffffffffff8111156123ef576123ee612225565b5b6123fb87828801612378565b935050604085013567ffffffffffffffff81111561241c5761241b612225565b5b61242887828801612378565b925050606085013567ffffffffffffffff81111561244957612448612225565b5b61245587828801612378565b91505092959194509250565b60006020828403121561247757612476612220565b5b60006124858482850161224b565b91505092915050565b600081519050919050565b600082825260208201905092915050565b60005b838110156124c85780820151818401526020810190506124ad565b60008484015250505050565b60006124df8261248e565b6124e98185612499565b93506124f98185602086016124aa565b6125028161226a565b840191505092915050565b6000602082019050818103600083015261252781846124d4565b905092915050565b60006020828403121561254557612544612220565b5b600082013567ffffffffffffffff81111561256357612562612225565b5b61256f84828501612378565b91505092915050565b600060a082019050818103600083015261259281886124d4565b905081810360208301526125a681876124d4565b905081810360408301526125ba81866124d4565b905081810360608301526125ce81856124d4565b905081810360808301526125e281846124d4565b90509695505050505050565b600081519050919050565b600082825260208201905092915050565b6000819050602082019050919050565b6126238161222a565b82525050565b600082825260208201905092915050565b60006126458261248e565b61264f8185612629565b935061265f8185602086016124aa565b6126688161226a565b840191505092915050565b600060a08301600083015161268b600086018261261a565b50602083015184820360208601526126a3828261263a565b915050604083015184820360408601526126bd828261263a565b915050606083015184820360608601526126d7828261263a565b915050608083015184820360808601526126f1828261263a565b9150508091505092915050565b600061270a8383612673565b905092915050565b6000602082019050919050565b600061272a826125ee565b61273481856125f9565b9350836020820285016127468561260a565b8060005b85811015612782578484038952815161276385826126fe565b945061276e83612712565b925060208a0199505060018101905061274a565b50829750879550505050505092915050565b600060208201905081810360008301526127ae818461271f565b905092915050565b600081519050919050565b600082825260208201905092915050565b6000819050602082019050919050565b600060a08301600083015184820360008601526127ff828261263a565b91505060208301518482036020860152612819828261263a565b91505060408301518482036040860152612833828261263a565b9150506060830151848203606086015261284d828261263a565b91505060808301518482036080860152612867828261263a565b9150508091505092915050565b600061288083836127e2565b905092915050565b6000602082019050919050565b60006128a0826127b6565b6128aa81856127c1565b9350836020820285016128bc856127d2565b8060005b858110156128f857848403895281516128d98582612874565b94506128e483612888565b925060208a019950506001810190506128c0565b50829750879550505050505092915050565b600060208201905081810360008301526129248184612895565b905092915050565b600080600080600060a0868803121561294857612947612220565b5b600086013567ffffffffffffffff81111561296657612965612225565b5b61297288828901612378565b955050602086013567ffffffffffffffff81111561299357612992612225565b5b61299f88828901612378565b945050604086013567ffffffffffffffff8111156129c0576129bf612225565b5b6129cc88828901612378565b935050606086013567ffffffffffffffff8111156129ed576129ec612225565b5b6129f988828901612378565b925050608086013567ffffffffffffffff811115612a1a57612a19612225565b5b612a2688828901612378565b9150509295509295909350565b600081519050919050565b600082825260208201905092915050565b6000819050602082019050919050565b6000608083016000830151612a77600086018261261a565b5060208301518482036020860152612a8f828261263a565b91505060408301518482036040860152612aa9828261263a565b91505060608301518482036060860152612ac3828261263a565b9150508091505092915050565b6000612adc8383612a5f565b905092915050565b6000602082019050919050565b6000612afc82612a33565b612b068185612a3e565b935083602082028501612b1885612a4f565b8060005b85811015612b545784840389528151612b358582612ad0565b9450612b4083612ae4565b925060208a01995050600181019050612b1c565b50829750879550505050505092915050565b60006020820190508181036000830152612b808184612af1565b905092915050565b612b918161222a565b82525050565b6000608082019050612bac6000830187612b88565b8181036020830152612bbe81866124d4565b90508181036040830152612bd281856124d4565b90508181036060830152612be681846124d4565b905095945050505050565b600060a082019050612c066000830188612b88565b8181036020830152612c1881876124d4565b90508181036040830152612c2c81866124d4565b90508181036060830152612c4081856124d4565b90508181036080830152612c5481846124d4565b90509695505050505050565b60008060008060808587031215612c7a57612c79612220565b5b600085013567ffffffffffffffff811115612c9857612c97612225565b5b612ca487828801612378565b945050602085013567ffffffffffffffff811115612cc557612cc4612225565b5b612cd187828801612378565b935050604085013567ffffffffffffffff811115612cf257612cf1612225565b5b612cfe87828801612378565b925050606085013567ffffffffffffffff811115612d1f57612d1e612225565b5b612d2b87828801612378565b91505092959194509250565b7f4e487b7100000000000000000000000000000000000000000000000000000000600052602260045260246000fd5b60006002820490506001821680612d7e57607f821691505b602082108103612d9157612d90612d37565b5b50919050565b60008190508160005260206000209050919050565b60006020601f8301049050919050565b600082821b905092915050565b600060088302612df97fffffffffffffffffffffffffffffffffffffffffffffffffffffffffffffffff82612dbc565b612e038683612dbc565b95508019841693508086168417925050509392505050565b6000819050919050565b6000612e40612e3b612e368461222a565b612e1b565b61222a565b9050919050565b6000819050919050565b612e5a83612e25565b612e6e612e6682612e47565b848454612dc9565b825550505050565b600090565b612e83612e76565b612e8e818484612e51565b505050565b5b81811015612eb257612ea7600082612e7b565b600181019050612e94565b5050565b601f821115612ef757612ec881612d97565b612ed184612dac565b81016020851015612ee0578190505b612ef4612eec85612dac565b830182612e93565b50505b505050565b600082821c905092915050565b6000612f1a60001984600802612efc565b1980831691505092915050565b6000612f338383612f09565b9150826002028217905092915050565b612f4c8261248e565b67ffffffffffffffff811115612f6557612f6461227b565b5b612f6f8254612d66565b612f7a828285612eb6565b600060209050601f831160018114612fad5760008415612f9b578287015190505b612fa58582612f27565b86555061300d565b601f198416612fbb86612d97565b60005b82811015612fe357848901518255600182019150602085019450602081019050612fbe565b868310156130005784890151612ffc601f891682612f09565b8355505b6001600288020188555050505b505050505050565b600081905092915050565b600061302b8261248e565b6130358185613015565b93506130458185602086016124aa565b80840191505092915050565b600061305d8284613020565b915081905092915050565b7f566f746572206e6f742072656769737465726564000000000000000000000000600082015250565b600061309e601483612499565b91506130a982613068565b602082019050919050565b600060208201905081810360008301526130cd81613091565b9050919050565b7f4e487b7100000000000000000000000000000000000000000000000000000000600052603260045260246000fd5b7f4e487b7100000000000000000000000000000000000000000000000000000000600052601160045260246000fd5b600061313d8261222a565b91507fffffffffffffffffffffffffffffffffffffffffffffffffffffffffffffffff820361316f5761316e613103565b5b600182019050919050565b6000815461318781612d66565b6131918186613015565b945060018216600081146131ac57600181146131c1576131f4565b60ff19831686528115158202860193506131f4565b6131ca85612d97565b60005b838110156131ec578154818901526001820191506020810190506131cd565b838801955050505b50505092915050565b6000613209828461317a565b915081905092915050565b7f566f74657220616c72656164792072656769737465726564207769746820746860008201527f697320416164686172206e756d62657200000000000000000000000000000000602082015250565b6000613270603083612499565b915061327b82613214565b604082019050919050565b6000602082019050818103600083015261329f81613263565b9050919050565b7f506172747920646f6573206e6f74206578697374000000000000000000000000600082015250565b60006132dc601483612499565b91506132e7826132a6565b602082019050919050565b6000602082019050818103600083015261330b816132cf565b9050919050565b7f506f6c6c20646f6573206e6f7420657869737400000000000000000000000000600082015250565b6000613348601383612499565b915061335382613312565b602082019050919050565b600060208201905081810360008301526133778161333b565b905091905056fea2646970667358221220f6652f3ca4735aa1c120fc649b5927824cf75dc6ffefe8f7bbb3aa60cf742e2e64736f6c63430008130033",
  "immutableReferences": {},
  "source": "// SPDX-License-Identifier: MIT\npragma solidity >=0.4.22 <0.9.0;\n\ncontract Voting {\n\n    struct Voter {\n        string fullName;\n        string aadharNumber;\n        string irisImagePath;\n        string email;\n        string password;\n    }\n\n    struct Party {\n        uint id;\n        string partyName;\n        string partyLeader;\n        string symbolPath;\n    }\n\n    struct Poll {\n        uint pollId;\n        string pollName;\n        string pollDate;\n        string startTime;\n        string endTime;\n    }\n\n    mapping(string => Voter) public voters;\n    string[] public voterAadhars;\n\n    mapping(uint => Party) private parties; // Store parties by ID\n    Party[] public allParties;\n\n    uint private pollCounter = 0;  // Auto-incrementing poll ID\n    mapping(uint => Poll) public polls;\n    uint[] private pollIds;  // To track all poll IDs\n\n    function registerVoter(\n        string memory _fullName,\n        string memory _aadharNumber,\n        string memory _irisImagePath,\n        string memory _email,\n        string memory _password\n    ) public {\n        require(bytes(voters[_aadharNumber].aadharNumber).length == 0, \"Voter already registered with this Aadhar number\");\n\n        voters[_aadharNumber] = Voter({\n            fullName: _fullName,\n            aadharNumber: _aadharNumber,\n            irisImagePath: _irisImagePath,\n            email: _email,\n            password: _password\n        });\n\n        voterAadhars.push(_aadharNumber);\n    }\n\n    function getVoter(string memory aadhar) public view returns (string memory, string memory, string memory, string memory, string memory) {\n        require(bytes(voters[aadhar].aadharNumber).length > 0, \"Voter not registered\");\n\n        Voter memory voter = voters[aadhar];\n        return (voter.fullName, voter.aadharNumber, voter.irisImagePath, voter.email, voter.password);\n    }\n\n    // New function to get all registered voters\n    function getAllVoters() public view returns (Voter[] memory) {\n        Voter[] memory allVoters = new Voter[](voterAadhars.length);\n        for (uint i = 0; i < voterAadhars.length; i++) {\n            allVoters[i] = voters[voterAadhars[i]];\n        }\n        return allVoters;\n    }\n\n    function addParty(uint _id, string memory _partyName, string memory _partyLeader, string memory _symbolPath) public {\n        parties[_id] = Party(_id, _partyName, _partyLeader, _symbolPath);\n        allParties.push(Party(_id, _partyName, _partyLeader, _symbolPath));\n    }\n\n    function getParty(uint _id) public view returns (uint, string memory, string memory, string memory) {\n        require(bytes(parties[_id].partyName).length > 0, \"Party does not exist\");\n\n        Party memory party = parties[_id];\n        return (party.id, party.partyName, party.partyLeader, party.symbolPath);\n    }\n\n    function getPartiesByPartyId(uint partyId) public view returns (Party[] memory) {\n        uint count = 0;\n\n        for (uint i = 0; i < allParties.length; i++) {\n            if (allParties[i].id == partyId) {\n                count++;\n            }\n        }\n\n        Party[] memory result = new Party[](count);\n        uint index = 0;\n\n        for (uint i = 0; i < allParties.length; i++) {\n            if (allParties[i].id == partyId) {\n                result[index] = allParties[i];\n                index++;\n            }\n        }\n\n        return result;\n    }\n\n    function addPoll(string memory _pollName, string memory _pollDate, string memory _startTime, string memory _endTime) public {\n        pollCounter++;  \n\n        polls[pollCounter] = Poll(pollCounter, _pollName, _pollDate, _startTime, _endTime);\n        pollIds.push(pollCounter);\n    }\n\n    function getAllPolls() public view returns (Poll[] memory) {\n        Poll[] memory allPolls = new Poll[](pollIds.length);\n        for (uint i = 0; i < pollIds.length; i++) {\n            allPolls[i] = polls[pollIds[i]];\n        }\n        return allPolls;\n    }\n\n    function getPollById(uint _pollId) public view returns (uint, string memory, string memory, string memory, string memory) {\n        require(bytes(polls[_pollId].pollName).length > 0, \"Poll does not exist\");\n\n        Poll memory poll = polls[_pollId];\n        return (poll.pollId, poll.pollName, poll.pollDate, poll.startTime, poll.endTime);\n    }\n\n}\n",
  "sourcePath": "E:\\BITS-2025\\Blockchain integrated voting app\\contracts\\voting.sol",
  "compiler": {
    "name": "solc",
    "version": "0.8.19+commit.7dd6d404.Emscripten.clang"
  },
  "schemaVersion": "3.4.16",
  "updatedAt": "2025-02-22T13:23:22.205Z",
  "networkType": "ethereum",
  "devdoc": {
    "kind": "dev",
    "methods": {},
    "version": 1
  },
  "userdoc": {
    "kind": "user",
    "methods": {},
    "version": 1
  }
}