{
  "contractName": "Voting",
  "abi": [
    {
      "inputs": [
        {
          "internalType": "uint256",
          "name": "",
          "type": "uint256"
        }
      ],
      "name": "allParties",
      "outputs": [
        {
          "internalType": "uint256",
          "name": "id",
          "type": "uint256"
        },
        {
          "internalType": "string",
          "name": "partyName",
          "type": "string"
        },
        {
          "internalType": "string",
          "name": "partyLeader",
          "type": "string"
        },
        {
          "internalType": "string",
          "name": "symbolPath",
          "type": "string"
        }
      ],
      "stateMutability": "view",
      "type": "function",
      "constant": true
    },
    {
      "inputs": [
        {
          "internalType": "uint256",
          "name": "",
          "type": "uint256"
        }
      ],
      "name": "polls",
      "outputs": [
        {
          "internalType": "uint256",
          "name": "pollId",
          "type": "uint256"
        },
        {
          "internalType": "string",
          "name": "pollName",
          "type": "string"
        },
        {
          "internalType": "string",
          "name": "pollDate",
          "type": "string"
        },
        {
          "internalType": "string",
          "name": "startTime",
          "type": "string"
        },
        {
          "internalType": "string",
          "name": "endTime",
          "type": "string"
        }
      ],
      "stateMutability": "view",
      "type": "function",
      "constant": true
    },
    {
      "inputs": [
        {
          "internalType": "uint256",
          "name": "",
          "type": "uint256"
        }
      ],
      "name": "voterAadhars",
      "outputs": [
        {
          "internalType": "string",
          "name": "",
          "type": "string"
        }
      ],
      "stateMutability": "view",
      "type": "function",
      "constant": true
    },
    {
      "inputs": [
        {
          "internalType": "string",
          "name": "",
          "type": "string"
        }
      ],
      "name": "voters",
      "outputs": [
        {
          "internalType": "string",
          "name": "fullName",
          "type": "string"
        },
        {
          "internalType": "string",
          "name": "aadharNumber",
          "type": "string"
        },
        {
          "internalType": "string",
          "name": "irisImagePath",
          "type": "string"
        },
        {
          "internalType": "string",
          "name": "email",
          "type": "string"
        },
        {
          "internalType": "string",
          "name": "password",
          "type": "string"
        }
      ],
      "stateMutability": "view",
      "type": "function",
      "constant": true
    },
    {
      "inputs": [
        {
          "internalType": "string",
          "name": "_fullName",
          "type": "string"
        },
        {
          "internalType": "string",
          "name": "_aadharNumber",
          "type": "string"
        },
        {
          "internalType": "string",
          "name": "_irisImagePath",
          "type": "string"
        },
        {
          "internalType": "string",
          "name": "_email",
          "type": "string"
        },
        {
          "internalType": "string",
          "name": "_password",
          "type": "string"
        }
      ],
      "name": "registerVoter",
      "outputs": [],
      "stateMutability": "nonpayable",
      "type": "function"
    },
    {
      "inputs": [
        {
          "internalType": "string",
          "name": "aadhar",
          "type": "string"
        }
      ],
      "name": "getVoter",
      "outputs": [
        {
          "internalType": "string",
          "name": "",
          "type": "string"
        },
        {
          "internalType": "string",
          "name": "",
          "type": "string"
        },
        {
          "internalType": "string",
          "name": "",
          "type": "string"
        },
        {
          "internalType": "string",
          "name": "",
          "type": "string"
        },
        {
          "internalType": "string",
          "name": "",
          "type": "string"
        }
      ],
      "stateMutability": "view",
      "type": "function",
      "constant": true
    },
    {
      "inputs": [
        {
          "internalType": "uint256",
          "name": "_id",
          "type": "uint256"
        },
        {
          "internalType": "string",
          "name": "_partyName",
          "type": "string"
        },
        {
          "internalType": "string",
          "name": "_partyLeader",
          "type": "string"
        },
        {
          "internalType": "string",
          "name": "_symbolPath",
          "type": "string"
        }
      ],
      "name": "addParty",
      "outputs": [],
      "stateMutability": "nonpayable",
      "type": "function"
    },
    {
      "inputs": [
        {
          "internalType": "uint256",
          "name": "_id",
          "type": "uint256"
        }
      ],
      "name": "getParty",
      "outputs": [
        {
          "internalType": "uint256",
          "name": "",
          "type": "uint256"
        },
        {
          "internalType": "string",
          "name": "",
          "type": "string"
        },
        {
          "internalType": "string",
          "name": "",
          "type": "string"
        },
        {
          "internalType": "string",
          "name": "",
          "type": "string"
        }
      ],
      "stateMutability": "view",
      "type": "function",
      "constant": true
    },
    {
      "inputs": [
        {
          "internalType": "uint256",
          "name": "partyId",
          "type": "uint256"
        }
      ],
      "name": "getPartiesByPartyId",
      "outputs": [
        {
          "components": [
            {
              "internalType": "uint256",
              "name": "id",
              "type": "uint256"
            },
            {
              "internalType": "string",
              "name": "partyName",
              "type": "string"
            },
            {
              "internalType": "string",
              "name": "partyLeader",
              "type": "string"
            },
            {
              "internalType": "string",
              "name": "symbolPath",
              "type": "string"
            }
          ],
          "internalType": "struct Voting.Party[]",
          "name": "",
          "type": "tuple[]"
        }
      ],
      "stateMutability": "view",
      "type": "function",
      "constant": true
    },
    {
      "inputs": [
        {
          "internalType": "string",
          "name": "_pollName",
          "type": "string"
        },
        {
          "internalType": "string",
          "name": "_pollDate",
          "type": "string"
        },
        {
          "internalType": "string",
          "name": "_startTime",
          "type": "string"
        },
        {
          "internalType": "string",
          "name": "_endTime",
          "type": "string"
        }
      ],
      "name": "addPoll",
      "outputs": [],
      "stateMutability": "nonpayable",
      "type": "function"
    },
    {
      "inputs": [],
      "name": "getAllPolls",
      "outputs": [
        {
          "components": [
            {
              "internalType": "uint256",
              "name": "pollId",
              "type": "uint256"
            },
            {
              "internalType": "string",
              "name": "pollName",
              "type": "string"
            },
            {
              "internalType": "string",
              "name": "pollDate",
              "type": "string"
            },
            {
              "internalType": "string",
              "name": "startTime",
              "type": "string"
            },
            {
              "internalType": "string",
              "name": "endTime",
              "type": "string"
            }
          ],
          "internalType": "struct Voting.Poll[]",
          "name": "",
          "type": "tuple[]"
        }
      ],
      "stateMutability": "view",
      "type": "function",
      "constant": true
    }
  ],
  "bytecode": "0x6080604052600060045534801561001557600080fd5b50612a8c806100256000396000f3fe608060405234801561001057600080fd5b50600436106100a95760003560e01c80635ed5d2c3116100715780635ed5d2c3146101805780635f8fd5791461019c57806360d50596146101cc57806394758218146101ff578063ac2f007414610232578063f20f4e2314610266576100a9565b806308829408146100ae5780630d0b800f146100ca57806314a0069a146100fa57806332b633fa1461012e57806353fa2e641461014c575b600080fd5b6100c860048036038101906100c39190611c8e565b610282565b005b6100e460048036038101906100df9190611d49565b61040a565b6040516100f19190611df5565b60405180910390f35b610114600480360381019061010f9190611e17565b6104b6565b604051610125959493929190611e60565b60405180910390f35b610136610860565b604051610143919061207c565b60405180910390f35b61016660048036038101906101619190611e17565b610b96565b604051610177959493929190611e60565b60405180910390f35b61019a6004803603810190610195919061209e565b610e8a565b005b6101b660048036038101906101b19190611d49565b610feb565b6040516101c391906122d8565b60405180910390f35b6101e660048036038101906101e19190611d49565b61131b565b6040516101f69493929190612309565b60405180910390f35b61021960048036038101906102149190611d49565b6114f3565b6040516102299493929190612309565b60405180910390f35b61024c60048036038101906102479190611d49565b611765565b60405161025d959493929190612363565b60405180910390f35b610280600480360381019061027b91906123d2565b6119bb565b005b60006002600086815260200190815260200160002060010180546102a5906124d8565b9050146102e7576040517f08c379a00000000000000000000000000000000000000000000000000000000081526004016102de90612555565b60405180910390fd5b6040518060800160405280858152602001848152602001838152602001828152506002600086815260200190815260200160002060008201518160000155602082015181600101908161033a9190612721565b5060408201518160020190816103509190612721565b5060608201518160030190816103669190612721565b50905050600360405180608001604052808681526020018581526020018481526020018381525090806001815401808255809150506001900390600052602060002090600402016000909190919091506000820151816000015560208201518160010190816103d59190612721565b5060408201518160020190816103eb9190612721565b5060608201518160030190816104019190612721565b50505050505050565b6001818154811061041a57600080fd5b906000526020600020016000915090508054610435906124d8565b80601f0160208091040260200160405190810160405280929190818152602001828054610461906124d8565b80156104ae5780601f10610483576101008083540402835291602001916104ae565b820191906000526020600020905b81548152906001019060200180831161049157829003601f168201915b505050505081565b6060806060806060600080876040516104cf919061282f565b908152602001604051809103902060010180546104eb906124d8565b90501161052d576040517f08c379a000000000000000000000000000000000000000000000000000000000815260040161052490612892565b60405180910390fd5b6000808760405161053e919061282f565b90815260200160405180910390206040518060a0016040529081600082018054610567906124d8565b80601f0160208091040260200160405190810160405280929190818152602001828054610593906124d8565b80156105e05780601f106105b5576101008083540402835291602001916105e0565b820191906000526020600020905b8154815290600101906020018083116105c357829003601f168201915b505050505081526020016001820180546105f9906124d8565b80601f0160208091040260200160405190810160405280929190818152602001828054610625906124d8565b80156106725780601f1061064757610100808354040283529160200191610672565b820191906000526020600020905b81548152906001019060200180831161065557829003601f168201915b5050505050815260200160028201805461068b906124d8565b80601f01602080910402602001604051908101604052809291908181526020018280546106b7906124d8565b80156107045780601f106106d957610100808354040283529160200191610704565b820191906000526020600020905b8154815290600101906020018083116106e757829003601f168201915b5050505050815260200160038201805461071d906124d8565b80601f0160208091040260200160405190810160405280929190818152602001828054610749906124d8565b80156107965780601f1061076b57610100808354040283529160200191610796565b820191906000526020600020905b81548152906001019060200180831161077957829003601f168201915b505050505081526020016004820180546107af906124d8565b80601f01602080910402602001604051908101604052809291908181526020018280546107db906124d8565b80156108285780601f106107fd57610100808354040283529160200191610828565b820191906000526020600020905b81548152906001019060200180831161080b57829003601f168201915b505050505081525050905080600001518160200151826040015183606001518460800151955095509550955095505091939590929450565b6060600060068054905067ffffffffffffffff81111561088357610882611b63565b5b6040519080825280602002602001820160405280156108bc57816020015b6108a9611aa7565b8152602001906001900390816108a15790505b50905060005b600680549050811015610b8e5760056000600683815481106108e7576108e66128b2565b5b906000526020600020015481526020019081526020016000206040518060a001604052908160008201548152602001600182018054610925906124d8565b80601f0160208091040260200160405190810160405280929190818152602001828054610951906124d8565b801561099e5780601f106109735761010080835404028352916020019161099e565b820191906000526020600020905b81548152906001019060200180831161098157829003601f168201915b505050505081526020016002820180546109b7906124d8565b80601f01602080910402602001604051908101604052809291908181526020018280546109e3906124d8565b8015610a305780601f10610a0557610100808354040283529160200191610a30565b820191906000526020600020905b815481529060010190602001808311610a1357829003601f168201915b50505050508152602001600382018054610a49906124d8565b80601f0160208091040260200160405190810160405280929190818152602001828054610a75906124d8565b8015610ac25780601f10610a9757610100808354040283529160200191610ac2565b820191906000526020600020905b815481529060010190602001808311610aa557829003601f168201915b50505050508152602001600482018054610adb906124d8565b80601f0160208091040260200160405190810160405280929190818152602001828054610b07906124d8565b8015610b545780601f10610b2957610100808354040283529160200191610b54565b820191906000526020600020905b815481529060010190602001808311610b3757829003601f168201915b505050505081525050828281518110610b7057610b6f6128b2565b5b60200260200101819052508080610b8690612910565b9150506108c2565b508091505090565b600081805160208101820180518482526020830160208501208183528095505050505050600091509050806000018054610bcf906124d8565b80601f0160208091040260200160405190810160405280929190818152602001828054610bfb906124d8565b8015610c485780601f10610c1d57610100808354040283529160200191610c48565b820191906000526020600020905b815481529060010190602001808311610c2b57829003601f168201915b505050505090806001018054610c5d906124d8565b80601f0160208091040260200160405190810160405280929190818152602001828054610c89906124d8565b8015610cd65780601f10610cab57610100808354040283529160200191610cd6565b820191906000526020600020905b815481529060010190602001808311610cb957829003601f168201915b505050505090806002018054610ceb906124d8565b80601f0160208091040260200160405190810160405280929190818152602001828054610d17906124d8565b8015610d645780601f10610d3957610100808354040283529160200191610d64565b820191906000526020600020905b815481529060010190602001808311610d4757829003601f168201915b505050505090806003018054610d79906124d8565b80601f0160208091040260200160405190810160405280929190818152602001828054610da5906124d8565b8015610df25780601f10610dc757610100808354040283529160200191610df2565b820191906000526020600020905b815481529060010190602001808311610dd557829003601f168201915b505050505090806004018054610e07906124d8565b80601f0160208091040260200160405190810160405280929190818152602001828054610e33906124d8565b8015610e805780601f10610e5557610100808354040283529160200191610e80565b820191906000526020600020905b815481529060010190602001808311610e6357829003601f168201915b5050505050905085565b60008085604051610e9b919061282f565b90815260200160405180910390206001018054610eb7906124d8565b905014610ef9576040517f08c379a0000000000000000000000000000000000000000000000000000000008152600401610ef0906129ca565b60405180910390fd5b6040518060a0016040528086815260200185815260200184815260200183815260200182815250600085604051610f30919061282f565b90815260200160405180910390206000820151816000019081610f539190612721565b506020820151816001019081610f699190612721565b506040820151816002019081610f7f9190612721565b506060820151816003019081610f959190612721565b506080820151816004019081610fab9190612721565b50905050600184908060018154018082558091505060019003906000526020600020016000909190919091509081610fe39190612721565b505050505050565b60606000805b60038054905081101561104c578360038281548110611013576110126128b2565b5b9060005260206000209060040201600001540361103957818061103590612910565b9250505b808061104490612910565b915050610ff1565b5060008167ffffffffffffffff81111561106957611068611b63565b5b6040519080825280602002602001820160405280156110a257816020015b61108f611ad6565b8152602001906001900390816110875790505b5090506000805b60038054905081101561130f5785600382815481106110cb576110ca6128b2565b5b906000526020600020906004020160000154036112fc57600381815481106110f6576110f56128b2565b5b906000526020600020906004020160405180608001604052908160008201548152602001600182018054611129906124d8565b80601f0160208091040260200160405190810160405280929190818152602001828054611155906124d8565b80156111a25780601f10611177576101008083540402835291602001916111a2565b820191906000526020600020905b81548152906001019060200180831161118557829003601f168201915b505050505081526020016002820180546111bb906124d8565b80601f01602080910402602001604051908101604052809291908181526020018280546111e7906124d8565b80156112345780601f1061120957610100808354040283529160200191611234565b820191906000526020600020905b81548152906001019060200180831161121757829003601f168201915b5050505050815260200160038201805461124d906124d8565b80601f0160208091040260200160405190810160405280929190818152602001828054611279906124d8565b80156112c65780601f1061129b576101008083540402835291602001916112c6565b820191906000526020600020905b8154815290600101906020018083116112a957829003601f168201915b5050505050815250508383815181106112e2576112e16128b2565b5b602002602001018190525081806112f890612910565b9250505b808061130790612910565b9150506110a9565b50819350505050919050565b6003818154811061132b57600080fd5b9060005260206000209060040201600091509050806000015490806001018054611354906124d8565b80601f0160208091040260200160405190810160405280929190818152602001828054611380906124d8565b80156113cd5780601f106113a2576101008083540402835291602001916113cd565b820191906000526020600020905b8154815290600101906020018083116113b057829003601f168201915b5050505050908060020180546113e2906124d8565b80601f016020809104026020016040519081016040528092919081815260200182805461140e906124d8565b801561145b5780601f106114305761010080835404028352916020019161145b565b820191906000526020600020905b81548152906001019060200180831161143e57829003601f168201915b505050505090806003018054611470906124d8565b80601f016020809104026020016040519081016040528092919081815260200182805461149c906124d8565b80156114e95780601f106114be576101008083540402835291602001916114e9565b820191906000526020600020905b8154815290600101906020018083116114cc57829003601f168201915b5050505050905084565b60006060806060600060026000878152602001908152602001600020600101805461151d906124d8565b90501161155f576040517f08c379a000000000000000000000000000000000000000000000000000000000815260040161155690612a36565b60405180910390fd5b60006002600087815260200190815260200160002060405180608001604052908160008201548152602001600182018054611599906124d8565b80601f01602080910402602001604051908101604052809291908181526020018280546115c5906124d8565b80156116125780601f106115e757610100808354040283529160200191611612565b820191906000526020600020905b8154815290600101906020018083116115f557829003601f168201915b5050505050815260200160028201805461162b906124d8565b80601f0160208091040260200160405190810160405280929190818152602001828054611657906124d8565b80156116a45780601f10611679576101008083540402835291602001916116a4565b820191906000526020600020905b81548152906001019060200180831161168757829003601f168201915b505050505081526020016003820180546116bd906124d8565b80601f01602080910402602001604051908101604052809291908181526020018280546116e9906124d8565b80156117365780601f1061170b57610100808354040283529160200191611736565b820191906000526020600020905b81548152906001019060200180831161171957829003601f168201915b505050505081525050905080600001518160200151826040015183606001519450945094509450509193509193565b600560205280600052604060002060009150905080600001549080600101805461178e906124d8565b80601f01602080910402602001604051908101604052809291908181526020018280546117ba906124d8565b80156118075780601f106117dc57610100808354040283529160200191611807565b820191906000526020600020905b8154815290600101906020018083116117ea57829003601f168201915b50505050509080600201805461181c906124d8565b80601f0160208091040260200160405190810160405280929190818152602001828054611848906124d8565b80156118955780601f1061186a57610100808354040283529160200191611895565b820191906000526020600020905b81548152906001019060200180831161187857829003601f168201915b5050505050908060030180546118aa906124d8565b80601f01602080910402602001604051908101604052809291908181526020018280546118d6906124d8565b80156119235780601f106118f857610100808354040283529160200191611923565b820191906000526020600020905b81548152906001019060200180831161190657829003601f168201915b505050505090806004018054611938906124d8565b80601f0160208091040260200160405190810160405280929190818152602001828054611964906124d8565b80156119b15780601f10611986576101008083540402835291602001916119b1565b820191906000526020600020905b81548152906001019060200180831161199457829003601f168201915b5050505050905085565b600460008154809291906119ce90612910565b91905055506040518060a00160405280600454815260200185815260200184815260200183815260200182815250600560006004548152602001908152602001600020600082015181600001556020820151816001019081611a309190612721565b506040820151816002019081611a469190612721565b506060820151816003019081611a5c9190612721565b506080820151816004019081611a729190612721565b509050506006600454908060018154018082558091505060019003906000526020600020016000909190919091505550505050565b6040518060a0016040528060008152602001606081526020016060815260200160608152602001606081525090565b6040518060800160405280600081526020016060815260200160608152602001606081525090565b6000604051905090565b600080fd5b600080fd5b6000819050919050565b611b2581611b12565b8114611b3057600080fd5b50565b600081359050611b4281611b1c565b92915050565b600080fd5b600080fd5b6000601f19601f8301169050919050565b7f4e487b7100000000000000000000000000000000000000000000000000000000600052604160045260246000fd5b611b9b82611b52565b810181811067ffffffffffffffff82111715611bba57611bb9611b63565b5b80604052505050565b6000611bcd611afe565b9050611bd98282611b92565b919050565b600067ffffffffffffffff821115611bf957611bf8611b63565b5b611c0282611b52565b9050602081019050919050565b82818337600083830152505050565b6000611c31611c2c84611bde565b611bc3565b905082815260208101848484011115611c4d57611c4c611b4d565b5b611c58848285611c0f565b509392505050565b600082601f830112611c7557611c74611b48565b5b8135611c85848260208601611c1e565b91505092915050565b60008060008060808587031215611ca857611ca7611b08565b5b6000611cb687828801611b33565b945050602085013567ffffffffffffffff811115611cd757611cd6611b0d565b5b611ce387828801611c60565b935050604085013567ffffffffffffffff811115611d0457611d03611b0d565b5b611d1087828801611c60565b925050606085013567ffffffffffffffff811115611d3157611d30611b0d565b5b611d3d87828801611c60565b91505092959194509250565b600060208284031215611d5f57611d5e611b08565b5b6000611d6d84828501611b33565b91505092915050565b600081519050919050565b600082825260208201905092915050565b60005b83811015611db0578082015181840152602081019050611d95565b60008484015250505050565b6000611dc782611d76565b611dd18185611d81565b9350611de1818560208601611d92565b611dea81611b52565b840191505092915050565b60006020820190508181036000830152611e0f8184611dbc565b905092915050565b600060208284031215611e2d57611e2c611b08565b5b600082013567ffffffffffffffff811115611e4b57611e4a611b0d565b5b611e5784828501611c60565b91505092915050565b600060a0820190508181036000830152611e7a8188611dbc565b90508181036020830152611e8e8187611dbc565b90508181036040830152611ea28186611dbc565b90508181036060830152611eb68185611dbc565b90508181036080830152611eca8184611dbc565b90509695505050505050565b600081519050919050565b600082825260208201905092915050565b6000819050602082019050919050565b611f0b81611b12565b82525050565b600082825260208201905092915050565b6000611f2d82611d76565b611f378185611f11565b9350611f47818560208601611d92565b611f5081611b52565b840191505092915050565b600060a083016000830151611f736000860182611f02565b5060208301518482036020860152611f8b8282611f22565b91505060408301518482036040860152611fa58282611f22565b91505060608301518482036060860152611fbf8282611f22565b91505060808301518482036080860152611fd98282611f22565b9150508091505092915050565b6000611ff28383611f5b565b905092915050565b6000602082019050919050565b600061201282611ed6565b61201c8185611ee1565b93508360208202850161202e85611ef2565b8060005b8581101561206a578484038952815161204b8582611fe6565b945061205683611ffa565b925060208a01995050600181019050612032565b50829750879550505050505092915050565b600060208201905081810360008301526120968184612007565b905092915050565b600080600080600060a086880312156120ba576120b9611b08565b5b600086013567ffffffffffffffff8111156120d8576120d7611b0d565b5b6120e488828901611c60565b955050602086013567ffffffffffffffff81111561210557612104611b0d565b5b61211188828901611c60565b945050604086013567ffffffffffffffff81111561213257612131611b0d565b5b61213e88828901611c60565b935050606086013567ffffffffffffffff81111561215f5761215e611b0d565b5b61216b88828901611c60565b925050608086013567ffffffffffffffff81111561218c5761218b611b0d565b5b61219888828901611c60565b9150509295509295909350565b600081519050919050565b600082825260208201905092915050565b6000819050602082019050919050565b60006080830160008301516121e96000860182611f02565b50602083015184820360208601526122018282611f22565b9150506040830151848203604086015261221b8282611f22565b915050606083015184820360608601526122358282611f22565b9150508091505092915050565b600061224e83836121d1565b905092915050565b6000602082019050919050565b600061226e826121a5565b61227881856121b0565b93508360208202850161228a856121c1565b8060005b858110156122c657848403895281516122a78582612242565b94506122b283612256565b925060208a0199505060018101905061228e565b50829750879550505050505092915050565b600060208201905081810360008301526122f28184612263565b905092915050565b61230381611b12565b82525050565b600060808201905061231e60008301876122fa565b81810360208301526123308186611dbc565b905081810360408301526123448185611dbc565b905081810360608301526123588184611dbc565b905095945050505050565b600060a08201905061237860008301886122fa565b818103602083015261238a8187611dbc565b9050818103604083015261239e8186611dbc565b905081810360608301526123b28185611dbc565b905081810360808301526123c68184611dbc565b90509695505050505050565b600080600080608085870312156123ec576123eb611b08565b5b600085013567ffffffffffffffff81111561240a57612409611b0d565b5b61241687828801611c60565b945050602085013567ffffffffffffffff81111561243757612436611b0d565b5b61244387828801611c60565b935050604085013567ffffffffffffffff81111561246457612463611b0d565b5b61247087828801611c60565b925050606085013567ffffffffffffffff81111561249157612490611b0d565b5b61249d87828801611c60565b91505092959194509250565b7f4e487b7100000000000000000000000000000000000000000000000000000000600052602260045260246000fd5b600060028204905060018216806124f057607f821691505b602082108103612503576125026124a9565b5b50919050565b7f506172747920494420616c726561647920657869737473000000000000000000600082015250565b600061253f601783611d81565b915061254a82612509565b602082019050919050565b6000602082019050818103600083015261256e81612532565b9050919050565b60008190508160005260206000209050919050565b60006020601f8301049050919050565b600082821b905092915050565b6000600883026125d77fffffffffffffffffffffffffffffffffffffffffffffffffffffffffffffffff8261259a565b6125e1868361259a565b95508019841693508086168417925050509392505050565b6000819050919050565b600061261e61261961261484611b12565b6125f9565b611b12565b9050919050565b6000819050919050565b61263883612603565b61264c61264482612625565b8484546125a7565b825550505050565b600090565b612661612654565b61266c81848461262f565b505050565b5b8181101561269057612685600082612659565b600181019050612672565b5050565b601f8211156126d5576126a681612575565b6126af8461258a565b810160208510156126be578190505b6126d26126ca8561258a565b830182612671565b50505b505050565b600082821c905092915050565b60006126f8600019846008026126da565b1980831691505092915050565b600061271183836126e7565b9150826002028217905092915050565b61272a82611d76565b67ffffffffffffffff81111561274357612742611b63565b5b61274d82546124d8565b612758828285612694565b600060209050601f83116001811461278b5760008415612779578287015190505b6127838582612705565b8655506127eb565b601f19841661279986612575565b60005b828110156127c15784890151825560018201915060208501945060208101905061279c565b868310156127de57848901516127da601f8916826126e7565b8355505b6001600288020188555050505b505050505050565b600081905092915050565b600061280982611d76565b61281381856127f3565b9350612823818560208601611d92565b80840191505092915050565b600061283b82846127fe565b915081905092915050565b7f566f746572206e6f742072656769737465726564000000000000000000000000600082015250565b600061287c601483611d81565b915061288782612846565b602082019050919050565b600060208201905081810360008301526128ab8161286f565b9050919050565b7f4e487b7100000000000000000000000000000000000000000000000000000000600052603260045260246000fd5b7f4e487b7100000000000000000000000000000000000000000000000000000000600052601160045260246000fd5b600061291b82611b12565b91507fffffffffffffffffffffffffffffffffffffffffffffffffffffffffffffffff820361294d5761294c6128e1565b5b600182019050919050565b7f566f74657220616c72656164792072656769737465726564207769746820746860008201527f697320416164686172206e756d62657200000000000000000000000000000000602082015250565b60006129b4603083611d81565b91506129bf82612958565b604082019050919050565b600060208201905081810360008301526129e3816129a7565b9050919050565b7f506172747920646f6573206e6f74206578697374000000000000000000000000600082015250565b6000612a20601483611d81565b9150612a2b826129ea565b602082019050919050565b60006020820190508181036000830152612a4f81612a13565b905091905056fea264697066735822122097c49415a950cf384c2af44f6e8b6a86ed252d09a7ca681d4c9eca165e9f4ba864736f6c63430008130033",
  "immutableReferences": {},
  "source": "// SPDX-License-Identifier: MIT\npragma solidity >=0.4.22 <0.9.0;\n\ncontract Voting {\n\n    struct Voter {\n        string fullName;\n        string aadharNumber;\n        string irisImagePath;\n        string email;\n        string password;\n    }\n\n    struct Party {\n        uint id;\n        string partyName;\n        string partyLeader;\n        string symbolPath;\n    }\n\n    struct Poll {\n        uint pollId;\n        string pollName;\n        string pollDate;\n        string startTime;\n        string endTime;\n    }\n\n    mapping(string => Voter) public voters;\n    string[] public voterAadhars;\n\n    mapping(uint => Party) private parties; // Store parties by ID\n    Party[] public allParties;\n\n    uint private pollCounter = 0;  // Auto-incrementing poll ID\n    mapping(uint => Poll) public polls;\n    uint[] private pollIds;  // To track all poll IDs\n\n    function registerVoter(\n        string memory _fullName,\n        string memory _aadharNumber,\n        string memory _irisImagePath,\n        string memory _email,\n        string memory _password\n    ) public {\n        require(bytes(voters[_aadharNumber].aadharNumber).length == 0, \"Voter already registered with this Aadhar number\");\n\n        voters[_aadharNumber] = Voter({\n            fullName: _fullName,\n            aadharNumber: _aadharNumber,\n            irisImagePath: _irisImagePath,\n            email: _email,\n            password: _password\n        });\n\n        voterAadhars.push(_aadharNumber);\n    }\n\n    function getVoter(string memory aadhar) public view returns (string memory, string memory, string memory, string memory, string memory) {\n        require(bytes(voters[aadhar].aadharNumber).length > 0, \"Voter not registered\");\n\n        Voter memory voter = voters[aadhar];\n        return (voter.fullName, voter.aadharNumber, voter.irisImagePath, voter.email, voter.password);\n    }\n\n    // Function to add a new party (now accepts `id` as an argument)\n    function addParty(uint _id, string memory _partyName, string memory _partyLeader, string memory _symbolPath) public {\n        require(bytes(parties[_id].partyName).length == 0, \"Party ID already exists\");\n\n        parties[_id] = Party(_id, _partyName, _partyLeader, _symbolPath);\n        allParties.push(Party(_id, _partyName, _partyLeader, _symbolPath));\n    }\n\n    // Function to get a party by ID\n    function getParty(uint _id) public view returns (uint, string memory, string memory, string memory) {\n        require(bytes(parties[_id].partyName).length > 0, \"Party does not exist\");\n\n        Party memory party = parties[_id];\n        return (party.id, party.partyName, party.partyLeader, party.symbolPath);\n    }\n\n    // Function to get all parties with a specific ID\nfunction getPartiesByPartyId(uint partyId) public view returns (Party[] memory) {\n    uint count = 0;\n\n    // Count how many parties have the given ID\n    for (uint i = 0; i < allParties.length; i++) {\n        if (allParties[i].id == partyId) {\n            count++;\n        }\n    }\n\n    // Create a dynamic array to store matching parties\n    Party[] memory result = new Party[](count);\n    uint index = 0;\n\n    // Add matching parties to the result array\n    for (uint i = 0; i < allParties.length; i++) {\n        if (allParties[i].id == partyId) {\n            result[index] = allParties[i];\n            index++;\n        }\n    }\n\n    return result;\n}\n\nfunction addPoll(string memory _pollName, string memory _pollDate, string memory _startTime, string memory _endTime) public {\n        pollCounter++;  // Auto-increment ID\n\n        polls[pollCounter] = Poll(pollCounter, _pollName, _pollDate, _startTime, _endTime);\n        pollIds.push(pollCounter);  // Store poll ID\n    }\n\n        function getAllPolls() public view returns (Poll[] memory) {\n        Poll[] memory allPolls = new Poll[](pollIds.length);\n        for (uint i = 0; i < pollIds.length; i++) {\n            allPolls[i] = polls[pollIds[i]];\n        }\n        return allPolls;\n    }\n\n\n}\n",
  "sourcePath": "E:\\BITS-2025\\Blockchain integrated voting app\\contracts\\voting.sol",
  "compiler": {
    "name": "solc",
    "version": "0.8.19+commit.7dd6d404.Emscripten.clang"
  },
  "schemaVersion": "3.4.16",
  "updatedAt": "2025-02-22T06:14:14.178Z",
  "networkType": "ethereum",
  "devdoc": {
    "kind": "dev",
    "methods": {},
    "version": 1
  },
  "userdoc": {
    "kind": "user",
    "methods": {},
    "version": 1
  }
}